{
  "contractName": "thuto",
  "abi": [
    {
      "constant": true,
      "inputs": [
        {
          "name": "interfaceId",
          "type": "bytes4"
        }
      ],
      "name": "supportsInterface",
      "outputs": [
        {
          "name": "",
          "type": "bool"
        }
      ],
      "payable": false,
      "stateMutability": "view",
      "type": "function"
    },
    {
      "constant": true,
      "inputs": [
        {
          "name": "",
          "type": "uint256"
        },
        {
          "name": "",
          "type": "uint256"
        }
      ],
      "name": "sessionRequests",
      "outputs": [
        {
          "name": "",
          "type": "uint256"
        }
      ],
      "payable": false,
      "stateMutability": "view",
      "type": "function"
    },
    {
      "constant": true,
      "inputs": [],
      "name": "name",
      "outputs": [
        {
          "name": "",
          "type": "string"
        }
      ],
      "payable": false,
      "stateMutability": "view",
      "type": "function"
    },
    {
      "constant": true,
      "inputs": [
        {
          "name": "tokenId",
          "type": "uint256"
        }
      ],
      "name": "getApproved",
      "outputs": [
        {
          "name": "",
          "type": "address"
        }
      ],
      "payable": false,
      "stateMutability": "view",
      "type": "function"
    },
    {
      "constant": false,
      "inputs": [
        {
          "name": "to",
          "type": "address"
        },
        {
          "name": "tokenId",
          "type": "uint256"
        }
      ],
      "name": "approve",
      "outputs": [],
      "payable": false,
      "stateMutability": "nonpayable",
      "type": "function"
    },
    {
      "constant": false,
      "inputs": [
        {
          "name": "from",
          "type": "address"
        },
        {
          "name": "to",
          "type": "address"
        },
        {
          "name": "tokenId",
          "type": "uint256"
        }
      ],
      "name": "transferFrom",
      "outputs": [],
      "payable": false,
      "stateMutability": "nonpayable",
      "type": "function"
    },
    {
      "constant": true,
      "inputs": [
        {
          "name": "",
          "type": "uint256"
        },
        {
          "name": "",
          "type": "uint256"
        }
      ],
      "name": "requestOwners",
      "outputs": [
        {
          "name": "",
          "type": "uint256"
        }
      ],
      "payable": false,
      "stateMutability": "view",
      "type": "function"
    },
    {
      "constant": true,
      "inputs": [
        {
          "name": "",
          "type": "uint256"
        }
      ],
      "name": "users",
      "outputs": [
        {
          "name": "owned_address",
          "type": "address"
        },
        {
          "name": "profile_uri",
          "type": "string"
        }
      ],
      "payable": false,
      "stateMutability": "view",
      "type": "function"
    },
    {
      "constant": false,
      "inputs": [
        {
          "name": "from",
          "type": "address"
        },
        {
          "name": "to",
          "type": "address"
        },
        {
          "name": "tokenId",
          "type": "uint256"
        }
      ],
      "name": "safeTransferFrom",
      "outputs": [],
      "payable": false,
      "stateMutability": "nonpayable",
      "type": "function"
    },
    {
      "constant": true,
      "inputs": [
        {
          "name": "tokenId",
          "type": "uint256"
        }
      ],
      "name": "ownerOf",
      "outputs": [
        {
          "name": "",
          "type": "address"
        }
      ],
      "payable": false,
      "stateMutability": "view",
      "type": "function"
    },
    {
      "constant": true,
      "inputs": [
        {
          "name": "owner",
          "type": "address"
        }
      ],
      "name": "balanceOf",
      "outputs": [
        {
          "name": "",
          "type": "uint256"
        }
      ],
      "payable": false,
      "stateMutability": "view",
      "type": "function"
    },
    {
      "constant": true,
      "inputs": [
        {
          "name": "",
          "type": "uint256"
        }
      ],
      "name": "requests",
      "outputs": [
        {
          "name": "status",
          "type": "uint8"
        },
        {
          "name": "session_Id",
          "type": "uint256"
        },
        {
          "name": "student_Id",
          "type": "uint256"
        }
      ],
      "payable": false,
      "stateMutability": "view",
      "type": "function"
    },
    {
      "constant": true,
      "inputs": [
        {
          "name": "",
          "type": "uint256"
        }
      ],
      "name": "sessions",
      "outputs": [
        {
          "name": "tutor_Id",
          "type": "uint256"
        },
        {
          "name": "session_uri",
          "type": "string"
        },
        {
          "name": "isRunning",
          "type": "bool"
        },
        {
          "name": "tutoring_price",
          "type": "uint256"
        },
        {
          "name": "details",
          "type": "string"
        }
      ],
      "payable": false,
      "stateMutability": "view",
      "type": "function"
    },
    {
      "constant": true,
      "inputs": [],
      "name": "symbol",
      "outputs": [
        {
          "name": "",
          "type": "string"
        }
      ],
      "payable": false,
      "stateMutability": "view",
      "type": "function"
    },
    {
      "constant": true,
      "inputs": [
        {
          "name": "",
          "type": "uint256"
        },
        {
          "name": "",
          "type": "uint256"
        }
      ],
      "name": "sessionsOwners",
      "outputs": [
        {
          "name": "",
          "type": "uint256"
        }
      ],
      "payable": false,
      "stateMutability": "view",
      "type": "function"
    },
    {
      "constant": false,
      "inputs": [
        {
          "name": "to",
          "type": "address"
        },
        {
          "name": "approved",
          "type": "bool"
        }
      ],
      "name": "setApprovalForAll",
      "outputs": [],
      "payable": false,
      "stateMutability": "nonpayable",
      "type": "function"
    },
    {
      "constant": false,
      "inputs": [
        {
          "name": "from",
          "type": "address"
        },
        {
          "name": "to",
          "type": "address"
        },
        {
          "name": "tokenId",
          "type": "uint256"
        },
        {
          "name": "_data",
          "type": "bytes"
        }
      ],
      "name": "safeTransferFrom",
      "outputs": [],
      "payable": false,
      "stateMutability": "nonpayable",
      "type": "function"
    },
    {
      "constant": true,
      "inputs": [
        {
          "name": "tokenId",
          "type": "uint256"
        }
      ],
      "name": "tokenURI",
      "outputs": [
        {
          "name": "",
          "type": "string"
        }
      ],
      "payable": false,
      "stateMutability": "view",
      "type": "function"
    },
    {
      "constant": true,
      "inputs": [
        {
          "name": "",
          "type": "uint256"
        },
        {
          "name": "",
          "type": "uint256"
        }
      ],
      "name": "sessionOwners",
      "outputs": [
        {
          "name": "",
          "type": "uint256"
        }
      ],
      "payable": false,
      "stateMutability": "view",
      "type": "function"
    },
    {
      "constant": true,
      "inputs": [
        {
          "name": "",
          "type": "uint256"
        }
      ],
      "name": "lessons",
      "outputs": [
        {
          "name": "student_Id",
          "type": "uint256"
        },
        {
          "name": "session_Id",
          "type": "uint256"
        },
        {
          "name": "request_Id",
          "type": "uint256"
        }
      ],
      "payable": false,
      "stateMutability": "view",
      "type": "function"
    },
    {
      "constant": true,
      "inputs": [
        {
          "name": "owner",
          "type": "address"
        },
        {
          "name": "operator",
          "type": "address"
        }
      ],
      "name": "isApprovedForAll",
      "outputs": [
        {
          "name": "",
          "type": "bool"
        }
      ],
      "payable": false,
      "stateMutability": "view",
      "type": "function"
    },
    {
      "constant": true,
      "inputs": [
        {
          "name": "",
          "type": "address"
        }
      ],
      "name": "userAddresses",
      "outputs": [
        {
          "name": "",
          "type": "uint256"
        }
      ],
      "payable": false,
      "stateMutability": "view",
      "type": "function"
    },
    {
      "inputs": [
        {
          "name": "_daiContractAddress",
          "type": "address"
        }
      ],
      "payable": false,
      "stateMutability": "nonpayable",
      "type": "constructor"
    },
    {
      "anonymous": false,
      "inputs": [
        {
          "indexed": true,
          "name": "_from",
          "type": "address"
        },
        {
          "indexed": false,
          "name": "_session_uri",
          "type": "string"
        },
        {
          "indexed": false,
          "name": "_tutoring_price",
          "type": "uint256"
        },
        {
          "indexed": false,
          "name": "_details",
          "type": "string"
        }
      ],
      "name": "newSession",
      "type": "event"
    },
    {
      "anonymous": false,
      "inputs": [
        {
          "indexed": true,
          "name": "_from",
          "type": "address"
        },
        {
          "indexed": true,
          "name": "_session_Id",
          "type": "uint256"
        },
        {
          "indexed": false,
          "name": "_details",
          "type": "string"
        }
      ],
      "name": "newRequest",
      "type": "event"
    },
    {
      "anonymous": false,
      "inputs": [
        {
          "indexed": true,
          "name": "_from",
          "type": "address"
        },
        {
          "indexed": false,
          "name": "_id",
          "type": "uint256"
        }
      ],
      "name": "acceptedRequest",
      "type": "event"
    },
    {
      "anonymous": false,
      "inputs": [
        {
          "indexed": true,
          "name": "_from",
          "type": "address"
        },
        {
          "indexed": false,
          "name": "_id",
          "type": "uint256"
        }
      ],
      "name": "rejectedRequest",
      "type": "event"
    },
    {
      "anonymous": false,
      "inputs": [
        {
          "indexed": true,
          "name": "_from",
          "type": "address"
        },
        {
          "indexed": false,
          "name": "_id",
          "type": "uint256"
        }
      ],
      "name": "cancelledRequest",
      "type": "event"
    },
    {
      "anonymous": false,
      "inputs": [
        {
          "indexed": true,
          "name": "_from",
          "type": "address"
        },
        {
          "indexed": true,
          "name": "_session_Id",
          "type": "uint256"
        },
        {
          "indexed": false,
          "name": "_tutoring_price",
          "type": "uint256"
        }
      ],
      "name": "ChangeTutoringPrice",
      "type": "event"
    },
    {
      "anonymous": false,
      "inputs": [
        {
          "indexed": true,
          "name": "_from",
          "type": "address"
        },
        {
          "indexed": true,
          "name": "_session_Id",
          "type": "uint256"
        },
        {
          "indexed": false,
          "name": "_isRunning",
          "type": "bool"
        }
      ],
      "name": "ChangeRunningStatus",
      "type": "event"
    },
    {
      "anonymous": false,
      "inputs": [
        {
          "indexed": true,
          "name": "from",
          "type": "address"
        },
        {
          "indexed": true,
          "name": "to",
          "type": "address"
        },
        {
          "indexed": true,
          "name": "tokenId",
          "type": "uint256"
        }
      ],
      "name": "Transfer",
      "type": "event"
    },
    {
      "anonymous": false,
      "inputs": [
        {
          "indexed": true,
          "name": "owner",
          "type": "address"
        },
        {
          "indexed": true,
          "name": "approved",
          "type": "address"
        },
        {
          "indexed": true,
          "name": "tokenId",
          "type": "uint256"
        }
      ],
      "name": "Approval",
      "type": "event"
    },
    {
      "anonymous": false,
      "inputs": [
        {
          "indexed": true,
          "name": "owner",
          "type": "address"
        },
        {
          "indexed": true,
          "name": "operator",
          "type": "address"
        },
        {
          "indexed": false,
          "name": "approved",
          "type": "bool"
        }
      ],
      "name": "ApprovalForAll",
      "type": "event"
    },
    {
      "constant": false,
      "inputs": [
        {
          "name": "_profile_uri",
          "type": "string"
        }
      ],
      "name": "registerUser",
      "outputs": [],
      "payable": false,
      "stateMutability": "nonpayable",
      "type": "function"
    },
    {
      "constant": false,
      "inputs": [
        {
          "name": "_session_uri",
          "type": "string"
        },
        {
          "name": "_isRunning",
          "type": "bool"
        },
        {
          "name": "_tutoring_price",
          "type": "uint256"
        },
        {
          "name": "_details",
          "type": "string"
        }
      ],
      "name": "addSession",
      "outputs": [],
      "payable": false,
      "stateMutability": "nonpayable",
      "type": "function"
    },
    {
      "constant": false,
      "inputs": [
        {
          "name": "_session_Id",
          "type": "uint256"
        },
        {
          "name": "_details",
          "type": "string"
        }
      ],
      "name": "requestSession",
      "outputs": [],
      "payable": false,
      "stateMutability": "nonpayable",
      "type": "function"
    },
    {
      "constant": false,
      "inputs": [
        {
          "name": "_id",
          "type": "uint256"
        }
      ],
      "name": "acceptRequest",
      "outputs": [],
      "payable": false,
      "stateMutability": "nonpayable",
      "type": "function"
    },
    {
      "constant": false,
      "inputs": [
        {
          "name": "_id",
          "type": "uint256"
        }
      ],
      "name": "rejectRequest",
      "outputs": [],
      "payable": false,
      "stateMutability": "nonpayable",
      "type": "function"
    },
    {
      "constant": false,
      "inputs": [
        {
          "name": "_id",
          "type": "uint256"
        }
      ],
      "name": "cancelRequest",
      "outputs": [],
      "payable": false,
      "stateMutability": "nonpayable",
      "type": "function"
    },
    {
      "constant": false,
      "inputs": [
        {
          "name": "_session_Id",
          "type": "uint256"
        },
        {
          "name": "_tutoring_price",
          "type": "uint256"
        }
      ],
      "name": "changeTutoringPrice",
      "outputs": [],
      "payable": false,
      "stateMutability": "nonpayable",
      "type": "function"
    },
    {
      "constant": false,
      "inputs": [
        {
          "name": "_session_Id",
          "type": "uint256"
        }
      ],
      "name": "changeRunningStatus",
      "outputs": [],
      "payable": false,
      "stateMutability": "nonpayable",
      "type": "function"
    },
    {
      "constant": true,
      "inputs": [
        {
          "name": "_address",
          "type": "address"
        }
      ],
      "name": "getSessions",
      "outputs": [
        {
          "name": "",
          "type": "uint256[]"
        }
      ],
      "payable": false,
      "stateMutability": "view",
      "type": "function"
    },
    {
      "constant": true,
      "inputs": [
        {
          "name": "_address",
          "type": "address"
        }
      ],
      "name": "getRequests",
      "outputs": [
        {
          "name": "",
          "type": "uint256[]"
        }
      ],
      "payable": false,
      "stateMutability": "view",
      "type": "function"
    },
    {
      "constant": true,
      "inputs": [
        {
          "name": "_session_Id",
          "type": "uint256"
        }
      ],
      "name": "getSessionRequests",
      "outputs": [
        {
          "name": "",
          "type": "uint256[]"
        }
      ],
      "payable": false,
      "stateMutability": "view",
      "type": "function"
    },
    {
      "constant": true,
      "inputs": [],
      "name": "getSessionLength",
      "outputs": [
        {
          "name": "count",
          "type": "uint256"
        }
      ],
      "payable": false,
      "stateMutability": "view",
      "type": "function"
    },
    {
      "constant": true,
      "inputs": [
        {
          "name": "_session_Id",
          "type": "uint256"
        }
      ],
      "name": "getSession",
      "outputs": [
        {
          "name": "",
          "type": "uint256"
        },
        {
          "name": "",
          "type": "string"
        },
        {
          "name": "",
          "type": "uint256[]"
        },
        {
          "name": "",
          "type": "bool"
        },
        {
          "name": "",
          "type": "uint256"
        },
        {
          "name": "",
          "type": "string"
        }
      ],
      "payable": false,
      "stateMutability": "view",
      "type": "function"
    },
    {
      "constant": true,
      "inputs": [
        {
          "name": "_address",
          "type": "address"
        }
      ],
      "name": "getLessonForAddress",
      "outputs": [
        {
          "name": "",
          "type": "uint256[]"
        }
      ],
      "payable": false,
      "stateMutability": "view",
      "type": "function"
    },
    {
      "constant": true,
      "inputs": [
        {
          "name": "_lessonId",
          "type": "uint256"
        }
      ],
      "name": "getLessons",
      "outputs": [
        {
          "name": "",
          "type": "uint256"
        },
        {
          "name": "",
          "type": "uint256"
        },
        {
          "name": "",
          "type": "uint256"
        }
      ],
      "payable": false,
      "stateMutability": "view",
      "type": "function"
    }
  ],
  "bytecode": "0x60806040523480156200001157600080fd5b5060405160208062004aaa833981018060405260208110156200003357600080fd5b81019080805190602001909291905050506040518060400160405280600f81526020017f556e69436f696e204c6963656e636500000000000000000000000000000000008152506040518060400160405280600481526020017f554e494300000000000000000000000000000000000000000000000000000000815250620000c86301ffc9a760e01b620002b160201b60201c565b620000e06380ac58cd60e01b620002b160201b60201c565b8160059080519060200190620000f8929190620003ba565b50806006908051906020019062000111929190620003ba565b506200012a635b5e139f60e01b620002b160201b60201c565b505060086040518060400160405280600073ffffffffffffffffffffffffffffffffffffffff168152602001604051806020016040528060008152508152509080600181540180825580915050906001820390600052602060002090600202016000909192909190915060008201518160000160006101000a81548173ffffffffffffffffffffffffffffffffffffffff021916908373ffffffffffffffffffffffffffffffffffffffff1602179055506020820151816001019080519060200190620001f992919062000441565b50505050600e6040518060600160405280600081526020016000815260200160008152509080600181540180825580915050906001820390600052602060002090600302016000909192909190915060008201518160000155602082015181600101556040820151816002015550505080601160006101000a81548173ffffffffffffffffffffffffffffffffffffffff021916908373ffffffffffffffffffffffffffffffffffffffff16021790555050620004f0565b63ffffffff60e01b817bffffffffffffffffffffffffffffffffffffffffffffffffffffffff191614156200034e576040517f08c379a000000000000000000000000000000000000000000000000000000000815260040180806020018281038252601c8152602001807f4552433136353a20696e76616c696420696e746572666163652069640000000081525060200191505060405180910390fd5b6001600080837bffffffffffffffffffffffffffffffffffffffffffffffffffffffff19167bffffffffffffffffffffffffffffffffffffffffffffffffffffffff1916815260200190815260200160002060006101000a81548160ff02191690831515021790555050565b828054600181600116156101000203166002900490600052602060002090601f016020900481019282601f10620003fd57805160ff19168380011785556200042e565b828001600101855582156200042e579182015b828111156200042d57825182559160200191906001019062000410565b5b5090506200043d9190620004c8565b5090565b828054600181600116156101000203166002900490600052602060002090601f016020900481019282601f106200048457805160ff1916838001178555620004b5565b82800160010185558215620004b5579182015b82811115620004b457825182559160200191906001019062000497565b5b509050620004c49190620004c8565b5090565b620004ed91905b80821115620004e9576000816000905550600101620004cf565b5090565b90565b6145aa80620005006000396000f3fe608060405234801561001057600080fd5b50600436106102275760003560e01c80636352211e11610130578063a12ea604116100b8578063e1d1a8411161007c578063e1d1a84114611278578063e985e9c5146112c8578063ef49ca9014611344578063efb4506f14611394578063fc86dea71461145957610227565b8063a12ea60414610fe4578063a22cb46514611030578063b88d4fde14611080578063c87b56dd14611185578063da58d64e1461122c57610227565b8063804e44f3116100ff578063804e44f314610d1057806381d12c5814610da957806383c4b7a314610e0757806395d89b4114610f335780639ab7a95414610fb657610227565b80636352211e14610b0c578063704f1b9414610b7a57806370a0823114610c35578063731daf5314610c8d57610227565b80632e67fd77116101b35780633fac376c116101825780633fac376c146106fb578063402ff0db1461086357806342842e0e146109d7578063482fcedc14610a455780634ba1f09814610ade57610227565b80632e67fd77146105895780633015394c146105d5578063365b98b21461060357806338b7005d146106dd57610227565b8063095ea7b3116101fa578063095ea7b3146103ce57806313625e2e1461041c5780631515eb80146104b557806323b872dd146104ed5780632d7788db1461055b57610227565b806301ffc9a71461022c578063021d2bfe1461029157806306fdde03146102dd578063081812fc14610360575b600080fd5b6102776004803603602081101561024257600080fd5b8101908080357bffffffffffffffffffffffffffffffffffffffffffffffffffffffff191690602001909291905050506114b1565b604051808215151515815260200191505060405180910390f35b6102c7600480360360408110156102a757600080fd5b810190808035906020019092919080359060200190929190505050611518565b6040518082815260200191505060405180910390f35b6102e5611546565b6040518080602001828103825283818151815260200191508051906020019080838360005b8381101561032557808201518184015260208101905061030a565b50505050905090810190601f1680156103525780820380516001836020036101000a031916815260200191505b509250505060405180910390f35b61038c6004803603602081101561037657600080fd5b81019080803590602001909291905050506115e8565b604051808273ffffffffffffffffffffffffffffffffffffffff1673ffffffffffffffffffffffffffffffffffffffff16815260200191505060405180910390f35b61041a600480360360408110156103e457600080fd5b81019080803573ffffffffffffffffffffffffffffffffffffffff16906020019092919080359060200190929190505050611683565b005b61045e6004803603602081101561043257600080fd5b81019080803573ffffffffffffffffffffffffffffffffffffffff16906020019092919050505061185c565b6040518080602001828103825283818151815260200191508051906020019060200280838360005b838110156104a1578082015181840152602081019050610486565b505050509050019250505060405180910390f35b6104eb600480360360408110156104cb57600080fd5b81019080803590602001909291908035906020019092919050505061190c565b005b6105596004803603606081101561050357600080fd5b81019080803573ffffffffffffffffffffffffffffffffffffffff169060200190929190803573ffffffffffffffffffffffffffffffffffffffff16906020019092919080359060200190929190505050611a37565b005b6105876004803603602081101561057157600080fd5b8101908080359060200190929190505050611aa6565b005b6105bf6004803603604081101561059f57600080fd5b810190808035906020019092919080359060200190929190505050611cae565b6040518082815260200191505060405180910390f35b610601600480360360208110156105eb57600080fd5b8101908080359060200190929190505050611cdc565b005b61062f6004803603602081101561061957600080fd5b8101908080359060200190929190505050611ee4565b604051808373ffffffffffffffffffffffffffffffffffffffff1673ffffffffffffffffffffffffffffffffffffffff16815260200180602001828103825283818151815260200191508051906020019080838360005b838110156106a1578082015181840152602081019050610686565b50505050905090810190601f1680156106ce5780820380516001836020036101000a031916815260200191505b50935050505060405180910390f35b6106e5611fcd565b6040518082815260200191505060405180910390f35b6108616004803603608081101561071157600080fd5b810190808035906020019064010000000081111561072e57600080fd5b82018360208201111561074057600080fd5b8035906020019184600183028401116401000000008311171561076257600080fd5b91908080601f016020809104026020016040519081016040528093929190818152602001838380828437600081840152601f19601f82011690508083019250505050505050919291929080351515906020019092919080359060200190929190803590602001906401000000008111156107db57600080fd5b8201836020820111156107ed57600080fd5b8035906020019184600183028401116401000000008311171561080f57600080fd5b91908080601f016020809104026020016040519081016040528093929190818152602001838380828437600081840152601f19601f820116905080830192505050505050509192919290505050611fda565b005b61088f6004803603602081101561087957600080fd5b81019080803590602001909291905050506124a4565b6040518087815260200180602001806020018615151515815260200185815260200180602001848103845289818151815260200191508051906020019080838360005b838110156108ed5780820151818401526020810190506108d2565b50505050905090810190601f16801561091a5780820380516001836020036101000a031916815260200191505b50848103835288818151815260200191508051906020019060200280838360005b8381101561095657808201518184015260208101905061093b565b50505050905001848103825285818151815260200191508051906020019080838360005b8381101561099557808201518184015260208101905061097a565b50505050905090810190601f1680156109c25780820380516001836020036101000a031916815260200191505b50995050505050505050505060405180910390f35b610a43600480360360608110156109ed57600080fd5b81019080803573ffffffffffffffffffffffffffffffffffffffff169060200190929190803573ffffffffffffffffffffffffffffffffffffffff169060200190929190803590602001909291905050506126e6565b005b610a8760048036036020811015610a5b57600080fd5b81019080803573ffffffffffffffffffffffffffffffffffffffff169060200190929190505050612706565b6040518080602001828103825283818151815260200191508051906020019060200280838360005b83811015610aca578082015181840152602081019050610aaf565b505050509050019250505060405180910390f35b610b0a60048036036020811015610af457600080fd5b81019080803590602001909291905050506127b6565b005b610b3860048036036020811015610b2257600080fd5b8101908080359060200190929190505050612a93565b604051808273ffffffffffffffffffffffffffffffffffffffff1673ffffffffffffffffffffffffffffffffffffffff16815260200191505060405180910390f35b610c3360048036036020811015610b9057600080fd5b8101908080359060200190640100000000811115610bad57600080fd5b820183602082011115610bbf57600080fd5b80359060200191846001830284011164010000000083111715610be157600080fd5b91908080601f016020809104026020016040519081016040528093929190818152602001838380828437600081840152601f19601f820116905080830192505050505050509192919290505050612b5b565b005b610c7760048036036020811015610c4b57600080fd5b81019080803573ffffffffffffffffffffffffffffffffffffffff169060200190929190505050612d94565b6040518082815260200191505060405180910390f35b610cb960048036036020811015610ca357600080fd5b8101908080359060200190929190505050612e69565b6040518080602001828103825283818151815260200191508051906020019060200280838360005b83811015610cfc578082015181840152602081019050610ce1565b505050509050019250505060405180910390f35b610d5260048036036020811015610d2657600080fd5b81019080803573ffffffffffffffffffffffffffffffffffffffff169060200190929190505050612edf565b6040518080602001828103825283818151815260200191508051906020019060200280838360005b83811015610d95578082015181840152602081019050610d7a565b505050509050019250505060405180910390f35b610dd560048036036020811015610dbf57600080fd5b8101908080359060200190929190505050612f8f565b60405180846004811115610de557fe5b60ff168152602001838152602001828152602001935050505060405180910390f35b610e3360048036036020811015610e1d57600080fd5b8101908080359060200190929190505050612fd3565b60405180868152602001806020018515151515815260200184815260200180602001838103835287818151815260200191508051906020019080838360005b83811015610e8d578082015181840152602081019050610e72565b50505050905090810190601f168015610eba5780820380516001836020036101000a031916815260200191505b50838103825284818151815260200191508051906020019080838360005b83811015610ef3578082015181840152602081019050610ed8565b50505050905090810190601f168015610f205780820380516001836020036101000a031916815260200191505b5097505050505050505060405180910390f35b610f3b613153565b6040518080602001828103825283818151815260200191508051906020019080838360005b83811015610f7b578082015181840152602081019050610f60565b50505050905090810190601f168015610fa85780820380516001836020036101000a031916815260200191505b509250505060405180910390f35b610fe260048036036020811015610fcc57600080fd5b81019080803590602001909291905050506131f5565b005b61101a60048036036040811015610ffa57600080fd5b81019080803590602001909291908035906020019092919050505061338d565b6040518082815260200191505060405180910390f35b61107e6004803603604081101561104657600080fd5b81019080803573ffffffffffffffffffffffffffffffffffffffff1690602001909291908035151590602001909291905050506133bb565b005b6111836004803603608081101561109657600080fd5b81019080803573ffffffffffffffffffffffffffffffffffffffff169060200190929190803573ffffffffffffffffffffffffffffffffffffffff16906020019092919080359060200190929190803590602001906401000000008111156110fd57600080fd5b82018360208201111561110f57600080fd5b8035906020019184600183028401116401000000008311171561113157600080fd5b91908080601f016020809104026020016040519081016040528093929190818152602001838380828437600081840152601f19601f82011690508083019250505050505050919291929050505061355e565b005b6111b16004803603602081101561119b57600080fd5b81019080803590602001909291905050506135d0565b6040518080602001828103825283818151815260200191508051906020019080838360005b838110156111f15780820151818401526020810190506111d6565b50505050905090810190601f16801561121e5780820380516001836020036101000a031916815260200191505b509250505060405180910390f35b6112626004803603604081101561124257600080fd5b8101908080359060200190929190803590602001909291905050506136e3565b6040518082815260200191505060405180910390f35b6112a46004803603602081101561128e57600080fd5b8101908080359060200190929190505050613711565b60405180848152602001838152602001828152602001935050505060405180910390f35b61132a600480360360408110156112de57600080fd5b81019080803573ffffffffffffffffffffffffffffffffffffffff169060200190929190803573ffffffffffffffffffffffffffffffffffffffff169060200190929190505050613748565b604051808215151515815260200191505060405180910390f35b6113706004803603602081101561135a57600080fd5b81019080803590602001909291905050506137dc565b60405180848152602001838152602001828152602001935050505060405180910390f35b611457600480360360408110156113aa57600080fd5b8101908080359060200190929190803590602001906401000000008111156113d157600080fd5b8201836020820111156113e357600080fd5b8035906020019184600183028401116401000000008311171561140557600080fd5b91908080601f016020809104026020016040519081016040528093929190818152602001838380828437600081840152601f19601f82011690508083019250505050505050919291929050505061384c565b005b61149b6004803603602081101561146f57600080fd5b81019080803573ffffffffffffffffffffffffffffffffffffffff169060200190929190505050613aa9565b6040518082815260200191505060405180910390f35b6000806000837bffffffffffffffffffffffffffffffffffffffffffffffffffffffff19167bffffffffffffffffffffffffffffffffffffffffffffffffffffffff1916815260200190815260200160002060009054906101000a900460ff169050919050565b6010602052816000526040600020818154811061153157fe5b90600052602060002001600091509150505481565b606060058054600181600116156101000203166002900480601f0160208091040260200160405190810160405280929190818152602001828054600181600116156101000203166002900480156115de5780601f106115b3576101008083540402835291602001916115de565b820191906000526020600020905b8154815290600101906020018083116115c157829003601f168201915b5050505050905090565b60006115f382613ac1565b611648576040517f08c379a000000000000000000000000000000000000000000000000000000000815260040180806020018281038252602c815260200180614487602c913960400191505060405180910390fd5b6002600083815260200190815260200160002060009054906101000a900473ffffffffffffffffffffffffffffffffffffffff169050919050565b600061168e82612a93565b90508073ffffffffffffffffffffffffffffffffffffffff168373ffffffffffffffffffffffffffffffffffffffff161415611715576040517f08c379a000000000000000000000000000000000000000000000000000000000815260040180806020018281038252602181526020018061450b6021913960400191505060405180910390fd5b8073ffffffffffffffffffffffffffffffffffffffff163373ffffffffffffffffffffffffffffffffffffffff16148061175557506117548133613748565b5b6117aa576040517f08c379a00000000000000000000000000000000000000000000000000000000081526004018080602001828103825260388152602001806143da6038913960400191505060405180910390fd5b826002600084815260200190815260200160002060006101000a81548173ffffffffffffffffffffffffffffffffffffffff021916908373ffffffffffffffffffffffffffffffffffffffff160217905550818373ffffffffffffffffffffffffffffffffffffffff168273ffffffffffffffffffffffffffffffffffffffff167f8c5be1e5ebec7d5bd14f71427d1e84f3dd0314c0f7b2291e5b200ac8c7c3b92560405160405180910390a4505050565b60606000600960008473ffffffffffffffffffffffffffffffffffffffff1673ffffffffffffffffffffffffffffffffffffffff168152602001908152602001600020549050600d60008281526020019081526020016000208054806020026020016040519081016040528092919081815260200182805480156118ff57602002820191906000526020600020905b8154815260200190600101908083116118eb575b5050505050915050919050565b600c828154811061191957fe5b906000526020600020906006020160000154600960003373ffffffffffffffffffffffffffffffffffffffff1673ffffffffffffffffffffffffffffffffffffffff16815260200190815260200160002054146119c1576040517f08c379a00000000000000000000000000000000000000000000000000000000081526004018080602001828103825260228152602001806144656022913960400191505060405180910390fd5b80600c83815481106119cf57fe5b906000526020600020906006020160040181905550813373ffffffffffffffffffffffffffffffffffffffff167f0376847055a0a541f35e7a83217d5cb66bd5273ff6c34677d9911f13b70d8594836040518082815260200191505060405180910390a35050565b611a413382613b33565b611a96576040517f08c379a000000000000000000000000000000000000000000000000000000000815260040180806020018281038252603181526020018061452c6031913960400191505060405180910390fd5b611aa1838383613c27565b505050565b6000600a8281548110611ab557fe5b9060005260206000209060030201600101549050600c8181548110611ad657fe5b906000526020600020906006020160000154600960003373ffffffffffffffffffffffffffffffffffffffff1673ffffffffffffffffffffffffffffffffffffffff1681526020019081526020016000205414611b7e576040517f08c379a00000000000000000000000000000000000000000000000000000000081526004018080602001828103825260228152602001806144656022913960400191505060405180910390fd5b600c8181548110611b8b57fe5b906000526020600020906006020160030160009054906101000a900460ff16611c1c576040517f08c379a00000000000000000000000000000000000000000000000000000000081526004018080602001828103825260138152602001807f53657373696f6e206e6f742072756e6e696e670000000000000000000000000081525060200191505060405180910390fd5b6002600a8381548110611c2b57fe5b906000526020600020906003020160000160006101000a81548160ff02191690836004811115611c5757fe5b02179055503373ffffffffffffffffffffffffffffffffffffffff167fd0efae7a8f53e6d9bc42552dffe5370074bacd65dd7d8bea0c7965c66b8eb67e836040518082815260200191505060405180910390a25050565b600b6020528160005260406000208181548110611cc757fe5b90600052602060002001600091509150505481565b6000600a8281548110611ceb57fe5b9060005260206000209060030201600101549050600c8181548110611d0c57fe5b906000526020600020906006020160000154600960003373ffffffffffffffffffffffffffffffffffffffff1673ffffffffffffffffffffffffffffffffffffffff1681526020019081526020016000205414611db4576040517f08c379a00000000000000000000000000000000000000000000000000000000081526004018080602001828103825260228152602001806144656022913960400191505060405180910390fd5b600c8181548110611dc157fe5b906000526020600020906006020160030160009054906101000a900460ff16611e52576040517f08c379a00000000000000000000000000000000000000000000000000000000081526004018080602001828103825260138152602001807f53657373696f6e206e6f742072756e6e696e670000000000000000000000000081525060200191505060405180910390fd5b6004600a8381548110611e6157fe5b906000526020600020906003020160000160006101000a81548160ff02191690836004811115611e8d57fe5b02179055503373ffffffffffffffffffffffffffffffffffffffff167fd8e7eb8a53f0fdda9d0f81dab9241b44564ccfaaa5fbc2cbf9a372ae612bd3d5836040518082815260200191505060405180910390a25050565b60088181548110611ef157fe5b90600052602060002090600202016000915090508060000160009054906101000a900473ffffffffffffffffffffffffffffffffffffffff1690806001018054600181600116156101000203166002900480601f016020809104026020016040519081016040528092919081815260200182805460018160011615610100020316600290048015611fc35780601f10611f9857610100808354040283529160200191611fc3565b820191906000526020600020905b815481529060010190602001808311611fa657829003601f168201915b5050505050905082565b6000600c80549050905090565b6000845111612051576040517f08c379a00000000000000000000000000000000000000000000000000000000081526004018080602001828103825260208152602001807f53657373696f6e205552492073686f756c64206e6f7420626520656d7074792e81525060200191505060405180910390fd5b6000600960003373ffffffffffffffffffffffffffffffffffffffff1673ffffffffffffffffffffffffffffffffffffffff168152602001908152602001600020541415612107576040517f08c379a00000000000000000000000000000000000000000000000000000000081526004018080602001828103825260208152602001807f5475746f722061646472657373206973206e6f7420726567697374657265642e81525060200191505060405180910390fd5b6000821161217d576040517f08c379a00000000000000000000000000000000000000000000000000000000081526004018080602001828103825260198152602001807f53656c6c207072696365206e6f74207370656369666965642e0000000000000081525060200191505060405180910390fd5b60008151116121f4576040517f08c379a000000000000000000000000000000000000000000000000000000000815260040180806020018281038252601c8152602001807f44657461696c732073686f756c64206e6f7420626520656d7074792e0000000081525060200191505060405180910390fd5b6000600960003373ffffffffffffffffffffffffffffffffffffffff1673ffffffffffffffffffffffffffffffffffffffff168152602001908152602001600020549050606061224261420c565b6040518060c0016040528084815260200188815260200183815260200187151581526020018681526020018581525090506000600c82908060018154018082558091505090600182039060005260206000209060060201600090919290919091506000820151816000015560208201518160010190805190602001906122c9929190614244565b5060408201518160020190805190602001906122e69291906142c4565b5060608201518160030160006101000a81548160ff0219169083151502179055506080820151816004015560a082015181600501908051906020019061232d929190614244565b5050509050600d60008581526020019081526020016000206001820390806001815401808255809150509060018203906000526020600020016000909192909190915055503373ffffffffffffffffffffffffffffffffffffffff167f43315878661f0c4b3418e7a26be592ba7db00fddd3a81f4d6ddce943c9712134898888604051808060200184815260200180602001838103835286818151815260200191508051906020019080838360005b838110156123f75780820151818401526020810190506123dc565b50505050905090810190601f1680156124245780820380516001836020036101000a031916815260200191505b50838103825284818151815260200191508051906020019080838360005b8381101561245d578082015181840152602081019050612442565b50505050905090810190601f16801561248a5780820380516001836020036101000a031916815260200191505b509550505050505060405180910390a25050505050505050565b600060608060008060606124b661420c565b600c88815481106124c357fe5b90600052602060002090600602016040518060c001604052908160008201548152602001600182018054600181600116156101000203166002900480601f01602080910402602001604051908101604052809291908181526020018280546001816001161561010002031660029004801561257f5780601f106125545761010080835404028352916020019161257f565b820191906000526020600020905b81548152906001019060200180831161256257829003601f168201915b50505050508152602001600282018054806020026020016040519081016040528092919081815260200182805480156125d757602002820191906000526020600020905b8154815260200190600101908083116125c3575b505050505081526020016003820160009054906101000a900460ff1615151515815260200160048201548152602001600582018054600181600116156101000203166002900480601f01602080910402602001604051908101604052809291908181526020018280546001816001161561010002031660029004801561269e5780601f106126735761010080835404028352916020019161269e565b820191906000526020600020905b81548152906001019060200180831161268157829003601f168201915b5050505050815250509050806000015181602001518260400151836060015184608001518560a001518494508393508090509650965096509650965096505091939550919395565b6127018383836040518060200160405280600081525061355e565b505050565b60606000600960008473ffffffffffffffffffffffffffffffffffffffff1673ffffffffffffffffffffffffffffffffffffffff168152602001908152602001600020549050600b60008281526020019081526020016000208054806020026020016040519081016040528092919081815260200182805480156127a957602002820191906000526020600020905b815481526020019060010190808311612795575b5050505050915050919050565b6000600a82815481106127c557fe5b9060005260206000209060030201600101549050600c81815481106127e657fe5b906000526020600020906006020160000154600960003373ffffffffffffffffffffffffffffffffffffffff1673ffffffffffffffffffffffffffffffffffffffff168152602001908152602001600020541461288e576040517f08c379a00000000000000000000000000000000000000000000000000000000081526004018080602001828103825260228152602001806144656022913960400191505060405180910390fd5b600c818154811061289b57fe5b906000526020600020906006020160030160009054906101000a900460ff1661292c576040517f08c379a00000000000000000000000000000000000000000000000000000000081526004018080602001828103825260168152602001807f53657373696f6e206973206e6f742072756e6e696e670000000000000000000081525060200191505060405180910390fd5b6001600a838154811061293b57fe5b906000526020600020906003020160000160006101000a81548160ff0219169083600481111561296757fe5b02179055506000600e6040518060600160405280600a868154811061298857fe5b9060005260206000209060030201600201548152602001848152602001858152509080600181540180825580915050906001820390600052602060002090600302016000909192909190915060008201518160000155602082015181600101556040820151816002015550509050600b6000600a8581548110612a0757fe5b906000526020600020906003020160020154815260200190815260200160002081908060018154018082558091505090600182039060005260206000200160009091929091909150555060106000838152602001908152602001600020819080600181540180825580915050906001820390600052602060002001600090919290919091505550505050565b6000806001600084815260200190815260200160002060009054906101000a900473ffffffffffffffffffffffffffffffffffffffff169050600073ffffffffffffffffffffffffffffffffffffffff168173ffffffffffffffffffffffffffffffffffffffff161415612b52576040517f08c379a000000000000000000000000000000000000000000000000000000000815260040180806020018281038252602981526020018061443c6029913960400191505060405180910390fd5b80915050919050565b6000815111612bd2576040517f08c379a00000000000000000000000000000000000000000000000000000000081526004018080602001828103825260208152602001807f50726f66696c65205552492073686f756c64206e6f7420626520656d7074792e81525060200191505060405180910390fd5b6000600960003373ffffffffffffffffffffffffffffffffffffffff1673ffffffffffffffffffffffffffffffffffffffff1681526020019081526020016000205414612c87576040517f08c379a00000000000000000000000000000000000000000000000000000000081526004018080602001828103825260198152602001807f5475746f7220616c726561647920726567697374657265642e0000000000000081525060200191505060405180910390fd5b6000600860405180604001604052803373ffffffffffffffffffffffffffffffffffffffff168152602001848152509080600181540180825580915050906001820390600052602060002090600202016000909192909190915060008201518160000160006101000a81548173ffffffffffffffffffffffffffffffffffffffff021916908373ffffffffffffffffffffffffffffffffffffffff1602179055506020820151816001019080519060200190612d44929190614244565b505050905060018103600960003373ffffffffffffffffffffffffffffffffffffffff1673ffffffffffffffffffffffffffffffffffffffff168152602001908152602001600020819055505050565b60008073ffffffffffffffffffffffffffffffffffffffff168273ffffffffffffffffffffffffffffffffffffffff161415612e1b576040517f08c379a000000000000000000000000000000000000000000000000000000000815260040180806020018281038252602a815260200180614412602a913960400191505060405180910390fd5b612e62600360008473ffffffffffffffffffffffffffffffffffffffff1673ffffffffffffffffffffffffffffffffffffffff168152602001908152602001600020613e82565b9050919050565b6060600c8281548110612e7857fe5b9060005260206000209060060201600201805480602002602001604051908101604052809291908181526020018280548015612ed357602002820191906000526020600020905b815481526020019060010190808311612ebf575b50505050509050919050565b60606000600960008473ffffffffffffffffffffffffffffffffffffffff1673ffffffffffffffffffffffffffffffffffffffff168152602001908152602001600020549050600b6000828152602001908152602001600020805480602002602001604051908101604052809291908181526020018280548015612f8257602002820191906000526020600020905b815481526020019060010190808311612f6e575b5050505050915050919050565b600a8181548110612f9c57fe5b90600052602060002090600302016000915090508060000160009054906101000a900460ff16908060010154908060020154905083565b600c8181548110612fe057fe5b9060005260206000209060060201600091509050806000015490806001018054600181600116156101000203166002900480601f0160208091040260200160405190810160405280929190818152602001828054600181600116156101000203166002900480156130925780601f1061306757610100808354040283529160200191613092565b820191906000526020600020905b81548152906001019060200180831161307557829003601f168201915b5050505050908060030160009054906101000a900460ff1690806004015490806005018054600181600116156101000203166002900480601f0160208091040260200160405190810160405280929190818152602001828054600181600116156101000203166002900480156131495780601f1061311e57610100808354040283529160200191613149565b820191906000526020600020905b81548152906001019060200180831161312c57829003601f168201915b5050505050905085565b606060068054600181600116156101000203166002900480601f0160208091040260200160405190810160405280929190818152602001828054600181600116156101000203166002900480156131eb5780601f106131c0576101008083540402835291602001916131eb565b820191906000526020600020905b8154815290600101906020018083116131ce57829003601f168201915b5050505050905090565b600c818154811061320257fe5b906000526020600020906006020160000154600960003373ffffffffffffffffffffffffffffffffffffffff1673ffffffffffffffffffffffffffffffffffffffff16815260200190815260200160002054146132aa576040517f08c379a00000000000000000000000000000000000000000000000000000000081526004018080602001828103825260228152602001806144656022913960400191505060405180910390fd5b600c81815481106132b757fe5b906000526020600020906006020160030160009054906101000a900460ff1615600c82815481106132e457fe5b906000526020600020906006020160030160006101000a81548160ff021916908315150217905550803373ffffffffffffffffffffffffffffffffffffffff167fe0bd549884d6be9a8162c0a6068c65f6ece0c544934a3e3d9a81bfcd39aadc88600c848154811061335257fe5b906000526020600020906006020160030160009054906101000a900460ff16604051808215151515815260200191505060405180910390a350565b600f60205281600052604060002081815481106133a657fe5b90600052602060002001600091509150505481565b3373ffffffffffffffffffffffffffffffffffffffff168273ffffffffffffffffffffffffffffffffffffffff16141561345d576040517f08c379a00000000000000000000000000000000000000000000000000000000081526004018080602001828103825260198152602001807f4552433732313a20617070726f766520746f2063616c6c65720000000000000081525060200191505060405180910390fd5b80600460003373ffffffffffffffffffffffffffffffffffffffff1673ffffffffffffffffffffffffffffffffffffffff16815260200190815260200160002060008473ffffffffffffffffffffffffffffffffffffffff1673ffffffffffffffffffffffffffffffffffffffff16815260200190815260200160002060006101000a81548160ff0219169083151502179055508173ffffffffffffffffffffffffffffffffffffffff163373ffffffffffffffffffffffffffffffffffffffff167f17307eab39ab6107e8899845ad3d59bd9653f200f220920489ca2b5937696c3183604051808215151515815260200191505060405180910390a35050565b613569848484611a37565b61357584848484613e90565b6135ca576040517f08c379a00000000000000000000000000000000000000000000000000000000081526004018080602001828103825260328152602001806143586032913960400191505060405180910390fd5b50505050565b60606135db82613ac1565b613630576040517f08c379a000000000000000000000000000000000000000000000000000000000815260040180806020018281038252602f8152602001806144dc602f913960400191505060405180910390fd5b600760008381526020019081526020016000208054600181600116156101000203166002900480601f0160208091040260200160405190810160405280929190818152602001828054600181600116156101000203166002900480156136d75780601f106136ac576101008083540402835291602001916136d7565b820191906000526020600020905b8154815290600101906020018083116136ba57829003601f168201915b50505050509050919050565b600d60205281600052604060002081815481106136fc57fe5b90600052602060002001600091509150505481565b600e818154811061371e57fe5b90600052602060002090600302016000915090508060000154908060010154908060020154905083565b6000600460008473ffffffffffffffffffffffffffffffffffffffff1673ffffffffffffffffffffffffffffffffffffffff16815260200190815260200160002060008373ffffffffffffffffffffffffffffffffffffffff1673ffffffffffffffffffffffffffffffffffffffff16815260200190815260200160002060009054906101000a900460ff16905092915050565b60008060006137e9614311565b600e85815481106137f657fe5b906000526020600020906003020160405180606001604052908160008201548152602001600182015481526020016002820154815250509050806000015181602001518260400151935093509350509193909250565b6000600c838154811061385b57fe5b90600052602060002090600602016000015414156138e1576040517f08c379a00000000000000000000000000000000000000000000000000000000081526004018080602001828103825260158152602001807f53657373696f6e206e6f7420656e6c69737465642e000000000000000000000081525060200191505060405180910390fd5b6000600960003373ffffffffffffffffffffffffffffffffffffffff1673ffffffffffffffffffffffffffffffffffffffff16815260200190815260200160002054141561397a576040517f08c379a000000000000000000000000000000000000000000000000000000000815260040180806020018281038252602281526020018061455d6022913960400191505060405180910390fd5b60008151116139f1576040517f08c379a000000000000000000000000000000000000000000000000000000000815260040180806020018281038252601c8152602001807f44657461696c732073686f756c64206e6f7420626520656d7074792e0000000081525060200191505060405180910390fd5b813373ffffffffffffffffffffffffffffffffffffffff167f4f8232dabe03dba77798f9da2c509689c83346e536beb88b66b4619e49594eea836040518080602001828103825283818151815260200191508051906020019080838360005b83811015613a6b578082015181840152602081019050613a50565b50505050905090810190601f168015613a985780820380516001836020036101000a031916815260200191505b509250505060405180910390a35050565b60096020528060005260406000206000915090505481565b6000806001600084815260200190815260200160002060009054906101000a900473ffffffffffffffffffffffffffffffffffffffff169050600073ffffffffffffffffffffffffffffffffffffffff168173ffffffffffffffffffffffffffffffffffffffff161415915050919050565b6000613b3e82613ac1565b613b93576040517f08c379a000000000000000000000000000000000000000000000000000000000815260040180806020018281038252602c8152602001806143ae602c913960400191505060405180910390fd5b6000613b9e83612a93565b90508073ffffffffffffffffffffffffffffffffffffffff168473ffffffffffffffffffffffffffffffffffffffff161480613c0d57508373ffffffffffffffffffffffffffffffffffffffff16613bf5846115e8565b73ffffffffffffffffffffffffffffffffffffffff16145b80613c1e5750613c1d8185613748565b5b91505092915050565b8273ffffffffffffffffffffffffffffffffffffffff16613c4782612a93565b73ffffffffffffffffffffffffffffffffffffffff1614613cb3576040517f08c379a00000000000000000000000000000000000000000000000000000000081526004018080602001828103825260298152602001806144b36029913960400191505060405180910390fd5b600073ffffffffffffffffffffffffffffffffffffffff168273ffffffffffffffffffffffffffffffffffffffff161415613d39576040517f08c379a000000000000000000000000000000000000000000000000000000000815260040180806020018281038252602481526020018061438a6024913960400191505060405180910390fd5b613d4281614079565b613d89600360008573ffffffffffffffffffffffffffffffffffffffff1673ffffffffffffffffffffffffffffffffffffffff168152602001908152602001600020614137565b613dd0600360008473ffffffffffffffffffffffffffffffffffffffff1673ffffffffffffffffffffffffffffffffffffffff16815260200190815260200160002061415a565b816001600083815260200190815260200160002060006101000a81548173ffffffffffffffffffffffffffffffffffffffff021916908373ffffffffffffffffffffffffffffffffffffffff160217905550808273ffffffffffffffffffffffffffffffffffffffff168473ffffffffffffffffffffffffffffffffffffffff167fddf252ad1be2c89b69c2b068fc378daa952ba7f163c4a11628f55a4df523b3ef60405160405180910390a4505050565b600081600001549050919050565b6000613eb18473ffffffffffffffffffffffffffffffffffffffff16614170565b613ebe5760019050614071565b60008473ffffffffffffffffffffffffffffffffffffffff1663150b7a02338887876040518563ffffffff1660e01b8152600401808573ffffffffffffffffffffffffffffffffffffffff1673ffffffffffffffffffffffffffffffffffffffff1681526020018473ffffffffffffffffffffffffffffffffffffffff1673ffffffffffffffffffffffffffffffffffffffff16815260200183815260200180602001828103825283818151815260200191508051906020019080838360005b83811015613f99578082015181840152602081019050613f7e565b50505050905090810190601f168015613fc65780820380516001836020036101000a031916815260200191505b5095505050505050602060405180830381600087803b158015613fe857600080fd5b505af1158015613ffc573d6000803e3d6000fd5b505050506040513d602081101561401257600080fd5b8101908080519060200190929190505050905063150b7a0260e01b7bffffffffffffffffffffffffffffffffffffffffffffffffffffffff1916817bffffffffffffffffffffffffffffffffffffffffffffffffffffffff1916149150505b949350505050565b600073ffffffffffffffffffffffffffffffffffffffff166002600083815260200190815260200160002060009054906101000a900473ffffffffffffffffffffffffffffffffffffffff1673ffffffffffffffffffffffffffffffffffffffff16146141345760006002600083815260200190815260200160002060006101000a81548173ffffffffffffffffffffffffffffffffffffffff021916908373ffffffffffffffffffffffffffffffffffffffff1602179055505b50565b61414f6001826000015461418390919063ffffffff16565b816000018190555050565b6001816000016000828254019250508190555050565b600080823b905060008111915050919050565b6000828211156141fb576040517f08c379a000000000000000000000000000000000000000000000000000000000815260040180806020018281038252601e8152602001807f536166654d6174683a207375627472616374696f6e206f766572666c6f77000081525060200191505060405180910390fd5b600082840390508091505092915050565b6040518060c0016040528060008152602001606081526020016060815260200160001515815260200160008152602001606081525090565b828054600181600116156101000203166002900490600052602060002090601f016020900481019282601f1061428557805160ff19168380011785556142b3565b828001600101855582156142b3579182015b828111156142b2578251825591602001919060010190614297565b5b5090506142c09190614332565b5090565b828054828255906000526020600020908101928215614300579160200282015b828111156142ff5782518255916020019190600101906142e4565b5b50905061430d9190614332565b5090565b60405180606001604052806000815260200160008152602001600081525090565b61435491905b80821115614350576000816000905550600101614338565b5090565b9056fe4552433732313a207472616e7366657220746f206e6f6e20455243373231526563656976657220696d706c656d656e7465724552433732313a207472616e7366657220746f20746865207a65726f20616464726573734552433732313a206f70657261746f7220717565727920666f72206e6f6e6578697374656e7420746f6b656e4552433732313a20617070726f76652063616c6c6572206973206e6f74206f776e6572206e6f7220617070726f76656420666f7220616c6c4552433732313a2062616c616e636520717565727920666f7220746865207a65726f20616464726573734552433732313a206f776e657220717565727920666f72206e6f6e6578697374656e7420746f6b656e55736572206e6f7420746865207475746f72206f6620746869732073657373696f6e4552433732313a20617070726f76656420717565727920666f72206e6f6e6578697374656e7420746f6b656e4552433732313a207472616e73666572206f6620746f6b656e2074686174206973206e6f74206f776e4552433732314d657461646174613a2055524920717565727920666f72206e6f6e6578697374656e7420746f6b656e4552433732313a20617070726f76616c20746f2063757272656e74206f776e65724552433732313a207472616e736665722063616c6c6572206973206e6f74206f776e6572206e6f7220617070726f76656453747564656e742061646472657373206973206e6f7420726567697374657265642ea165627a7a7230582058c8fcc1b59442e083f7b349438a884f93f69ded6109a8f9ef2332e0140157950029",
  "source": "pragma solidity^0.5.0;\n\n\n\n/// @title Thuto smart contract\n/// @author Helda Mandlate\n\n/// @dev import contracts from openzeppelin related to ownable and ERC20, ERC721 tokens\n// import \"openzeppelin-solidity/contracts/ownership/Ownable.sol\";\nimport \"openzeppelin-solidity/contracts/token/ERC20/ERC20.sol\";\nimport \"openzeppelin-solidity/contracts/token/ERC721/ERC721Metadata.sol\";\n\n//import \"github.com/OpenZeppelin/openzeppelin-solidity/contracts/ownership/Ownable.sol\";\n//import \"github.com/OpenZeppelin/openzeppelin-solidity/contracts/token/ERC20/ERC20.sol\";\n//import \"github.com/OpenZeppelin/openzeppelin-solidity/contracts/token/ERC721/ERC721Metadata.sol\";\n\n/// @notice contract begins here\ncontract thuto is ERC721Metadata {\n    /// @notice Creates a struct for users of the plaform, needs their Ethereum address and profile URL\n    struct User {\n        address owned_address;\n        string profile_uri;\n    }\n    /// @notice Creates an array of users that a registered\n    User[] public users;\n\n    /// @notice The mapping below maps all users' addresses to their userID\n    mapping (address => uint256) public userAddresses ;\n\n    /// @notice Creates session defined type\n    enum sessionStatus {Pending, Accepted, Rejected, Sale, Cancelled}\n\n    /// @notice Creates a struct for all requests for tutoring, one of the enum parameters, session Id and student Id\n    struct Request {\n        sessionStatus status;\n        uint256 session_Id;\n        uint256 student_Id; /// @dev student of the request\n    }\n    /// @notice Creates an array of bids that have been placed\n    Request[] public requests;\n\n    /// @notice The mapping below maps all requesters' IDs to their studentId\n    mapping(uint256 => uint256[]) public requestOwners;\n\n    /// @notice Creates a struct for all sessions\n    /// @param tutor_Id The array below will contain all bids received for that session\n    /// @param session_uri If the tutor has chosen the auction pricing structure, the below is TRUE\n    /// @param session_requests If the auction is still running, the below is TRUE, because the tutor can choose to stop the auction at any point\n    /// @param isRunning If both of the booleans above are FALSE, the price below is the flat tutoring rate\n    /// @param tutoring_price The value of the tutoring session\n    struct Session {\n        uint256 tutor_Id;\n        string session_uri;\n        uint256[] session_requests;\n        bool isRunning;\n        uint256 tutoring_price;\n        string details;\n    }\n    /// @notice Creates an array of sessions for every tutoring session available\n    Session[] public sessions;\n\n    /// @notice The mapping below will map the addresses of all the successful bidders' addresses to the ID of their owned users, session owners\n    mapping(uint256 => uint256[]) public sessionOwners;\n\n    /// @notice Creates a struct for licencing\n    /// @param student_Id of each tutoring session buyer\n    /// @param session_Id of the tutoring session being payed for\n    /// @param request_Id The bid's Id for the session\n    struct LessonDesign {\n        uint256 student_Id;\n        uint256 session_Id;\n        uint256 request_Id;\n    }\n    /// @notice Creates an array of accepted sessions\n    LessonDesign[] public lessons;\n    /// @notice Mapping of licence Id to get the licence owners\n    mapping(uint256 => uint256[]) public sessionsOwners;\n    /// @notice Mapping of licence Id to get the session Id\n    mapping(uint256 => uint256[]) public sessionRequests;\n\n    event newSession(\n        address indexed _from,\n        string _session_uri,\n        uint256 _tutoring_price,\n        string _details\n    );\n\n    event newRequest(\n        address indexed _from,\n        uint256 indexed _session_Id,\n        string _details\n    );\n\n    event acceptedRequest(\n        address indexed _from,\n        uint256 _id\n    );\n\n    event rejectedRequest(\n        address indexed _from,\n        uint256 _id\n    );\n\n    event cancelledRequest(\n        address indexed _from,\n        uint256 _id\n    );\n\n    event ChangeTutoringPrice(\n        address indexed _from,\n        uint256 indexed _session_Id,\n        uint256 _tutoring_price\n    );\n\n    event ChangeRunningStatus(\n        address indexed _from,\n        uint256 indexed _session_Id,\n        bool _isRunning\n    );\n\n    /// @dev ERC20 is now daiContract\n    ERC20 daiContract;\n    /// @dev The constructor below reserves tutor 0 for all unregistered users\n    /// @param _daiContractAddress DAI contract address\n    constructor(address _daiContractAddress) public ERC721Metadata(\"UniCoin Licence\", \"UNIC\"){\n        users.push(User(address(0), \"\"));\n        lessons.push(LessonDesign(0, 0, 0));\n        daiContract = ERC20(_daiContractAddress);\n    }\n\n    /// @notice This function registers a tutor on the platform by taking in their profile URL\n    /// @param _profile_uri tutor profile url\n    /// @dev If the tutor's address is in position 0 of the userAddresses array, they are unregistered\n    /// @dev Create an instance of the tutor and add the Id to their address\n    function registerUser(string memory _profile_uri) public {\n        require(bytes(_profile_uri).length > 0, \"Profile URI should not be empty.\");\n        require(userAddresses[msg.sender]==0,\"Tutor already registered.\");\n        uint256 id = users.push(User(msg.sender,_profile_uri));\n        userAddresses[msg.sender] = id - 1;\n    }\n\n    /// @notice This function creates a session on the system, with blank arrays for session requests and owners\n    /// @notice since no one has requested a session for or bought a licence yet\n    /// @dev The tutor only specifies the flat rate\n    /// @dev Add instance to the respective arrays\n\n    function addSession(\n        string memory _session_uri,\n        bool _isRunning,\n        uint256 _tutoring_price, string memory _details) public {\n        require(bytes(_session_uri).length > 0, \"Session URI should not be empty.\");\n        require(userAddresses[msg.sender] != 0, \"Tutor address is not registered.\");\n        require(_tutoring_price > 0, \"Sell price not specified.\");\n        require(bytes(_details).length > 0, \"Details should not be empty.\");\n\n        uint256 _tutor_Id = userAddresses[msg.sender];\n        uint256[] memory _session_requests;\n        Session memory _session = Session(\n            _tutor_Id,\n            _session_uri,\n            _session_requests,\n            _isRunning,\n            _tutoring_price,\n            _details);\n        uint256 _id = sessions.push(_session);\n        sessionOwners[_tutor_Id].push(_id - 1);\n\n        emit newSession(msg.sender,_session_uri, _tutoring_price, _details);\n    }\n\n    /// @notice This function creates a new request for a particular session\n    /// @param _details for the session\n    /// @param _session_Id is the index for the session Id\n    /// @dev lesson Id is added to list of requested sessions\n    function requestSession(uint256 _session_Id, string memory _details) public {\n        require(sessions[_session_Id].tutor_Id != 0, \"Session not enlisted.\");\n        require(userAddresses[msg.sender] != 0, \"Student address is not registered.\");\n        require(bytes(_details).length > 0, \"Details should not be empty.\");\n\n        emit newRequest(msg.sender, _session_Id, _details);\n        \n    }\n\n    /// @param _id is the request Id\n    /// @notice This function allows the tutor to accept the requests\n    /// @dev parameters of licence design: student_Id, session id, request_Id\n    /// @notice This function allows the tutor to reject the requests\n    function acceptRequest(uint256 _id) public {\n        uint256 _session_Id = requests[_id].session_Id;\n        require(userAddresses[msg.sender] == sessions[_session_Id].tutor_Id, \"User not the tutor of this session\");\n        require(sessions[_session_Id].isRunning, \"Session is not running\");\n        requests[_id].status = sessionStatus.Accepted;\n\n        //uint256 _Id = requests.push(Request(sessionStatus.Sale, _session_Id, userAddresses[msg.sender])) - 1;\n\n        uint256 _lesson_Id = lessons.push(LessonDesign(requests[_id].student_Id, _session_Id, _id));\n        requestOwners[requests[_id].student_Id].push(_lesson_Id);\n        sessionRequests[_session_Id].push(_lesson_Id);\n        // _mint(users[Requests[_id].student_Id ].owned_address, _lesson_Id);\n\n        // emit acceptedRequest(msg.sender,_id);\n    }\n\n    /// @notice This function allows the tutor to reject the bids\n    /// @param _id is the Request Id\n    function rejectRequest(uint256 _id) public {\n        uint256 _session_Id = requests[_id].session_Id;\n        require(userAddresses[msg.sender] == sessions[_session_Id].tutor_Id, \"User not the tutor of this session\");\n        require(sessions[_session_Id].isRunning, \"Session not running\");\n        requests[_id].status = sessionStatus.Rejected;\n\n        emit rejectedRequest(msg.sender,_id);\n    }\n\n    /// @notice This function allows the tutor to cancel the bids\n    /// @param _id is the bid Id\n    function cancelRequest(uint256 _id) public {\n        uint256 _session_Id = requests[_id].session_Id;\n        require(userAddresses[msg.sender] == sessions[_session_Id].tutor_Id, \"User not the tutor of this session\");\n        require(sessions[_session_Id].isRunning, \"Session not running\");\n        requests[_id].status = sessionStatus.Cancelled;\n\n        emit cancelledRequest(msg.sender,_id);\n    }\n\n\n    /// @notice This function allows the tutor to change the sell price\n    /// @param _session_Id session id number\n    /// @param _tutoring_price for the session\n    function changeTutoringPrice(uint256 _session_Id, uint256 _tutoring_price) public {\n        require(userAddresses[msg.sender] == sessions[_session_Id].tutor_Id, \"User not the tutor of this session\");\n        sessions[_session_Id].tutoring_price = _tutoring_price;\n\n        emit ChangeTutoringPrice(msg.sender, _session_Id, _tutoring_price);\n    }\n\n    /// @notice This function allows the tutor to change the running status\n    /// @param _session_Id session id number\n    function changeRunningStatus(uint256 _session_Id) public {\n        require(userAddresses[msg.sender] == sessions[_session_Id].tutor_Id, \"User not the tutor of this session\");\n        sessions[_session_Id].isRunning = !sessions[_session_Id].isRunning;\n\n        emit ChangeRunningStatus(msg.sender, _session_Id, sessions[_session_Id].isRunning);\n    }\n\n    /// @return This function allows anyone to get the list of sessions based on the address of the tutor\n    /// @param _address eth address for the tutor\n    function getSessions(address _address) public view returns(uint256[] memory) {\n        uint256 _tutor_Id = userAddresses[_address];\n        return sessionOwners[_tutor_Id];\n    }\n\n    /// @return This function allows anyone to get the list of requests based on address of the tutor\n    function getRequests(address _address) public view returns(uint256[] memory) {\n        uint256 _userAddress = userAddresses[_address];\n        return requestOwners[_userAddress];\n    }\n\n    /// @return This function allows anyone to get list of requests per session\n    /// @param _session_Id session id number\n    function getSessionRequests(uint256 _session_Id) public view returns(uint256[] memory) {\n        return sessions[_session_Id].session_requests;\n    }\n\n    /// @return This function allows the return of the total number of sessions\n    function getSessionLength() public view returns(uint count) {\n        return sessions.length;\n    }\n\n    /// @return Returns information about a spesific session ID\n    /// @param _session_Id session id number\n    function getSession(uint256 _session_Id) public view returns(\n        uint256,\n        string memory,\n        uint256[] memory,\n        bool,\n        uint256,\n        string memory){\n        Session memory _session = sessions[_session_Id];\n        return (\n        _session.tutor_Id,\n        _session.session_uri,\n        _session.session_requests,\n        _session.isRunning,\n        _session.tutoring_price,\n        _session.details);\n    }\n\n    /// @return get the lessons per owner\n    /// @param _address of the account holder\n    function getLessonForAddress(address _address) public view returns(uint256[] memory) {\n        uint256 _userNumber = userAddresses[_address];\n        return requestOwners[_userNumber];\n    }\n\n    function getLessons(uint256 _lessonId) public view returns(uint256, uint256, uint256){\n        LessonDesign memory _lesson = lessons[_lessonId];\n        return (\n        _lesson.student_Id,\n        _lesson.session_Id,\n        _lesson.request_Id);\n    }\n}",
  "sourcePath": "/Users/HeldaMandlate/Documents/final/contracts/Thuto.sol",
  "compiler": {
    "name": "solc",
    "version": "0.5.8+commit.23d335f2.Emscripten.clang"
  },
  "schemaVersion": "3.0.16",
  "updatedAt": "2019-10-28T13:58:49.589Z",
  "devdoc": {
    "methods": {
      "acceptRequest(uint256)": {
        "details": "parameters of licence design: student_Id, session id, request_Id",
        "params": {
          "_id": "is the request Id"
        }
      },
      "addSession(string,bool,uint256,string)": {
        "details": "The tutor only specifies the flat rateAdd instance to the respective arrays"
      },
      "approve(address,uint256)": {
        "details": "Approves another address to transfer the given token ID The zero address indicates there is no approved address. There can only be one approved address per token at a given time. Can only be called by the token owner or an approved operator.",
        "params": {
          "to": "address to be approved for the given token ID",
          "tokenId": "uint256 ID of the token to be approved"
        }
      },
      "balanceOf(address)": {
        "details": "Gets the balance of the specified address.",
        "params": {
          "owner": "address to query the balance of"
        },
        "return": "uint256 representing the amount owned by the passed address"
      },
      "cancelRequest(uint256)": {
        "params": {
          "_id": "is the bid Id"
        }
      },
      "changeRunningStatus(uint256)": {
        "params": {
          "_session_Id": "session id number"
        }
      },
      "changeTutoringPrice(uint256,uint256)": {
        "params": {
          "_session_Id": "session id number",
          "_tutoring_price": "for the session"
        }
      },
      "constructor": {
        "details": "The constructor below reserves tutor 0 for all unregistered users",
        "params": {
          "_daiContractAddress": "DAI contract address"
        }
      },
      "getApproved(uint256)": {
        "details": "Gets the approved address for a token ID, or zero if no address set Reverts if the token ID does not exist.",
        "params": {
          "tokenId": "uint256 ID of the token to query the approval of"
        },
        "return": "address currently approved for the given token ID"
      },
      "getLessonForAddress(address)": {
        "params": {
          "_address": "of the account holder"
        },
        "return": "get the lessons per owner"
      },
      "getRequests(address)": {
        "return": "This function allows anyone to get the list of requests based on address of the tutor"
      },
      "getSession(uint256)": {
        "params": {
          "_session_Id": "session id number"
        },
        "return": "Returns information about a spesific session ID"
      },
      "getSessionLength()": {
        "return": "This function allows the return of the total number of sessions"
      },
      "getSessionRequests(uint256)": {
        "params": {
          "_session_Id": "session id number"
        },
        "return": "This function allows anyone to get list of requests per session"
      },
      "getSessions(address)": {
        "params": {
          "_address": "eth address for the tutor"
        },
        "return": "This function allows anyone to get the list of sessions based on the address of the tutor"
      },
      "isApprovedForAll(address,address)": {
        "details": "Tells whether an operator is approved by a given owner.",
        "params": {
          "operator": "operator address which you want to query the approval of",
          "owner": "owner address which you want to query the approval of"
        },
        "return": "bool whether the given operator is approved by the given owner"
      },
      "name()": {
        "details": "Gets the token name.",
        "return": "string representing the token name"
      },
      "ownerOf(uint256)": {
        "details": "Gets the owner of the specified token ID.",
        "params": {
          "tokenId": "uint256 ID of the token to query the owner of"
        },
        "return": "address currently marked as the owner of the given token ID"
      },
      "registerUser(string)": {
        "details": "If the tutor's address is in position 0 of the userAddresses array, they are unregisteredCreate an instance of the tutor and add the Id to their address",
        "params": {
          "_profile_uri": "tutor profile url"
        }
      },
      "rejectRequest(uint256)": {
        "params": {
          "_id": "is the Request Id"
        }
      },
      "requestSession(uint256,string)": {
        "details": "lesson Id is added to list of requested sessions",
        "params": {
          "_details": "for the session",
          "_session_Id": "is the index for the session Id"
        }
      },
      "safeTransferFrom(address,address,uint256)": {
        "details": "Safely transfers the ownership of a given token ID to another address If the target address is a contract, it must implement `onERC721Received`, which is called upon a safe transfer, and return the magic value `bytes4(keccak256(\"onERC721Received(address,address,uint256,bytes)\"))`; otherwise, the transfer is reverted. Requires the msg.sender to be the owner, approved, or operator",
        "params": {
          "from": "current owner of the token",
          "to": "address to receive the ownership of the given token ID",
          "tokenId": "uint256 ID of the token to be transferred"
        }
      },
      "safeTransferFrom(address,address,uint256,bytes)": {
        "details": "Safely transfers the ownership of a given token ID to another address If the target address is a contract, it must implement `onERC721Received`, which is called upon a safe transfer, and return the magic value `bytes4(keccak256(\"onERC721Received(address,address,uint256,bytes)\"))`; otherwise, the transfer is reverted. Requires the msg.sender to be the owner, approved, or operator",
        "params": {
          "_data": "bytes data to send along with a safe transfer check",
          "from": "current owner of the token",
          "to": "address to receive the ownership of the given token ID",
          "tokenId": "uint256 ID of the token to be transferred"
        }
      },
      "setApprovalForAll(address,bool)": {
        "details": "Sets or unsets the approval of a given operator An operator is allowed to transfer all tokens of the sender on their behalf.",
        "params": {
          "approved": "representing the status of the approval to be set",
          "to": "operator address to set the approval"
        }
      },
      "supportsInterface(bytes4)": {
        "details": "See `IERC165.supportsInterface`.     * Time complexity O(1), guaranteed to always use less than 30 000 gas."
      },
      "symbol()": {
        "details": "Gets the token symbol.",
        "return": "string representing the token symbol"
      },
      "tokenURI(uint256)": {
        "details": "Returns an URI for a given token ID. Throws if the token ID does not exist. May return an empty string.",
        "params": {
          "tokenId": "uint256 ID of the token to query"
        }
      },
      "transferFrom(address,address,uint256)": {
        "details": "Transfers the ownership of a given token ID to another address. Usage of this method is discouraged, use `safeTransferFrom` whenever possible. Requires the msg.sender to be the owner, approved, or operator.",
        "params": {
          "from": "current owner of the token",
          "to": "address to receive the ownership of the given token ID",
          "tokenId": "uint256 ID of the token to be transferred"
        }
      }
    }
  },
  "userdoc": {
    "methods": {
      "acceptRequest(uint256)": {
        "notice": "This function allows the tutor to accept the requestsThis function allows the tutor to reject the requests"
      },
      "addSession(string,bool,uint256,string)": {
        "notice": "This function creates a session on the system, with blank arrays for session requests and ownerssince no one has requested a session for or bought a licence yet"
      },
      "cancelRequest(uint256)": {
        "notice": "This function allows the tutor to cancel the bids"
      },
      "changeRunningStatus(uint256)": {
        "notice": "This function allows the tutor to change the running status"
      },
      "changeTutoringPrice(uint256,uint256)": {
        "notice": "This function allows the tutor to change the sell price"
      },
      "registerUser(string)": {
        "notice": "This function registers a tutor on the platform by taking in their profile URL"
      },
      "rejectRequest(uint256)": {
        "notice": "This function allows the tutor to reject the bids"
      },
      "requestSession(uint256,string)": {
        "notice": "This function creates a new request for a particular session"
      }
    },
    "notice": "contract begins here"
  }
}