{
  "contractName": "thuto",
  "abi": [
    {
      "inputs": [
        {
          "internalType": "address",
          "name": "_daiContractAddress",
          "type": "address"
        }
      ],
      "payable": false,
      "stateMutability": "nonpayable",
      "type": "constructor"
    },
    {
      "anonymous": false,
      "inputs": [
        {
          "indexed": true,
          "internalType": "address",
          "name": "owner",
          "type": "address"
        },
        {
          "indexed": true,
          "internalType": "address",
          "name": "approved",
          "type": "address"
        },
        {
          "indexed": true,
          "internalType": "uint256",
          "name": "tokenId",
          "type": "uint256"
        }
      ],
      "name": "Approval",
      "type": "event"
    },
    {
      "anonymous": false,
      "inputs": [
        {
          "indexed": true,
          "internalType": "address",
          "name": "owner",
          "type": "address"
        },
        {
          "indexed": true,
          "internalType": "address",
          "name": "operator",
          "type": "address"
        },
        {
          "indexed": false,
          "internalType": "bool",
          "name": "approved",
          "type": "bool"
        }
      ],
      "name": "ApprovalForAll",
      "type": "event"
    },
    {
      "anonymous": false,
      "inputs": [
        {
          "indexed": true,
          "internalType": "address",
          "name": "_from",
          "type": "address"
        },
        {
          "indexed": true,
          "internalType": "uint256",
          "name": "_session_Id",
          "type": "uint256"
        },
        {
          "indexed": false,
          "internalType": "bool",
          "name": "_isRunning",
          "type": "bool"
        }
      ],
      "name": "ChangeRunningStatus",
      "type": "event"
    },
    {
      "anonymous": false,
      "inputs": [
        {
          "indexed": true,
          "internalType": "address",
          "name": "_from",
          "type": "address"
        },
        {
          "indexed": true,
          "internalType": "uint256",
          "name": "_session_Id",
          "type": "uint256"
        },
        {
          "indexed": false,
          "internalType": "uint256",
          "name": "_tutoring_price",
          "type": "uint256"
        }
      ],
      "name": "ChangeTutoringPrice",
      "type": "event"
    },
    {
      "anonymous": false,
      "inputs": [
        {
          "indexed": true,
          "internalType": "address",
          "name": "previousOwner",
          "type": "address"
        },
        {
          "indexed": true,
          "internalType": "address",
          "name": "newOwner",
          "type": "address"
        }
      ],
      "name": "OwnershipTransferred",
      "type": "event"
    },
    {
      "anonymous": false,
      "inputs": [
        {
          "indexed": true,
          "internalType": "address",
          "name": "from",
          "type": "address"
        },
        {
          "indexed": true,
          "internalType": "address",
          "name": "to",
          "type": "address"
        },
        {
          "indexed": true,
          "internalType": "uint256",
          "name": "tokenId",
          "type": "uint256"
        }
      ],
      "name": "Transfer",
      "type": "event"
    },
    {
      "anonymous": false,
      "inputs": [
        {
          "indexed": true,
          "internalType": "address",
          "name": "_from",
          "type": "address"
        },
        {
          "indexed": false,
          "internalType": "uint256",
          "name": "_id",
          "type": "uint256"
        }
      ],
      "name": "acceptedRequest",
      "type": "event"
    },
    {
      "anonymous": false,
      "inputs": [
        {
          "indexed": true,
          "internalType": "address",
          "name": "_from",
          "type": "address"
        },
        {
          "indexed": false,
          "internalType": "uint256",
          "name": "_id",
          "type": "uint256"
        }
      ],
      "name": "cancelledRequest",
      "type": "event"
    },
    {
      "anonymous": false,
      "inputs": [
        {
          "indexed": true,
          "internalType": "address",
          "name": "_from",
          "type": "address"
        },
        {
          "indexed": true,
          "internalType": "uint256",
          "name": "_session_Id",
          "type": "uint256"
        },
        {
          "indexed": false,
          "internalType": "string",
          "name": "_details",
          "type": "string"
        }
      ],
      "name": "newRequest",
      "type": "event"
    },
    {
      "anonymous": false,
      "inputs": [
        {
          "indexed": true,
          "internalType": "address",
          "name": "_from",
          "type": "address"
        },
        {
          "indexed": false,
          "internalType": "string",
          "name": "_session_uri",
          "type": "string"
        },
        {
          "indexed": false,
          "internalType": "uint256",
          "name": "_tutoring_price",
          "type": "uint256"
        },
        {
          "indexed": false,
          "internalType": "string",
          "name": "_details",
          "type": "string"
        }
      ],
      "name": "newSession",
      "type": "event"
    },
    {
      "anonymous": false,
      "inputs": [
        {
          "indexed": true,
          "internalType": "address",
          "name": "_from",
          "type": "address"
        },
        {
          "indexed": false,
          "internalType": "uint256",
          "name": "_id",
          "type": "uint256"
        }
      ],
      "name": "rejectedRequest",
      "type": "event"
    },
    {
      "constant": false,
      "inputs": [
        {
          "internalType": "address",
          "name": "to",
          "type": "address"
        },
        {
          "internalType": "uint256",
          "name": "tokenId",
          "type": "uint256"
        }
      ],
      "name": "approve",
      "outputs": [],
      "payable": false,
      "stateMutability": "nonpayable",
      "type": "function"
    },
    {
      "constant": true,
      "inputs": [
        {
          "internalType": "address",
          "name": "owner",
          "type": "address"
        }
      ],
      "name": "balanceOf",
      "outputs": [
        {
          "internalType": "uint256",
          "name": "",
          "type": "uint256"
        }
      ],
      "payable": false,
      "stateMutability": "view",
      "type": "function"
    },
    {
      "constant": true,
      "inputs": [
        {
          "internalType": "uint256",
          "name": "tokenId",
          "type": "uint256"
        }
      ],
      "name": "getApproved",
      "outputs": [
        {
          "internalType": "address",
          "name": "",
          "type": "address"
        }
      ],
      "payable": false,
      "stateMutability": "view",
      "type": "function"
    },
    {
      "constant": true,
      "inputs": [
        {
          "internalType": "address",
          "name": "owner",
          "type": "address"
        },
        {
          "internalType": "address",
          "name": "operator",
          "type": "address"
        }
      ],
      "name": "isApprovedForAll",
      "outputs": [
        {
          "internalType": "bool",
          "name": "",
          "type": "bool"
        }
      ],
      "payable": false,
      "stateMutability": "view",
      "type": "function"
    },
    {
      "constant": true,
      "inputs": [],
      "name": "isOwner",
      "outputs": [
        {
          "internalType": "bool",
          "name": "",
          "type": "bool"
        }
      ],
      "payable": false,
      "stateMutability": "view",
      "type": "function"
    },
    {
      "constant": true,
      "inputs": [
        {
          "internalType": "uint256",
          "name": "",
          "type": "uint256"
        }
      ],
      "name": "lessons",
      "outputs": [
        {
          "internalType": "uint256",
          "name": "student_Id",
          "type": "uint256"
        },
        {
          "internalType": "uint256",
          "name": "session_Id",
          "type": "uint256"
        },
        {
          "internalType": "uint256",
          "name": "request_Id",
          "type": "uint256"
        }
      ],
      "payable": false,
      "stateMutability": "view",
      "type": "function"
    },
    {
      "constant": true,
      "inputs": [],
      "name": "name",
      "outputs": [
        {
          "internalType": "string",
          "name": "",
          "type": "string"
        }
      ],
      "payable": false,
      "stateMutability": "view",
      "type": "function"
    },
    {
      "constant": true,
      "inputs": [],
      "name": "owner",
      "outputs": [
        {
          "internalType": "address",
          "name": "",
          "type": "address"
        }
      ],
      "payable": false,
      "stateMutability": "view",
      "type": "function"
    },
    {
      "constant": true,
      "inputs": [
        {
          "internalType": "uint256",
          "name": "tokenId",
          "type": "uint256"
        }
      ],
      "name": "ownerOf",
      "outputs": [
        {
          "internalType": "address",
          "name": "",
          "type": "address"
        }
      ],
      "payable": false,
      "stateMutability": "view",
      "type": "function"
    },
    {
      "constant": false,
      "inputs": [],
      "name": "renounceOwnership",
      "outputs": [],
      "payable": false,
      "stateMutability": "nonpayable",
      "type": "function"
    },
    {
      "constant": true,
      "inputs": [
        {
          "internalType": "uint256",
          "name": "",
          "type": "uint256"
        },
        {
          "internalType": "uint256",
          "name": "",
          "type": "uint256"
        }
      ],
      "name": "requestOwners",
      "outputs": [
        {
          "internalType": "uint256",
          "name": "",
          "type": "uint256"
        }
      ],
      "payable": false,
      "stateMutability": "view",
      "type": "function"
    },
    {
      "constant": true,
      "inputs": [
        {
          "internalType": "uint256",
          "name": "",
          "type": "uint256"
        }
      ],
      "name": "requests",
      "outputs": [
        {
          "internalType": "enum thuto.sessionStatus",
          "name": "status",
          "type": "uint8"
        },
        {
          "internalType": "uint256",
          "name": "session_Id",
          "type": "uint256"
        },
        {
          "internalType": "uint256",
          "name": "student_Id",
          "type": "uint256"
        }
      ],
      "payable": false,
      "stateMutability": "view",
      "type": "function"
    },
    {
      "constant": false,
      "inputs": [
        {
          "internalType": "address",
          "name": "from",
          "type": "address"
        },
        {
          "internalType": "address",
          "name": "to",
          "type": "address"
        },
        {
          "internalType": "uint256",
          "name": "tokenId",
          "type": "uint256"
        }
      ],
      "name": "safeTransferFrom",
      "outputs": [],
      "payable": false,
      "stateMutability": "nonpayable",
      "type": "function"
    },
    {
      "constant": false,
      "inputs": [
        {
          "internalType": "address",
          "name": "from",
          "type": "address"
        },
        {
          "internalType": "address",
          "name": "to",
          "type": "address"
        },
        {
          "internalType": "uint256",
          "name": "tokenId",
          "type": "uint256"
        },
        {
          "internalType": "bytes",
          "name": "_data",
          "type": "bytes"
        }
      ],
      "name": "safeTransferFrom",
      "outputs": [],
      "payable": false,
      "stateMutability": "nonpayable",
      "type": "function"
    },
    {
      "constant": true,
      "inputs": [
        {
          "internalType": "uint256",
          "name": "",
          "type": "uint256"
        },
        {
          "internalType": "uint256",
          "name": "",
          "type": "uint256"
        }
      ],
      "name": "sessionOwners",
      "outputs": [
        {
          "internalType": "uint256",
          "name": "",
          "type": "uint256"
        }
      ],
      "payable": false,
      "stateMutability": "view",
      "type": "function"
    },
    {
      "constant": true,
      "inputs": [
        {
          "internalType": "uint256",
          "name": "",
          "type": "uint256"
        },
        {
          "internalType": "uint256",
          "name": "",
          "type": "uint256"
        }
      ],
      "name": "sessionRequests",
      "outputs": [
        {
          "internalType": "uint256",
          "name": "",
          "type": "uint256"
        }
      ],
      "payable": false,
      "stateMutability": "view",
      "type": "function"
    },
    {
      "constant": true,
      "inputs": [
        {
          "internalType": "uint256",
          "name": "",
          "type": "uint256"
        }
      ],
      "name": "sessions",
      "outputs": [
        {
          "internalType": "uint256",
          "name": "tutor_Id",
          "type": "uint256"
        },
        {
          "internalType": "string",
          "name": "session_uri",
          "type": "string"
        },
        {
          "internalType": "bool",
          "name": "isRunning",
          "type": "bool"
        },
        {
          "internalType": "uint256",
          "name": "tutoring_price",
          "type": "uint256"
        },
        {
          "internalType": "string",
          "name": "details",
          "type": "string"
        }
      ],
      "payable": false,
      "stateMutability": "view",
      "type": "function"
    },
    {
      "constant": true,
      "inputs": [
        {
          "internalType": "uint256",
          "name": "",
          "type": "uint256"
        },
        {
          "internalType": "uint256",
          "name": "",
          "type": "uint256"
        }
      ],
      "name": "sessionsOwners",
      "outputs": [
        {
          "internalType": "uint256",
          "name": "",
          "type": "uint256"
        }
      ],
      "payable": false,
      "stateMutability": "view",
      "type": "function"
    },
    {
      "constant": false,
      "inputs": [
        {
          "internalType": "address",
          "name": "to",
          "type": "address"
        },
        {
          "internalType": "bool",
          "name": "approved",
          "type": "bool"
        }
      ],
      "name": "setApprovalForAll",
      "outputs": [],
      "payable": false,
      "stateMutability": "nonpayable",
      "type": "function"
    },
    {
      "constant": true,
      "inputs": [],
      "name": "stopped",
      "outputs": [
        {
          "internalType": "bool",
          "name": "",
          "type": "bool"
        }
      ],
      "payable": false,
      "stateMutability": "view",
      "type": "function"
    },
    {
      "constant": true,
      "inputs": [
        {
          "internalType": "bytes4",
          "name": "interfaceId",
          "type": "bytes4"
        }
      ],
      "name": "supportsInterface",
      "outputs": [
        {
          "internalType": "bool",
          "name": "",
          "type": "bool"
        }
      ],
      "payable": false,
      "stateMutability": "view",
      "type": "function"
    },
    {
      "constant": true,
      "inputs": [],
      "name": "symbol",
      "outputs": [
        {
          "internalType": "string",
          "name": "",
          "type": "string"
        }
      ],
      "payable": false,
      "stateMutability": "view",
      "type": "function"
    },
    {
      "constant": true,
      "inputs": [
        {
          "internalType": "uint256",
          "name": "tokenId",
          "type": "uint256"
        }
      ],
      "name": "tokenURI",
      "outputs": [
        {
          "internalType": "string",
          "name": "",
          "type": "string"
        }
      ],
      "payable": false,
      "stateMutability": "view",
      "type": "function"
    },
    {
      "constant": false,
      "inputs": [
        {
          "internalType": "address",
          "name": "from",
          "type": "address"
        },
        {
          "internalType": "address",
          "name": "to",
          "type": "address"
        },
        {
          "internalType": "uint256",
          "name": "tokenId",
          "type": "uint256"
        }
      ],
      "name": "transferFrom",
      "outputs": [],
      "payable": false,
      "stateMutability": "nonpayable",
      "type": "function"
    },
    {
      "constant": false,
      "inputs": [
        {
          "internalType": "address",
          "name": "newOwner",
          "type": "address"
        }
      ],
      "name": "transferOwnership",
      "outputs": [],
      "payable": false,
      "stateMutability": "nonpayable",
      "type": "function"
    },
    {
      "constant": true,
      "inputs": [
        {
          "internalType": "address",
          "name": "",
          "type": "address"
        }
      ],
      "name": "userAddresses",
      "outputs": [
        {
          "internalType": "uint256",
          "name": "",
          "type": "uint256"
        }
      ],
      "payable": false,
      "stateMutability": "view",
      "type": "function"
    },
    {
      "constant": true,
      "inputs": [
        {
          "internalType": "uint256",
          "name": "",
          "type": "uint256"
        }
      ],
      "name": "users",
      "outputs": [
        {
          "internalType": "address",
          "name": "owned_address",
          "type": "address"
        },
        {
          "internalType": "string",
          "name": "profile_uri",
          "type": "string"
        }
      ],
      "payable": false,
      "stateMutability": "view",
      "type": "function"
    },
    {
      "constant": false,
      "inputs": [
        {
          "internalType": "string",
          "name": "_profile_uri",
          "type": "string"
        }
      ],
      "name": "registerUser",
      "outputs": [],
      "payable": false,
      "stateMutability": "nonpayable",
      "type": "function"
    },
    {
      "constant": false,
      "inputs": [
        {
          "internalType": "string",
          "name": "_session_uri",
          "type": "string"
        },
        {
          "internalType": "bool",
          "name": "_isRunning",
          "type": "bool"
        },
        {
          "internalType": "uint256",
          "name": "_tutoring_price",
          "type": "uint256"
        },
        {
          "internalType": "string",
          "name": "_details",
          "type": "string"
        }
      ],
      "name": "addSession",
      "outputs": [],
      "payable": false,
      "stateMutability": "nonpayable",
      "type": "function"
    },
    {
      "constant": false,
      "inputs": [
        {
          "internalType": "uint256",
          "name": "_session_Id",
          "type": "uint256"
        },
        {
          "internalType": "string",
          "name": "_details",
          "type": "string"
        }
      ],
      "name": "requestSession",
      "outputs": [],
      "payable": false,
      "stateMutability": "nonpayable",
      "type": "function"
    },
    {
      "constant": false,
      "inputs": [
        {
          "internalType": "uint256",
          "name": "_id",
          "type": "uint256"
        }
      ],
      "name": "acceptRequest",
      "outputs": [],
      "payable": false,
      "stateMutability": "nonpayable",
      "type": "function"
    },
    {
      "constant": false,
      "inputs": [
        {
          "internalType": "uint256",
          "name": "_id",
          "type": "uint256"
        }
      ],
      "name": "rejectRequest",
      "outputs": [],
      "payable": false,
      "stateMutability": "nonpayable",
      "type": "function"
    },
    {
      "constant": false,
      "inputs": [
        {
          "internalType": "uint256",
          "name": "_id",
          "type": "uint256"
        }
      ],
      "name": "cancelRequest",
      "outputs": [],
      "payable": false,
      "stateMutability": "nonpayable",
      "type": "function"
    },
    {
      "constant": false,
      "inputs": [
        {
          "internalType": "uint256",
          "name": "_session_Id",
          "type": "uint256"
        },
        {
          "internalType": "uint256",
          "name": "_tutoring_price",
          "type": "uint256"
        }
      ],
      "name": "changeTutoringPrice",
      "outputs": [],
      "payable": false,
      "stateMutability": "nonpayable",
      "type": "function"
    },
    {
      "constant": false,
      "inputs": [
        {
          "internalType": "uint256",
          "name": "_session_Id",
          "type": "uint256"
        }
      ],
      "name": "changeRunningStatus",
      "outputs": [],
      "payable": false,
      "stateMutability": "nonpayable",
      "type": "function"
    },
    {
      "constant": true,
      "inputs": [
        {
          "internalType": "address",
          "name": "_address",
          "type": "address"
        }
      ],
      "name": "getSessions",
      "outputs": [
        {
          "internalType": "uint256[]",
          "name": "",
          "type": "uint256[]"
        }
      ],
      "payable": false,
      "stateMutability": "view",
      "type": "function"
    },
    {
      "constant": true,
      "inputs": [
        {
          "internalType": "address",
          "name": "_address",
          "type": "address"
        }
      ],
      "name": "getRequests",
      "outputs": [
        {
          "internalType": "uint256[]",
          "name": "",
          "type": "uint256[]"
        }
      ],
      "payable": false,
      "stateMutability": "view",
      "type": "function"
    },
    {
      "constant": true,
      "inputs": [
        {
          "internalType": "uint256",
          "name": "_session_Id",
          "type": "uint256"
        }
      ],
      "name": "getSessionRequests",
      "outputs": [
        {
          "internalType": "uint256[]",
          "name": "",
          "type": "uint256[]"
        }
      ],
      "payable": false,
      "stateMutability": "view",
      "type": "function"
    },
    {
      "constant": true,
      "inputs": [],
      "name": "getSessionLength",
      "outputs": [
        {
          "internalType": "uint256",
          "name": "count",
          "type": "uint256"
        }
      ],
      "payable": false,
      "stateMutability": "view",
      "type": "function"
    },
    {
      "constant": true,
      "inputs": [
        {
          "internalType": "uint256",
          "name": "_session_Id",
          "type": "uint256"
        }
      ],
      "name": "getSession",
      "outputs": [
        {
          "internalType": "uint256",
          "name": "",
          "type": "uint256"
        },
        {
          "internalType": "string",
          "name": "",
          "type": "string"
        },
        {
          "internalType": "uint256[]",
          "name": "",
          "type": "uint256[]"
        },
        {
          "internalType": "bool",
          "name": "",
          "type": "bool"
        },
        {
          "internalType": "uint256",
          "name": "",
          "type": "uint256"
        },
        {
          "internalType": "string",
          "name": "",
          "type": "string"
        }
      ],
      "payable": false,
      "stateMutability": "view",
      "type": "function"
    },
    {
      "constant": true,
      "inputs": [
        {
          "internalType": "address",
          "name": "_address",
          "type": "address"
        }
      ],
      "name": "getLessonForAddress",
      "outputs": [
        {
          "internalType": "uint256[]",
          "name": "",
          "type": "uint256[]"
        }
      ],
      "payable": false,
      "stateMutability": "view",
      "type": "function"
    },
    {
      "constant": true,
      "inputs": [
        {
          "internalType": "uint256",
          "name": "_lessonId",
          "type": "uint256"
        }
      ],
      "name": "getLessons",
      "outputs": [
        {
          "internalType": "uint256",
          "name": "",
          "type": "uint256"
        },
        {
          "internalType": "uint256",
          "name": "",
          "type": "uint256"
        },
        {
          "internalType": "uint256",
          "name": "",
          "type": "uint256"
        }
      ],
      "payable": false,
      "stateMutability": "view",
      "type": "function"
    },
    {
      "constant": false,
      "inputs": [],
      "name": "toggleContractStopped",
      "outputs": [],
      "payable": false,
      "stateMutability": "nonpayable",
      "type": "function"
    },
    {
      "constant": false,
      "inputs": [],
      "name": "registerUserFailed",
      "outputs": [],
      "payable": false,
      "stateMutability": "nonpayable",
      "type": "function"
    },
    {
      "constant": false,
      "inputs": [],
      "name": "userListNotChanged",
      "outputs": [],
      "payable": false,
      "stateMutability": "nonpayable",
      "type": "function"
    }
  ],
  "bytecode": "0x60806040526000601260146101000a81548160ff0219169083151502179055503480156200002c57600080fd5b506040516200576838038062005768833981810160405260208110156200005257600080fd5b81019080805190602001909291905050506040518060400160405280600d81526020017f546875746f204c6963656e6365000000000000000000000000000000000000008152506040518060400160405280600581526020017f544855544f000000000000000000000000000000000000000000000000000000815250620000e76301ffc9a760e01b6200039d60201b60201c565b620000ff6380ac58cd60e01b6200039d60201b60201c565b816005908051906020019062000117929190620004ae565b50806006908051906020019062000130929190620004ae565b5062000149635b5e139f60e01b6200039d60201b60201c565b50506200015b620004a660201b60201c565b600860006101000a81548173ffffffffffffffffffffffffffffffffffffffff021916908373ffffffffffffffffffffffffffffffffffffffff160217905550600860009054906101000a900473ffffffffffffffffffffffffffffffffffffffff1673ffffffffffffffffffffffffffffffffffffffff16600073ffffffffffffffffffffffffffffffffffffffff167f8be0079c531659141344cd1fd0a4f28419497f9722a3daafe3b4186f6b6457e060405160405180910390a360096040518060400160405280600073ffffffffffffffffffffffffffffffffffffffff168152602001604051806020016040528060008152508152509080600181540180825580915050906001820390600052602060002090600202016000909192909190915060008201518160000160006101000a81548173ffffffffffffffffffffffffffffffffffffffff021916908373ffffffffffffffffffffffffffffffffffffffff1602179055506020820151816001019080519060200190620002e592919062000535565b50505050600f6040518060600160405280600081526020016000815260200160008152509080600181540180825580915050906001820390600052602060002090600302016000909192909190915060008201518160000155602082015181600101556040820151816002015550505080601260006101000a81548173ffffffffffffffffffffffffffffffffffffffff021916908373ffffffffffffffffffffffffffffffffffffffff16021790555050620005e4565b63ffffffff60e01b817bffffffffffffffffffffffffffffffffffffffffffffffffffffffff191614156200043a576040517f08c379a000000000000000000000000000000000000000000000000000000000815260040180806020018281038252601c8152602001807f4552433136353a20696e76616c696420696e746572666163652069640000000081525060200191505060405180910390fd5b6001600080837bffffffffffffffffffffffffffffffffffffffffffffffffffffffff19167bffffffffffffffffffffffffffffffffffffffffffffffffffffffff1916815260200190815260200160002060006101000a81548160ff02191690831515021790555050565b600033905090565b828054600181600116156101000203166002900490600052602060002090601f016020900481019282601f10620004f157805160ff191683800117855562000522565b8280016001018555821562000522579182015b828111156200052157825182559160200191906001019062000504565b5b509050620005319190620005bc565b5090565b828054600181600116156101000203166002900490600052602060002090601f016020900481019282601f106200057857805160ff1916838001178555620005a9565b82800160010185558215620005a9579182015b82811115620005a85782518255916020019190600101906200058b565b5b509050620005b89190620005bc565b5090565b620005e191905b80821115620005dd576000816000905550600101620005c3565b5090565b90565b61517480620005f46000396000f3fe608060405234801561001057600080fd5b506004361061027f5760003560e01c8063715018a61161015c578063a12ea604116100ce578063e83c78d411610087578063e83c78d4146113cc578063e985e9c5146113d6578063ef49ca9014611452578063efb4506f146114a2578063f2fde38b14611567578063fc86dea7146115ab5761027f565b8063a12ea604146110e8578063a22cb46514611134578063b88d4fde14611184578063c87b56dd14611289578063da58d64e14611330578063e1d1a8411461137c5761027f565b806383c4b7a31161012057806383c4b7a314610e955780638d39136c14610fc15780638da5cb5b14610fcb5780638f32d59b1461101557806395d89b41146110375780639ab7a954146110ba5761027f565b8063715018a614610cef578063731daf5314610cf957806375f12b2114610d7c578063804e44f314610d9e57806381d12c5814610e375761027f565b8063365b98b2116101f5578063482fcedc116101b9578063482fcedc14610a9d5780634ba1f09814610b36578063555ea69814610b645780636352211e14610b6e578063704f1b9414610bdc57806370a0823114610c975761027f565b8063365b98b21461065b57806338b7005d146107355780633fac376c14610753578063402ff0db146108bb57806342842e0e14610a2f5761027f565b806313625e2e1161024757806313625e2e146104745780631515eb801461050d57806323b872dd146105455780632d7788db146105b35780632e67fd77146105e15780633015394c1461062d5761027f565b806301ffc9a714610284578063021d2bfe146102e957806306fdde0314610335578063081812fc146103b8578063095ea7b314610426575b600080fd5b6102cf6004803603602081101561029a57600080fd5b8101908080357bffffffffffffffffffffffffffffffffffffffffffffffffffffffff19169060200190929190505050611603565b604051808215151515815260200191505060405180910390f35b61031f600480360360408110156102ff57600080fd5b81019080803590602001909291908035906020019092919050505061166a565b6040518082815260200191505060405180910390f35b61033d611698565b6040518080602001828103825283818151815260200191508051906020019080838360005b8381101561037d578082015181840152602081019050610362565b50505050905090810190601f1680156103aa5780820380516001836020036101000a031916815260200191505b509250505060405180910390f35b6103e4600480360360208110156103ce57600080fd5b810190808035906020019092919050505061173a565b604051808273ffffffffffffffffffffffffffffffffffffffff1673ffffffffffffffffffffffffffffffffffffffff16815260200191505060405180910390f35b6104726004803603604081101561043c57600080fd5b81019080803573ffffffffffffffffffffffffffffffffffffffff169060200190929190803590602001909291905050506117d5565b005b6104b66004803603602081101561048a57600080fd5b81019080803573ffffffffffffffffffffffffffffffffffffffff1690602001909291905050506119bc565b6040518080602001828103825283818151815260200191508051906020019060200280838360005b838110156104f95780820151818401526020810190506104de565b505050509050019250505060405180910390f35b6105436004803603604081101561052357600080fd5b810190808035906020019092919080359060200190929190505050611a6c565b005b6105b16004803603606081101561055b57600080fd5b81019080803573ffffffffffffffffffffffffffffffffffffffff169060200190929190803573ffffffffffffffffffffffffffffffffffffffff16906020019092919080359060200190929190505050611b97565b005b6105df600480360360208110156105c957600080fd5b8101908080359060200190929190505050611c0d565b005b610617600480360360408110156105f757600080fd5b810190808035906020019092919080359060200190929190505050611e15565b6040518082815260200191505060405180910390f35b6106596004803603602081101561064357600080fd5b8101908080359060200190929190505050611e43565b005b6106876004803603602081101561067157600080fd5b8101908080359060200190929190505050611fad565b604051808373ffffffffffffffffffffffffffffffffffffffff1673ffffffffffffffffffffffffffffffffffffffff16815260200180602001828103825283818151815260200191508051906020019080838360005b838110156106f95780820151818401526020810190506106de565b50505050905090810190601f1680156107265780820380516001836020036101000a031916815260200191505b50935050505060405180910390f35b61073d612096565b6040518082815260200191505060405180910390f35b6108b96004803603608081101561076957600080fd5b810190808035906020019064010000000081111561078657600080fd5b82018360208201111561079857600080fd5b803590602001918460018302840111640100000000831117156107ba57600080fd5b91908080601f016020809104026020016040519081016040528093929190818152602001838380828437600081840152601f19601f820116905080830192505050505050509192919290803515159060200190929190803590602001909291908035906020019064010000000081111561083357600080fd5b82018360208201111561084557600080fd5b8035906020019184600183028401116401000000008311171561086757600080fd5b91908080601f016020809104026020016040519081016040528093929190818152602001838380828437600081840152601f19601f8201169050808301925050505050505091929192905050506120a3565b005b6108e7600480360360208110156108d157600080fd5b810190808035906020019092919050505061256d565b6040518087815260200180602001806020018615151515815260200185815260200180602001848103845289818151815260200191508051906020019080838360005b8381101561094557808201518184015260208101905061092a565b50505050905090810190601f1680156109725780820380516001836020036101000a031916815260200191505b50848103835288818151815260200191508051906020019060200280838360005b838110156109ae578082015181840152602081019050610993565b50505050905001848103825285818151815260200191508051906020019080838360005b838110156109ed5780820151818401526020810190506109d2565b50505050905090810190601f168015610a1a5780820380516001836020036101000a031916815260200191505b50995050505050505050505060405180910390f35b610a9b60048036036060811015610a4557600080fd5b81019080803573ffffffffffffffffffffffffffffffffffffffff169060200190929190803573ffffffffffffffffffffffffffffffffffffffff169060200190929190803590602001909291905050506127af565b005b610adf60048036036020811015610ab357600080fd5b81019080803573ffffffffffffffffffffffffffffffffffffffff1690602001909291905050506127cf565b6040518080602001828103825283818151815260200191508051906020019060200280838360005b83811015610b22578082015181840152602081019050610b07565b505050509050019250505060405180910390f35b610b6260048036036020811015610b4c57600080fd5b810190808035906020019092919050505061287f565b005b610b6c612c10565b005b610b9a60048036036020811015610b8457600080fd5b8101908080359060200190929190505050612c12565b604051808273ffffffffffffffffffffffffffffffffffffffff1673ffffffffffffffffffffffffffffffffffffffff16815260200191505060405180910390f35b610c9560048036036020811015610bf257600080fd5b8101908080359060200190640100000000811115610c0f57600080fd5b820183602082011115610c2157600080fd5b80359060200191846001830284011164010000000083111715610c4357600080fd5b91908080601f016020809104026020016040519081016040528093929190818152602001838380828437600081840152601f19601f820116905080830192505050505050509192919290505050612cda565b005b610cd960048036036020811015610cad57600080fd5b81019080803573ffffffffffffffffffffffffffffffffffffffff169060200190929190505050612f13565b6040518082815260200191505060405180910390f35b610cf7612fe8565b005b610d2560048036036020811015610d0f57600080fd5b8101908080359060200190929190505050613123565b6040518080602001828103825283818151815260200191508051906020019060200280838360005b83811015610d68578082015181840152602081019050610d4d565b505050509050019250505060405180910390f35b610d84613199565b604051808215151515815260200191505060405180910390f35b610de060048036036020811015610db457600080fd5b81019080803573ffffffffffffffffffffffffffffffffffffffff1690602001909291905050506131ac565b6040518080602001828103825283818151815260200191508051906020019060200280838360005b83811015610e23578082015181840152602081019050610e08565b505050509050019250505060405180910390f35b610e6360048036036020811015610e4d57600080fd5b810190808035906020019092919050505061325c565b60405180846003811115610e7357fe5b60ff168152602001838152602001828152602001935050505060405180910390f35b610ec160048036036020811015610eab57600080fd5b81019080803590602001909291905050506132a0565b60405180868152602001806020018515151515815260200184815260200180602001838103835287818151815260200191508051906020019080838360005b83811015610f1b578082015181840152602081019050610f00565b50505050905090810190601f168015610f485780820380516001836020036101000a031916815260200191505b50838103825284818151815260200191508051906020019080838360005b83811015610f81578082015181840152602081019050610f66565b50505050905090810190601f168015610fae5780820380516001836020036101000a031916815260200191505b5097505050505050505060405180910390f35b610fc9613420565b005b610fd3613422565b604051808273ffffffffffffffffffffffffffffffffffffffff1673ffffffffffffffffffffffffffffffffffffffff16815260200191505060405180910390f35b61101d61344c565b604051808215151515815260200191505060405180910390f35b61103f6134ab565b6040518080602001828103825283818151815260200191508051906020019080838360005b8381101561107f578082015181840152602081019050611064565b50505050905090810190601f1680156110ac5780820380516001836020036101000a031916815260200191505b509250505060405180910390f35b6110e6600480360360208110156110d057600080fd5b810190808035906020019092919050505061354d565b005b61111e600480360360408110156110fe57600080fd5b8101908080359060200190929190803590602001909291905050506136e5565b6040518082815260200191505060405180910390f35b6111826004803603604081101561114a57600080fd5b81019080803573ffffffffffffffffffffffffffffffffffffffff169060200190929190803515159060200190929190505050613713565b005b6112876004803603608081101561119a57600080fd5b81019080803573ffffffffffffffffffffffffffffffffffffffff169060200190929190803573ffffffffffffffffffffffffffffffffffffffff169060200190929190803590602001909291908035906020019064010000000081111561120157600080fd5b82018360208201111561121357600080fd5b8035906020019184600183028401116401000000008311171561123557600080fd5b91908080601f016020809104026020016040519081016040528093929190818152602001838380828437600081840152601f19601f8201169050808301925050505050505091929192905050506138cb565b005b6112b56004803603602081101561129f57600080fd5b8101908080359060200190929190505050613943565b6040518080602001828103825283818151815260200191508051906020019080838360005b838110156112f55780820151818401526020810190506112da565b50505050905090810190601f1680156113225780820380516001836020036101000a031916815260200191505b509250505060405180910390f35b6113666004803603604081101561134657600080fd5b810190808035906020019092919080359060200190929190505050613a56565b6040518082815260200191505060405180910390f35b6113a86004803603602081101561139257600080fd5b8101908080359060200190929190505050613a84565b60405180848152602001838152602001828152602001935050505060405180910390f35b6113d4613abb565b005b611438600480360360408110156113ec57600080fd5b81019080803573ffffffffffffffffffffffffffffffffffffffff169060200190929190803573ffffffffffffffffffffffffffffffffffffffff169060200190929190505050613b61565b604051808215151515815260200191505060405180910390f35b61147e6004803603602081101561146857600080fd5b8101908080359060200190929190505050613bf5565b60405180848152602001838152602001828152602001935050505060405180910390f35b611565600480360360408110156114b857600080fd5b8101908080359060200190929190803590602001906401000000008111156114df57600080fd5b8201836020820111156114f157600080fd5b8035906020019184600183028401116401000000008311171561151357600080fd5b91908080601f016020809104026020016040519081016040528093929190818152602001838380828437600081840152601f19601f820116905080830192505050505050509192919290505050613c65565b005b6115a96004803603602081101561157d57600080fd5b81019080803573ffffffffffffffffffffffffffffffffffffffff169060200190929190505050614101565b005b6115ed600480360360208110156115c157600080fd5b81019080803573ffffffffffffffffffffffffffffffffffffffff169060200190929190505050614187565b6040518082815260200191505060405180910390f35b6000806000837bffffffffffffffffffffffffffffffffffffffffffffffffffffffff19167bffffffffffffffffffffffffffffffffffffffffffffffffffffffff1916815260200190815260200160002060009054906101000a900460ff169050919050565b6011602052816000526040600020818154811061168357fe5b90600052602060002001600091509150505481565b606060058054600181600116156101000203166002900480601f0160208091040260200160405190810160405280929190818152602001828054600181600116156101000203166002900480156117305780601f1061170557610100808354040283529160200191611730565b820191906000526020600020905b81548152906001019060200180831161171357829003601f168201915b5050505050905090565b60006117458261419f565b61179a576040517f08c379a000000000000000000000000000000000000000000000000000000000815260040180806020018281038252602c815260200180615048602c913960400191505060405180910390fd5b6002600083815260200190815260200160002060009054906101000a900473ffffffffffffffffffffffffffffffffffffffff169050919050565b60006117e082612c12565b90508073ffffffffffffffffffffffffffffffffffffffff168373ffffffffffffffffffffffffffffffffffffffff161415611867576040517f08c379a00000000000000000000000000000000000000000000000000000000081526004018080602001828103825260218152602001806150cc6021913960400191505060405180910390fd5b8073ffffffffffffffffffffffffffffffffffffffff16611886614211565b73ffffffffffffffffffffffffffffffffffffffff1614806118b557506118b4816118af614211565b613b61565b5b61190a576040517f08c379a0000000000000000000000000000000000000000000000000000000008152600401808060200182810382526038815260200180614f9b6038913960400191505060405180910390fd5b826002600084815260200190815260200160002060006101000a81548173ffffffffffffffffffffffffffffffffffffffff021916908373ffffffffffffffffffffffffffffffffffffffff160217905550818373ffffffffffffffffffffffffffffffffffffffff168273ffffffffffffffffffffffffffffffffffffffff167f8c5be1e5ebec7d5bd14f71427d1e84f3dd0314c0f7b2291e5b200ac8c7c3b92560405160405180910390a4505050565b60606000600a60008473ffffffffffffffffffffffffffffffffffffffff1673ffffffffffffffffffffffffffffffffffffffff168152602001908152602001600020549050600e6000828152602001908152602001600020805480602002602001604051908101604052809291908181526020018280548015611a5f57602002820191906000526020600020905b815481526020019060010190808311611a4b575b5050505050915050919050565b600d8281548110611a7957fe5b906000526020600020906006020160000154600a60003373ffffffffffffffffffffffffffffffffffffffff1673ffffffffffffffffffffffffffffffffffffffff1681526020019081526020016000205414611b21576040517f08c379a00000000000000000000000000000000000000000000000000000000081526004018080602001828103825260228152602001806150266022913960400191505060405180910390fd5b80600d8381548110611b2f57fe5b906000526020600020906006020160040181905550813373ffffffffffffffffffffffffffffffffffffffff167f0376847055a0a541f35e7a83217d5cb66bd5273ff6c34677d9911f13b70d8594836040518082815260200191505060405180910390a35050565b611ba8611ba2614211565b82614219565b611bfd576040517f08c379a00000000000000000000000000000000000000000000000000000000081526004018080602001828103825260318152602001806150ed6031913960400191505060405180910390fd5b611c0883838361430d565b505050565b6000600b8281548110611c1c57fe5b9060005260206000209060030201600101549050600d8181548110611c3d57fe5b906000526020600020906006020160000154600a60003373ffffffffffffffffffffffffffffffffffffffff1673ffffffffffffffffffffffffffffffffffffffff1681526020019081526020016000205414611ce5576040517f08c379a00000000000000000000000000000000000000000000000000000000081526004018080602001828103825260228152602001806150266022913960400191505060405180910390fd5b600d8181548110611cf257fe5b906000526020600020906006020160030160009054906101000a900460ff16611d83576040517f08c379a00000000000000000000000000000000000000000000000000000000081526004018080602001828103825260138152602001807f53657373696f6e206e6f742072756e6e696e670000000000000000000000000081525060200191505060405180910390fd5b6002600b8381548110611d9257fe5b906000526020600020906003020160000160006101000a81548160ff02191690836003811115611dbe57fe5b02179055503373ffffffffffffffffffffffffffffffffffffffff167fd0efae7a8f53e6d9bc42552dffe5370074bacd65dd7d8bea0c7965c66b8eb67e836040518082815260200191505060405180910390a25050565b600c6020528160005260406000208181548110611e2e57fe5b90600052602060002001600091509150505481565b6000600b8281548110611e5257fe5b9060005260206000209060030201600201549050600b8181548110611e7357fe5b906000526020600020906003020160020154600a60003373ffffffffffffffffffffffffffffffffffffffff1673ffffffffffffffffffffffffffffffffffffffff1681526020019081526020016000205414611f1b576040517f08c379a0000000000000000000000000000000000000000000000000000000008152600401808060200182810382526025815260200180614ece6025913960400191505060405180910390fd5b6003600b8381548110611f2a57fe5b906000526020600020906003020160000160006101000a81548160ff02191690836003811115611f5657fe5b02179055503373ffffffffffffffffffffffffffffffffffffffff167fd8e7eb8a53f0fdda9d0f81dab9241b44564ccfaaa5fbc2cbf9a372ae612bd3d5836040518082815260200191505060405180910390a25050565b60098181548110611fba57fe5b90600052602060002090600202016000915090508060000160009054906101000a900473ffffffffffffffffffffffffffffffffffffffff1690806001018054600181600116156101000203166002900480601f01602080910402602001604051908101604052809291908181526020018280546001816001161561010002031660029004801561208c5780601f106120615761010080835404028352916020019161208c565b820191906000526020600020905b81548152906001019060200180831161206f57829003601f168201915b5050505050905082565b6000600d80549050905090565b600084511161211a576040517f08c379a00000000000000000000000000000000000000000000000000000000081526004018080602001828103825260208152602001807f53657373696f6e205552492073686f756c64206e6f7420626520656d7074792e81525060200191505060405180910390fd5b6000600a60003373ffffffffffffffffffffffffffffffffffffffff1673ffffffffffffffffffffffffffffffffffffffff1681526020019081526020016000205414156121d0576040517f08c379a00000000000000000000000000000000000000000000000000000000081526004018080602001828103825260208152602001807f5475746f722061646472657373206973206e6f7420726567697374657265642e81525060200191505060405180910390fd5b60008211612246576040517f08c379a00000000000000000000000000000000000000000000000000000000081526004018080602001828103825260198152602001807f53656c6c207072696365206e6f74207370656369666965642e0000000000000081525060200191505060405180910390fd5b60008151116122bd576040517f08c379a000000000000000000000000000000000000000000000000000000000815260040180806020018281038252601c8152602001807f44657461696c732073686f756c64206e6f7420626520656d7074792e0000000081525060200191505060405180910390fd5b6000600a60003373ffffffffffffffffffffffffffffffffffffffff1673ffffffffffffffffffffffffffffffffffffffff168152602001908152602001600020549050606061230b614d82565b6040518060c0016040528084815260200188815260200183815260200187151581526020018681526020018581525090506000600d8290806001815401808255809150509060018203906000526020600020906006020160009091929091909150600082015181600001556020820151816001019080519060200190612392929190614dba565b5060408201518160020190805190602001906123af929190614e3a565b5060608201518160030160006101000a81548160ff0219169083151502179055506080820151816004015560a08201518160050190805190602001906123f6929190614dba565b5050509050600e60008581526020019081526020016000206001820390806001815401808255809150509060018203906000526020600020016000909192909190915055503373ffffffffffffffffffffffffffffffffffffffff167f43315878661f0c4b3418e7a26be592ba7db00fddd3a81f4d6ddce943c9712134898888604051808060200184815260200180602001838103835286818151815260200191508051906020019080838360005b838110156124c05780820151818401526020810190506124a5565b50505050905090810190601f1680156124ed5780820380516001836020036101000a031916815260200191505b50838103825284818151815260200191508051906020019080838360005b8381101561252657808201518184015260208101905061250b565b50505050905090810190601f1680156125535780820380516001836020036101000a031916815260200191505b509550505050505060405180910390a25050505050505050565b6000606080600080606061257f614d82565b600d888154811061258c57fe5b90600052602060002090600602016040518060c001604052908160008201548152602001600182018054600181600116156101000203166002900480601f0160208091040260200160405190810160405280929190818152602001828054600181600116156101000203166002900480156126485780601f1061261d57610100808354040283529160200191612648565b820191906000526020600020905b81548152906001019060200180831161262b57829003601f168201915b50505050508152602001600282018054806020026020016040519081016040528092919081815260200182805480156126a057602002820191906000526020600020905b81548152602001906001019080831161268c575b505050505081526020016003820160009054906101000a900460ff1615151515815260200160048201548152602001600582018054600181600116156101000203166002900480601f0160208091040260200160405190810160405280929190818152602001828054600181600116156101000203166002900480156127675780601f1061273c57610100808354040283529160200191612767565b820191906000526020600020905b81548152906001019060200180831161274a57829003601f168201915b5050505050815250509050806000015181602001518260400151836060015184608001518560a001518494508393508090509650965096509650965096505091939550919395565b6127ca838383604051806020016040528060008152506138cb565b505050565b60606000600a60008473ffffffffffffffffffffffffffffffffffffffff1673ffffffffffffffffffffffffffffffffffffffff168152602001908152602001600020549050600c600082815260200190815260200160002080548060200260200160405190810160405280929190818152602001828054801561287257602002820191906000526020600020905b81548152602001906001019080831161285e575b5050505050915050919050565b6000600b828154811061288e57fe5b9060005260206000209060030201600101549050600d81815481106128af57fe5b906000526020600020906006020160000154600a60003373ffffffffffffffffffffffffffffffffffffffff1673ffffffffffffffffffffffffffffffffffffffff1681526020019081526020016000205414612957576040517f08c379a00000000000000000000000000000000000000000000000000000000081526004018080602001828103825260228152602001806150266022913960400191505060405180910390fd5b600d818154811061296457fe5b906000526020600020906006020160030160009054906101000a900460ff166129f5576040517f08c379a00000000000000000000000000000000000000000000000000000000081526004018080602001828103825260168152602001807f53657373696f6e206973206e6f742072756e6e696e670000000000000000000081525060200191505060405180910390fd5b6001600b8381548110612a0457fe5b906000526020600020906003020160000160006101000a81548160ff02191690836003811115612a3057fe5b02179055506000600f6040518060600160405280600b8681548110612a5157fe5b9060005260206000209060030201600201548152602001848152602001858152509080600181540180825580915050906001820390600052602060002090600302016000909192909190915060008201518160000155602082015181600101556040820151816002015550509050600c6000600b8581548110612ad057fe5b906000526020600020906003020160020154815260200190815260200160002081908060018154018082558091505090600182039060005260206000200160009091929091909150555060116000838152602001908152602001600020819080600181540180825580915050906001820390600052602060002001600090919290919091505550612bbd6009600b8581548110612b6957fe5b90600052602060002090600302016002015481548110612b8557fe5b906000526020600020906002020160000160009054906101000a900473ffffffffffffffffffffffffffffffffffffffff1682614568565b3373ffffffffffffffffffffffffffffffffffffffff167f8ff1c8f5cb1df0249bf70c73b18ee5dfd49ead0c90688e2ddb8cdb691c496acb846040518082815260200191505060405180910390a2505050565b565b6000806001600084815260200190815260200160002060009054906101000a900473ffffffffffffffffffffffffffffffffffffffff169050600073ffffffffffffffffffffffffffffffffffffffff168173ffffffffffffffffffffffffffffffffffffffff161415612cd1576040517f08c379a0000000000000000000000000000000000000000000000000000000008152600401808060200182810382526029815260200180614ffd6029913960400191505060405180910390fd5b80915050919050565b6000815111612d51576040517f08c379a00000000000000000000000000000000000000000000000000000000081526004018080602001828103825260208152602001807f50726f66696c65205552492073686f756c64206e6f7420626520656d7074792e81525060200191505060405180910390fd5b6000600a60003373ffffffffffffffffffffffffffffffffffffffff1673ffffffffffffffffffffffffffffffffffffffff1681526020019081526020016000205414612e06576040517f08c379a00000000000000000000000000000000000000000000000000000000081526004018080602001828103825260198152602001807f5475746f7220616c726561647920726567697374657265642e0000000000000081525060200191505060405180910390fd5b6000600960405180604001604052803373ffffffffffffffffffffffffffffffffffffffff168152602001848152509080600181540180825580915050906001820390600052602060002090600202016000909192909190915060008201518160000160006101000a81548173ffffffffffffffffffffffffffffffffffffffff021916908373ffffffffffffffffffffffffffffffffffffffff1602179055506020820151816001019080519060200190612ec3929190614dba565b505050905060018103600a60003373ffffffffffffffffffffffffffffffffffffffff1673ffffffffffffffffffffffffffffffffffffffff168152602001908152602001600020819055505050565b60008073ffffffffffffffffffffffffffffffffffffffff168273ffffffffffffffffffffffffffffffffffffffff161415612f9a576040517f08c379a000000000000000000000000000000000000000000000000000000000815260040180806020018281038252602a815260200180614fd3602a913960400191505060405180910390fd5b612fe1600360008473ffffffffffffffffffffffffffffffffffffffff1673ffffffffffffffffffffffffffffffffffffffff168152602001908152602001600020614780565b9050919050565b612ff061344c565b613062576040517f08c379a00000000000000000000000000000000000000000000000000000000081526004018080602001828103825260208152602001807f4f776e61626c653a2063616c6c6572206973206e6f7420746865206f776e657281525060200191505060405180910390fd5b600073ffffffffffffffffffffffffffffffffffffffff16600860009054906101000a900473ffffffffffffffffffffffffffffffffffffffff1673ffffffffffffffffffffffffffffffffffffffff167f8be0079c531659141344cd1fd0a4f28419497f9722a3daafe3b4186f6b6457e060405160405180910390a36000600860006101000a81548173ffffffffffffffffffffffffffffffffffffffff021916908373ffffffffffffffffffffffffffffffffffffffff160217905550565b6060600d828154811061313257fe5b906000526020600020906006020160020180548060200260200160405190810160405280929190818152602001828054801561318d57602002820191906000526020600020905b815481526020019060010190808311613179575b50505050509050919050565b601260149054906101000a900460ff1681565b60606000600a60008473ffffffffffffffffffffffffffffffffffffffff1673ffffffffffffffffffffffffffffffffffffffff168152602001908152602001600020549050600c600082815260200190815260200160002080548060200260200160405190810160405280929190818152602001828054801561324f57602002820191906000526020600020905b81548152602001906001019080831161323b575b5050505050915050919050565b600b818154811061326957fe5b90600052602060002090600302016000915090508060000160009054906101000a900460ff16908060010154908060020154905083565b600d81815481106132ad57fe5b9060005260206000209060060201600091509050806000015490806001018054600181600116156101000203166002900480601f01602080910402602001604051908101604052809291908181526020018280546001816001161561010002031660029004801561335f5780601f106133345761010080835404028352916020019161335f565b820191906000526020600020905b81548152906001019060200180831161334257829003601f168201915b5050505050908060030160009054906101000a900460ff1690806004015490806005018054600181600116156101000203166002900480601f0160208091040260200160405190810160405280929190818152602001828054600181600116156101000203166002900480156134165780601f106133eb57610100808354040283529160200191613416565b820191906000526020600020905b8154815290600101906020018083116133f957829003601f168201915b5050505050905085565b565b6000600860009054906101000a900473ffffffffffffffffffffffffffffffffffffffff16905090565b6000600860009054906101000a900473ffffffffffffffffffffffffffffffffffffffff1673ffffffffffffffffffffffffffffffffffffffff1661348f614211565b73ffffffffffffffffffffffffffffffffffffffff1614905090565b606060068054600181600116156101000203166002900480601f0160208091040260200160405190810160405280929190818152602001828054600181600116156101000203166002900480156135435780601f1061351857610100808354040283529160200191613543565b820191906000526020600020905b81548152906001019060200180831161352657829003601f168201915b5050505050905090565b600d818154811061355a57fe5b906000526020600020906006020160000154600a60003373ffffffffffffffffffffffffffffffffffffffff1673ffffffffffffffffffffffffffffffffffffffff1681526020019081526020016000205414613602576040517f08c379a00000000000000000000000000000000000000000000000000000000081526004018080602001828103825260228152602001806150266022913960400191505060405180910390fd5b600d818154811061360f57fe5b906000526020600020906006020160030160009054906101000a900460ff1615600d828154811061363c57fe5b906000526020600020906006020160030160006101000a81548160ff021916908315150217905550803373ffffffffffffffffffffffffffffffffffffffff167fe0bd549884d6be9a8162c0a6068c65f6ece0c544934a3e3d9a81bfcd39aadc88600d84815481106136aa57fe5b906000526020600020906006020160030160009054906101000a900460ff16604051808215151515815260200191505060405180910390a350565b601060205281600052604060002081815481106136fe57fe5b90600052602060002001600091509150505481565b61371b614211565b73ffffffffffffffffffffffffffffffffffffffff168273ffffffffffffffffffffffffffffffffffffffff1614156137bc576040517f08c379a00000000000000000000000000000000000000000000000000000000081526004018080602001828103825260198152602001807f4552433732313a20617070726f766520746f2063616c6c65720000000000000081525060200191505060405180910390fd5b80600460006137c9614211565b73ffffffffffffffffffffffffffffffffffffffff1673ffffffffffffffffffffffffffffffffffffffff16815260200190815260200160002060008473ffffffffffffffffffffffffffffffffffffffff1673ffffffffffffffffffffffffffffffffffffffff16815260200190815260200160002060006101000a81548160ff0219169083151502179055508173ffffffffffffffffffffffffffffffffffffffff16613876614211565b73ffffffffffffffffffffffffffffffffffffffff167f17307eab39ab6107e8899845ad3d59bd9653f200f220920489ca2b5937696c3183604051808215151515815260200191505060405180910390a35050565b6138dc6138d6614211565b83614219565b613931576040517f08c379a00000000000000000000000000000000000000000000000000000000081526004018080602001828103825260318152602001806150ed6031913960400191505060405180910390fd5b61393d8484848461478e565b50505050565b606061394e8261419f565b6139a3576040517f08c379a000000000000000000000000000000000000000000000000000000000815260040180806020018281038252602f81526020018061509d602f913960400191505060405180910390fd5b600760008381526020019081526020016000208054600181600116156101000203166002900480601f016020809104026020016040519081016040528092919081815260200182805460018160011615610100020316600290048015613a4a5780601f10613a1f57610100808354040283529160200191613a4a565b820191906000526020600020905b815481529060010190602001808311613a2d57829003601f168201915b50505050509050919050565b600e6020528160005260406000208181548110613a6f57fe5b90600052602060002001600091509150505481565b600f8181548110613a9157fe5b90600052602060002090600302016000915090508060000154908060010154908060020154905083565b613ac361344c565b613b35576040517f08c379a00000000000000000000000000000000000000000000000000000000081526004018080602001828103825260208152602001807f4f776e61626c653a2063616c6c6572206973206e6f7420746865206f776e657281525060200191505060405180910390fd5b601260149054906101000a900460ff1615601260146101000a81548160ff021916908315150217905550565b6000600460008473ffffffffffffffffffffffffffffffffffffffff1673ffffffffffffffffffffffffffffffffffffffff16815260200190815260200160002060008373ffffffffffffffffffffffffffffffffffffffff1673ffffffffffffffffffffffffffffffffffffffff16815260200190815260200160002060009054906101000a900460ff16905092915050565b6000806000613c02614e87565b600f8581548110613c0f57fe5b906000526020600020906003020160405180606001604052908160008201548152602001600182015481526020016002820154815250509050806000015181602001518260400151935093509350509193909250565b6000600d8381548110613c7457fe5b9060005260206000209060060201600001541415613cfa576040517f08c379a00000000000000000000000000000000000000000000000000000000081526004018080602001828103825260158152602001807f53657373696f6e206e6f7420656e6c69737465642e000000000000000000000081525060200191505060405180910390fd5b600d8281548110613d0757fe5b906000526020600020906006020160030160009054906101000a900460ff16613d98576040517f08c379a00000000000000000000000000000000000000000000000000000000081526004018080602001828103825260178152602001807f53657373696f6e206973206e6f742072756e6e696e672e00000000000000000081525060200191505060405180910390fd5b6000600a60003373ffffffffffffffffffffffffffffffffffffffff1673ffffffffffffffffffffffffffffffffffffffff168152602001908152602001600020541415613e31576040517f08c379a000000000000000000000000000000000000000000000000000000000815260040180806020018281038252602281526020018061511e6022913960400191505060405180910390fd5b6000815111613ea8576040517f08c379a000000000000000000000000000000000000000000000000000000000815260040180806020018281038252601c8152602001807f44657461696c732073686f756c64206e6f7420626520656d7074792e0000000081525060200191505060405180910390fd5b6000600b604051806060016040528060006003811115613ec457fe5b8152602001858152602001600a60003373ffffffffffffffffffffffffffffffffffffffff1673ffffffffffffffffffffffffffffffffffffffff168152602001908152602001600020548152509080600181540180825580915050906001820390600052602060002090600302016000909192909190915060008201518160000160006101000a81548160ff02191690836003811115613f6157fe5b0217905550602082015181600101556040820151816002015550509050600d8381548110613f8b57fe5b9060005260206000209060060201600201600182039080600181540180825580915050906001820390600052602060002001600090919290919091505550600c6000600a60003373ffffffffffffffffffffffffffffffffffffffff1673ffffffffffffffffffffffffffffffffffffffff168152602001908152602001600020548152602001908152602001600020600182039080600181540180825580915050906001820390600052602060002001600090919290919091505550823373ffffffffffffffffffffffffffffffffffffffff167f4f8232dabe03dba77798f9da2c509689c83346e536beb88b66b4619e49594eea846040518080602001828103825283818151815260200191508051906020019080838360005b838110156140c25780820151818401526020810190506140a7565b50505050905090810190601f1680156140ef5780820380516001836020036101000a031916815260200191505b509250505060405180910390a3505050565b61410961344c565b61417b576040517f08c379a00000000000000000000000000000000000000000000000000000000081526004018080602001828103825260208152602001807f4f776e61626c653a2063616c6c6572206973206e6f7420746865206f776e657281525060200191505060405180910390fd5b61418481614800565b50565b600a6020528060005260406000206000915090505481565b6000806001600084815260200190815260200160002060009054906101000a900473ffffffffffffffffffffffffffffffffffffffff169050600073ffffffffffffffffffffffffffffffffffffffff168173ffffffffffffffffffffffffffffffffffffffff161415915050919050565b600033905090565b60006142248261419f565b614279576040517f08c379a000000000000000000000000000000000000000000000000000000000815260040180806020018281038252602c815260200180614f6f602c913960400191505060405180910390fd5b600061428483612c12565b90508073ffffffffffffffffffffffffffffffffffffffff168473ffffffffffffffffffffffffffffffffffffffff1614806142f357508373ffffffffffffffffffffffffffffffffffffffff166142db8461173a565b73ffffffffffffffffffffffffffffffffffffffff16145b8061430457506143038185613b61565b5b91505092915050565b8273ffffffffffffffffffffffffffffffffffffffff1661432d82612c12565b73ffffffffffffffffffffffffffffffffffffffff1614614399576040517f08c379a00000000000000000000000000000000000000000000000000000000081526004018080602001828103825260298152602001806150746029913960400191505060405180910390fd5b600073ffffffffffffffffffffffffffffffffffffffff168273ffffffffffffffffffffffffffffffffffffffff16141561441f576040517f08c379a0000000000000000000000000000000000000000000000000000000008152600401808060200182810382526024815260200180614f4b6024913960400191505060405180910390fd5b61442881614946565b61446f600360008573ffffffffffffffffffffffffffffffffffffffff1673ffffffffffffffffffffffffffffffffffffffff168152602001908152602001600020614a04565b6144b6600360008473ffffffffffffffffffffffffffffffffffffffff1673ffffffffffffffffffffffffffffffffffffffff168152602001908152602001600020614a27565b816001600083815260200190815260200160002060006101000a81548173ffffffffffffffffffffffffffffffffffffffff021916908373ffffffffffffffffffffffffffffffffffffffff160217905550808273ffffffffffffffffffffffffffffffffffffffff168473ffffffffffffffffffffffffffffffffffffffff167fddf252ad1be2c89b69c2b068fc378daa952ba7f163c4a11628f55a4df523b3ef60405160405180910390a4505050565b600073ffffffffffffffffffffffffffffffffffffffff168273ffffffffffffffffffffffffffffffffffffffff16141561460b576040517f08c379a00000000000000000000000000000000000000000000000000000000081526004018080602001828103825260208152602001807f4552433732313a206d696e7420746f20746865207a65726f206164647265737381525060200191505060405180910390fd5b6146148161419f565b15614687576040517f08c379a000000000000000000000000000000000000000000000000000000000815260040180806020018281038252601c8152602001807f4552433732313a20746f6b656e20616c7265616479206d696e7465640000000081525060200191505060405180910390fd5b816001600083815260200190815260200160002060006101000a81548173ffffffffffffffffffffffffffffffffffffffff021916908373ffffffffffffffffffffffffffffffffffffffff160217905550614720600360008473ffffffffffffffffffffffffffffffffffffffff1673ffffffffffffffffffffffffffffffffffffffff168152602001908152602001600020614a27565b808273ffffffffffffffffffffffffffffffffffffffff16600073ffffffffffffffffffffffffffffffffffffffff167fddf252ad1be2c89b69c2b068fc378daa952ba7f163c4a11628f55a4df523b3ef60405160405180910390a45050565b600081600001549050919050565b61479984848461430d565b6147a584848484614a3d565b6147fa576040517f08c379a0000000000000000000000000000000000000000000000000000000008152600401808060200182810382526032815260200180614ef36032913960400191505060405180910390fd5b50505050565b600073ffffffffffffffffffffffffffffffffffffffff168173ffffffffffffffffffffffffffffffffffffffff161415614886576040517f08c379a0000000000000000000000000000000000000000000000000000000008152600401808060200182810382526026815260200180614f256026913960400191505060405180910390fd5b8073ffffffffffffffffffffffffffffffffffffffff16600860009054906101000a900473ffffffffffffffffffffffffffffffffffffffff1673ffffffffffffffffffffffffffffffffffffffff167f8be0079c531659141344cd1fd0a4f28419497f9722a3daafe3b4186f6b6457e060405160405180910390a380600860006101000a81548173ffffffffffffffffffffffffffffffffffffffff021916908373ffffffffffffffffffffffffffffffffffffffff16021790555050565b600073ffffffffffffffffffffffffffffffffffffffff166002600083815260200190815260200160002060009054906101000a900473ffffffffffffffffffffffffffffffffffffffff1673ffffffffffffffffffffffffffffffffffffffff1614614a015760006002600083815260200190815260200160002060006101000a81548173ffffffffffffffffffffffffffffffffffffffff021916908373ffffffffffffffffffffffffffffffffffffffff1602179055505b50565b614a1c60018260000154614c2d90919063ffffffff16565b816000018190555050565b6001816000016000828254019250508190555050565b6000614a5e8473ffffffffffffffffffffffffffffffffffffffff16614c77565b614a6b5760019050614c25565b60008473ffffffffffffffffffffffffffffffffffffffff1663150b7a02614a91614211565b8887876040518563ffffffff1660e01b8152600401808573ffffffffffffffffffffffffffffffffffffffff1673ffffffffffffffffffffffffffffffffffffffff1681526020018473ffffffffffffffffffffffffffffffffffffffff1673ffffffffffffffffffffffffffffffffffffffff16815260200183815260200180602001828103825283818151815260200191508051906020019080838360005b83811015614b4d578082015181840152602081019050614b32565b50505050905090810190601f168015614b7a5780820380516001836020036101000a031916815260200191505b5095505050505050602060405180830381600087803b158015614b9c57600080fd5b505af1158015614bb0573d6000803e3d6000fd5b505050506040513d6020811015614bc657600080fd5b8101908080519060200190929190505050905063150b7a0260e01b7bffffffffffffffffffffffffffffffffffffffffffffffffffffffff1916817bffffffffffffffffffffffffffffffffffffffffffffffffffffffff1916149150505b949350505050565b6000614c6f83836040518060400160405280601e81526020017f536166654d6174683a207375627472616374696f6e206f766572666c6f770000815250614cc2565b905092915050565b60008060007fc5d2460186f7233c927e7db2dcc703c0e500b653ca82273b7bfad8045d85a47060001b9050833f91506000801b8214158015614cb95750808214155b92505050919050565b6000838311158290614d6f576040517f08c379a00000000000000000000000000000000000000000000000000000000081526004018080602001828103825283818151815260200191508051906020019080838360005b83811015614d34578082015181840152602081019050614d19565b50505050905090810190601f168015614d615780820380516001836020036101000a031916815260200191505b509250505060405180910390fd5b5060008385039050809150509392505050565b6040518060c0016040528060008152602001606081526020016060815260200160001515815260200160008152602001606081525090565b828054600181600116156101000203166002900490600052602060002090601f016020900481019282601f10614dfb57805160ff1916838001178555614e29565b82800160010185558215614e29579182015b82811115614e28578251825591602001919060010190614e0d565b5b509050614e369190614ea8565b5090565b828054828255906000526020600020908101928215614e76579160200282015b82811115614e75578251825591602001919060010190614e5a565b5b509050614e839190614ea8565b5090565b60405180606001604052806000815260200160008152602001600081525090565b614eca91905b80821115614ec6576000816000905550600101614eae565b5090565b9056fe53747564656e74206e6f7420746865206f776e6572206f66207468697320726571756573744552433732313a207472616e7366657220746f206e6f6e20455243373231526563656976657220696d706c656d656e7465724f776e61626c653a206e6577206f776e657220697320746865207a65726f20616464726573734552433732313a207472616e7366657220746f20746865207a65726f20616464726573734552433732313a206f70657261746f7220717565727920666f72206e6f6e6578697374656e7420746f6b656e4552433732313a20617070726f76652063616c6c6572206973206e6f74206f776e6572206e6f7220617070726f76656420666f7220616c6c4552433732313a2062616c616e636520717565727920666f7220746865207a65726f20616464726573734552433732313a206f776e657220717565727920666f72206e6f6e6578697374656e7420746f6b656e55736572206e6f7420746865207475746f72206f6620746869732073657373696f6e4552433732313a20617070726f76656420717565727920666f72206e6f6e6578697374656e7420746f6b656e4552433732313a207472616e73666572206f6620746f6b656e2074686174206973206e6f74206f776e4552433732314d657461646174613a2055524920717565727920666f72206e6f6e6578697374656e7420746f6b656e4552433732313a20617070726f76616c20746f2063757272656e74206f776e65724552433732313a207472616e736665722063616c6c6572206973206e6f74206f776e6572206e6f7220617070726f76656453747564656e742061646472657373206973206e6f7420726567697374657265642ea265627a7a72315820f8fd19d7429e423be3c9a618910578a046e987cf0d4a645ef8a934efdbb98e9764736f6c634300050c0032",
  "source": "pragma solidity^0.5.0;\n\n\n\n/// @title Thuto smart contract\n/// @author Helda Mandlate\n\n/// @dev import contracts from openzeppelin related to ownable and ERC20, ERC721 tokens\nimport \"@openzeppelin/contracts/token/ERC20/ERC20.sol\";\nimport \"@openzeppelin/contracts/token/ERC721/ERC721Metadata.sol\";\nimport \"@openzeppelin/contracts/ownership/Ownable.sol\";\n\n\n//import \"github.com/OpenZeppelin/openzeppelin-solidity/contracts/token/ERC20/ERC20.sol\";\n//import \"github.com/OpenZeppelin/openzeppelin-solidity/contracts/token/ERC721/ERC721Metadata.sol\";\n\n/// @notice contract begins here\ncontract thuto is ERC721Metadata, Ownable {\n    /// @notice Creates a struct for users of the plaform, needs their Ethereum address and profile URL\n    struct User {\n        address owned_address;\n        string profile_uri;\n    }\n    /// @notice Creates an array of users that are registered\n    User[] public users;\n\n    /// @notice The mapping below maps all users' addresses to their userID\n    mapping (address => uint256) public userAddresses ;\n\n    /// @notice Creates session defined type\n    enum sessionStatus {Pending, Accepted, Rejected, Cancelled}\n\n    /// @notice Creates a struct for all requests for tutoring, one of the enum parameters, session Id and student Id\n    struct Request {\n        sessionStatus status;\n        uint256 session_Id;\n        uint256 student_Id;\n    }\n    /// @notice Creates an array of requests that have been placed\n    Request[] public requests;\n\n    /// @notice The mapping below maps all requesters' IDs to their studentId\n    mapping(uint256 => uint256[]) public requestOwners;\n\n    /**\n    @notice Creates a struct for all sessions\n    @param tutor_Id The Id of tutors\n    @param session_uri session URL\n    @param session_requests session requests\n    @param isRunning status of the session, True if session is currently running, false if otherwise\n    @param tutoring_price The value of the tutoring session\n    */\n    struct Session {\n        uint256 tutor_Id;\n        string session_uri;\n        uint256[] session_requests;\n        bool isRunning;\n        uint256 tutoring_price;\n        string details;\n    }\n    /// @notice Creates an array of sessions for every tutoring session available\n    Session[] public sessions;\n\n    /// @notice The mapping below will map the addresses of all the successful student addresses to the ID of their owned users, session owners\n    mapping(uint256 => uint256[]) public sessionOwners;\n\n    /**\n    @notice Creates a struct for licencing\n    @param student_Id of each tutoring session student\n    @param session_Id of the tutoring session being requested\n    @param request_Id The request Id for the session\n    */\n    struct LessonDesign {\n        uint256 student_Id;\n        uint256 session_Id;\n        uint256 request_Id;\n    }\n\n    /// @notice Creates an array of accepted lessons\n    LessonDesign[] public lessons;\n    /// @notice Mapping of licence Id to get the licence owners\n    mapping(uint256 => uint256[]) public sessionsOwners;\n    /// @notice Mapping of licence Id to get the session Id\n    mapping(uint256 => uint256[]) public sessionRequests;\n\n    // Setting up events\n    event newSession(\n        address indexed _from,\n        string _session_uri,\n        uint256 _tutoring_price,\n        string _details\n    );\n\n    event newRequest(\n        address indexed _from,\n        uint256 indexed _session_Id,\n        string _details\n    );\n\n    event acceptedRequest(\n        address indexed _from,\n        uint256 _id\n    );\n\n    event rejectedRequest(\n        address indexed _from,\n        uint256 _id\n    );\n\n    event cancelledRequest(\n        address indexed _from,\n        uint256 _id\n    );\n\n    event ChangeTutoringPrice(\n        address indexed _from,\n        uint256 indexed _session_Id,\n        uint256 _tutoring_price\n    );\n\n    event ChangeRunningStatus(\n        address indexed _from,\n        uint256 indexed _session_Id,\n        bool _isRunning\n    );\n\n    /// @dev ERC20 is now daiContract\n    ERC20 daiContract;\n    /// @dev The constructor below reserves tutor 0 for all unregistered users\n    /// @param _daiContractAddress DAI contract address\n    constructor(address _daiContractAddress) public ERC721Metadata(\"Thuto Licence\", \"THUTO\"){\n        users.push(User(address(0), \"\"));\n        lessons.push(LessonDesign(0, 0, 0));\n        daiContract = ERC20(_daiContractAddress);\n    }\n\n    /// @notice This function registers a tutor on the platform by taking in their profile URL\n    /// @param _profile_uri tutor profile url\n    /// @dev If the tutor's address is in position 0 of the userAddresses array, they are unregistered\n    /// @dev Create an instance of the tutor and add the Id to their address\n    function registerUser(string memory _profile_uri) public {\n        require(bytes(_profile_uri).length > 0, \"Profile URI should not be empty.\");\n        require(userAddresses[msg.sender]==0,\"Tutor already registered.\");\n        uint256 id = users.push(User(msg.sender,_profile_uri));\n        userAddresses[msg.sender] = id - 1;\n    }\n\n    /// @notice This function creates a session on the system, with blank arrays for session requests and owners\n    /// @notice since no one has requested a session for or bought a licence yet\n    /// @dev The tutor only specifies the flat rate\n    /// @dev Add instance to the respective arrays\n\n    function addSession(\n        string memory _session_uri,\n        bool _isRunning,\n        uint256 _tutoring_price, string memory _details) public {\n        require(bytes(_session_uri).length > 0, \"Session URI should not be empty.\");\n        require(userAddresses[msg.sender] != 0, \"Tutor address is not registered.\");\n        require(_tutoring_price > 0, \"Sell price not specified.\");\n        require(bytes(_details).length > 0, \"Details should not be empty.\");\n\n        uint256 _tutor_Id = userAddresses[msg.sender];\n        uint256[] memory _session_requests;\n        Session memory _session = Session(\n            _tutor_Id,\n            _session_uri,\n            _session_requests,\n            _isRunning,\n            _tutoring_price,\n            _details);\n        uint256 _id = sessions.push(_session);\n        sessionOwners[_tutor_Id].push(_id - 1);\n\n        emit newSession(msg.sender,_session_uri, _tutoring_price, _details);\n    }\n\n    /// @notice This function creates a new request for a particular session\n    /// @param _details for the session\n    /// @param _session_Id is the index for the session Id\n    /// @dev lesson Id is added to list of requested sessions\n    function requestSession(uint256 _session_Id, string memory _details) public {\n        require(sessions[_session_Id].tutor_Id != 0, \"Session not enlisted.\");\n        require(sessions[_session_Id].isRunning, \"Session is not running.\");\n        require(userAddresses[msg.sender] != 0, \"Student address is not registered.\");\n        require(bytes(_details).length > 0, \"Details should not be empty.\");\n        uint256 _id = requests.push(Request(sessionStatus.Pending, _session_Id, userAddresses[msg.sender]));\n        sessions[_session_Id].session_requests.push(_id - 1);\n        requestOwners[userAddresses[msg.sender]].push(_id - 1);\n\n        emit newRequest(msg.sender, _session_Id, _details);\n        \n    }\n    /**\n    @param _id is the request Id\n    @notice This function allows the tutor to accept the requests\n    @dev parameters of licence design: student_Id, session id, request_Id\n    @notice This function allows the tutor to reject the requests\n    */\n    function acceptRequest(uint256 _id) public {\n        uint256 _session_Id = requests[_id].session_Id;\n        require(userAddresses[msg.sender] == sessions[_session_Id].tutor_Id, \"User not the tutor of this session\");\n        require(sessions[_session_Id].isRunning, \"Session is not running\");\n        requests[_id].status = sessionStatus.Accepted;\n\n\n        uint256 _lesson_Id = lessons.push(LessonDesign(requests[_id].student_Id, _session_Id, _id));\n        requestOwners[requests[_id].student_Id].push(_lesson_Id);\n        sessionRequests[_session_Id].push(_lesson_Id);\n        _mint(users[requests[_id].student_Id].owned_address, _lesson_Id);\n        emit acceptedRequest(msg.sender,_id);\n    }\n\n    /// @notice This function allows the tutor to reject the bids\n    /// @param _id is the Request Id\n    function rejectRequest(uint256 _id) public {\n        uint256 _session_Id = requests[_id].session_Id;\n        require(userAddresses[msg.sender] == sessions[_session_Id].tutor_Id, \"User not the tutor of this session\");\n        require(sessions[_session_Id].isRunning, \"Session not running\");\n        requests[_id].status = sessionStatus.Rejected;\n\n        emit rejectedRequest(msg.sender,_id);\n    }\n\n    /// @notice This function allows the student to cancel the requests\n    /// @param _id is the bid Id\n    function cancelRequest(uint256 _id) public {\n        //uint256 _session_Id = requests[_id].session_Id;\n        // uint256 _session_Id = requests[_id].session_Id;\n        uint256 _request_Id = requests[_id].student_Id;\n\n        //uint256 _request_Id = sessions[_id].request_Id;\n        require(userAddresses[msg.sender] == requests[_request_Id].student_Id, \"Student not the owner of this request\");\n        requests[_id].status = sessionStatus.Cancelled;\n\n        emit cancelledRequest(msg.sender,_id);\n    }\n\n\n    /// @notice This function allows the tutor to change the sell price\n    /// @param _session_Id session id number\n    /// @param _tutoring_price for the session\n    function changeTutoringPrice(uint256 _session_Id, uint256 _tutoring_price) public {\n        require(userAddresses[msg.sender] == sessions[_session_Id].tutor_Id, \"User not the tutor of this session\");\n        sessions[_session_Id].tutoring_price = _tutoring_price;\n\n        emit ChangeTutoringPrice(msg.sender, _session_Id, _tutoring_price);\n    }\n\n    /// @notice This function allows the tutor to change the running status\n    /// @param _session_Id session id number\n    function changeRunningStatus(uint256 _session_Id) public {\n        require(userAddresses[msg.sender] == sessions[_session_Id].tutor_Id, \"User not the tutor of this session\");\n        sessions[_session_Id].isRunning = !sessions[_session_Id].isRunning;\n\n        emit ChangeRunningStatus(msg.sender, _session_Id, sessions[_session_Id].isRunning);\n    }\n\n    /// @return This function allows anyone to get the list of sessions based on the address of the tutor\n    /// @param _address eth address for the tutor\n    function getSessions(address _address) public view returns(uint256[] memory) {\n        uint256 _tutor_Id = userAddresses[_address];\n        return sessionOwners[_tutor_Id];\n    }\n\n    /// @return This function allows anyone to get the list of requests based on address of the tutor\n    function getRequests(address _address) public view returns(uint256[] memory) {\n        uint256 _userAddress = userAddresses[_address];\n        return requestOwners[_userAddress];\n    }\n\n    /// @return This function allows anyone to get list of requests per session\n    /// @param _session_Id session id number\n    function getSessionRequests(uint256 _session_Id) public view returns(uint256[] memory) {\n        return sessions[_session_Id].session_requests;\n    }\n\n    /// @return This function allows the return of the total number of sessions\n    function getSessionLength() public view returns(uint count) {\n        return sessions.length;\n    }\n\n    /// @return Returns information about a spesific session ID\n    /// @param _session_Id session id number\n    function getSession(uint256 _session_Id) public view returns(\n        uint256,\n        string memory,\n        uint256[] memory,\n        bool,\n        uint256,\n        string memory){\n        Session memory _session = sessions[_session_Id];\n        return (\n        _session.tutor_Id,\n        _session.session_uri,\n        _session.session_requests,\n        _session.isRunning,\n        _session.tutoring_price,\n        _session.details);\n    }\n\n    /// @return get the lessons per owner\n    /// @param _address of the account holder\n    function getLessonForAddress(address _address) public view returns(uint256[] memory) {\n        uint256 _userNumber = userAddresses[_address];\n        return requestOwners[_userNumber];\n    }\n\n    function getLessons(uint256 _lessonId) public view returns(uint256, uint256, uint256){\n        LessonDesign memory _lesson = lessons[_lessonId];\n        return (\n        _lesson.student_Id,\n        _lesson.session_Id,\n        _lesson.request_Id);\n    }\n\n\n    bool public stopped = false;\n\n\n    modifier haltInEmergency() {\n        if ( !stopped) _;\n    }\n\n    modifier enableInEmergency() {\n        if ( stopped) _;\n    }\n\n    function toggleContractStopped() public onlyOwner {\n        stopped = !stopped;\n    }\n\n    function registerUserFailed() public {\n\n    }\n\n    function userListNotChanged() public {\n\n    }\n\n\n\n}",
  "sourcePath": "/Users/user/Documents/GitHub/ConsenSys-Academy-Project/contracts/thuto.sol",
  "compiler": {
    "name": "solc",
    "version": "0.5.12+commit.7709ece9.Emscripten.clang"
  },
  "schemaVersion": "3.0.18",
  "updatedAt": "2019-11-14T21:17:01.524Z",
  "devdoc": {
    "methods": {
      "acceptRequest(uint256)": {
        "details": "parameters of licence design: student_Id, session id, request_Id",
        "params": {
          "_id": "is the request Id"
        }
      },
      "addSession(string,bool,uint256,string)": {
        "details": "The tutor only specifies the flat rateAdd instance to the respective arrays"
      },
      "approve(address,uint256)": {
        "details": "Approves another address to transfer the given token ID The zero address indicates there is no approved address. There can only be one approved address per token at a given time. Can only be called by the token owner or an approved operator.",
        "params": {
          "to": "address to be approved for the given token ID",
          "tokenId": "uint256 ID of the token to be approved"
        }
      },
      "balanceOf(address)": {
        "details": "Gets the balance of the specified address.",
        "params": {
          "owner": "address to query the balance of"
        },
        "return": "uint256 representing the amount owned by the passed address"
      },
      "cancelRequest(uint256)": {
        "params": {
          "_id": "is the bid Id"
        }
      },
      "changeRunningStatus(uint256)": {
        "params": {
          "_session_Id": "session id number"
        }
      },
      "changeTutoringPrice(uint256,uint256)": {
        "params": {
          "_session_Id": "session id number",
          "_tutoring_price": "for the session"
        }
      },
      "constructor": {
        "details": "The constructor below reserves tutor 0 for all unregistered users",
        "params": {
          "_daiContractAddress": "DAI contract address"
        }
      },
      "getApproved(uint256)": {
        "details": "Gets the approved address for a token ID, or zero if no address set Reverts if the token ID does not exist.",
        "params": {
          "tokenId": "uint256 ID of the token to query the approval of"
        },
        "return": "address currently approved for the given token ID"
      },
      "getLessonForAddress(address)": {
        "params": {
          "_address": "of the account holder"
        },
        "return": "get the lessons per owner"
      },
      "getRequests(address)": {
        "return": "This function allows anyone to get the list of requests based on address of the tutor"
      },
      "getSession(uint256)": {
        "params": {
          "_session_Id": "session id number"
        },
        "return": "Returns information about a spesific session ID"
      },
      "getSessionLength()": {
        "return": "This function allows the return of the total number of sessions"
      },
      "getSessionRequests(uint256)": {
        "params": {
          "_session_Id": "session id number"
        },
        "return": "This function allows anyone to get list of requests per session"
      },
      "getSessions(address)": {
        "params": {
          "_address": "eth address for the tutor"
        },
        "return": "This function allows anyone to get the list of sessions based on the address of the tutor"
      },
      "isApprovedForAll(address,address)": {
        "details": "Tells whether an operator is approved by a given owner.",
        "params": {
          "operator": "operator address which you want to query the approval of",
          "owner": "owner address which you want to query the approval of"
        },
        "return": "bool whether the given operator is approved by the given owner"
      },
      "isOwner()": {
        "details": "Returns true if the caller is the current owner."
      },
      "name()": {
        "details": "Gets the token name.",
        "return": "string representing the token name"
      },
      "owner()": {
        "details": "Returns the address of the current owner."
      },
      "ownerOf(uint256)": {
        "details": "Gets the owner of the specified token ID.",
        "params": {
          "tokenId": "uint256 ID of the token to query the owner of"
        },
        "return": "address currently marked as the owner of the given token ID"
      },
      "registerUser(string)": {
        "details": "If the tutor's address is in position 0 of the userAddresses array, they are unregisteredCreate an instance of the tutor and add the Id to their address",
        "params": {
          "_profile_uri": "tutor profile url"
        }
      },
      "rejectRequest(uint256)": {
        "params": {
          "_id": "is the Request Id"
        }
      },
      "renounceOwnership()": {
        "details": "Leaves the contract without owner. It will not be possible to call `onlyOwner` functions anymore. Can only be called by the current owner.     * NOTE: Renouncing ownership will leave the contract without an owner, thereby removing any functionality that is only available to the owner."
      },
      "requestSession(uint256,string)": {
        "details": "lesson Id is added to list of requested sessions",
        "params": {
          "_details": "for the session",
          "_session_Id": "is the index for the session Id"
        }
      },
      "safeTransferFrom(address,address,uint256)": {
        "details": "Safely transfers the ownership of a given token ID to another address If the target address is a contract, it must implement {IERC721Receiver-onERC721Received}, which is called upon a safe transfer, and return the magic value `bytes4(keccak256(\"onERC721Received(address,address,uint256,bytes)\"))`; otherwise, the transfer is reverted. Requires the msg.sender to be the owner, approved, or operator",
        "params": {
          "from": "current owner of the token",
          "to": "address to receive the ownership of the given token ID",
          "tokenId": "uint256 ID of the token to be transferred"
        }
      },
      "safeTransferFrom(address,address,uint256,bytes)": {
        "details": "Safely transfers the ownership of a given token ID to another address If the target address is a contract, it must implement {IERC721Receiver-onERC721Received}, which is called upon a safe transfer, and return the magic value `bytes4(keccak256(\"onERC721Received(address,address,uint256,bytes)\"))`; otherwise, the transfer is reverted. Requires the _msgSender() to be the owner, approved, or operator",
        "params": {
          "_data": "bytes data to send along with a safe transfer check",
          "from": "current owner of the token",
          "to": "address to receive the ownership of the given token ID",
          "tokenId": "uint256 ID of the token to be transferred"
        }
      },
      "setApprovalForAll(address,bool)": {
        "details": "Sets or unsets the approval of a given operator An operator is allowed to transfer all tokens of the sender on their behalf.",
        "params": {
          "approved": "representing the status of the approval to be set",
          "to": "operator address to set the approval"
        }
      },
      "supportsInterface(bytes4)": {
        "details": "See {IERC165-supportsInterface}.     * Time complexity O(1), guaranteed to always use less than 30 000 gas."
      },
      "symbol()": {
        "details": "Gets the token symbol.",
        "return": "string representing the token symbol"
      },
      "tokenURI(uint256)": {
        "details": "Returns an URI for a given token ID. Throws if the token ID does not exist. May return an empty string.",
        "params": {
          "tokenId": "uint256 ID of the token to query"
        }
      },
      "transferFrom(address,address,uint256)": {
        "details": "Transfers the ownership of a given token ID to another address. Usage of this method is discouraged, use {safeTransferFrom} whenever possible. Requires the msg.sender to be the owner, approved, or operator.",
        "params": {
          "from": "current owner of the token",
          "to": "address to receive the ownership of the given token ID",
          "tokenId": "uint256 ID of the token to be transferred"
        }
      },
      "transferOwnership(address)": {
        "details": "Transfers ownership of the contract to a new account (`newOwner`). Can only be called by the current owner."
      }
    }
  },
  "userdoc": {
    "methods": {
      "acceptRequest(uint256)": {
        "notice": "This function allows the tutor to accept the requestsThis function allows the tutor to reject the requests"
      },
      "addSession(string,bool,uint256,string)": {
        "notice": "This function creates a session on the system, with blank arrays for session requests and ownerssince no one has requested a session for or bought a licence yet"
      },
      "cancelRequest(uint256)": {
        "notice": "This function allows the student to cancel the requests"
      },
      "changeRunningStatus(uint256)": {
        "notice": "This function allows the tutor to change the running status"
      },
      "changeTutoringPrice(uint256,uint256)": {
        "notice": "This function allows the tutor to change the sell price"
      },
      "registerUser(string)": {
        "notice": "This function registers a tutor on the platform by taking in their profile URL"
      },
      "rejectRequest(uint256)": {
        "notice": "This function allows the tutor to reject the bids"
      },
      "requestSession(uint256,string)": {
        "notice": "This function creates a new request for a particular session"
      }
    },
    "notice": "contract begins here"
  }
}