{
  "contractName": "thuto",
  "abi": [
    {
      "inputs": [
        {
          "internalType": "address",
          "name": "_daiContractAddress",
          "type": "address"
        }
      ],
      "payable": false,
      "stateMutability": "nonpayable",
      "type": "constructor"
    },
    {
      "anonymous": false,
      "inputs": [
        {
          "indexed": true,
          "internalType": "address",
          "name": "owner",
          "type": "address"
        },
        {
          "indexed": true,
          "internalType": "address",
          "name": "approved",
          "type": "address"
        },
        {
          "indexed": true,
          "internalType": "uint256",
          "name": "tokenId",
          "type": "uint256"
        }
      ],
      "name": "Approval",
      "type": "event"
    },
    {
      "anonymous": false,
      "inputs": [
        {
          "indexed": true,
          "internalType": "address",
          "name": "owner",
          "type": "address"
        },
        {
          "indexed": true,
          "internalType": "address",
          "name": "operator",
          "type": "address"
        },
        {
          "indexed": false,
          "internalType": "bool",
          "name": "approved",
          "type": "bool"
        }
      ],
      "name": "ApprovalForAll",
      "type": "event"
    },
    {
      "anonymous": false,
      "inputs": [
        {
          "indexed": true,
          "internalType": "address",
          "name": "_from",
          "type": "address"
        },
        {
          "indexed": true,
          "internalType": "uint256",
          "name": "_session_Id",
          "type": "uint256"
        },
        {
          "indexed": false,
          "internalType": "bool",
          "name": "_isRunning",
          "type": "bool"
        }
      ],
      "name": "ChangeRunningStatus",
      "type": "event"
    },
    {
      "anonymous": false,
      "inputs": [
        {
          "indexed": true,
          "internalType": "address",
          "name": "_from",
          "type": "address"
        },
        {
          "indexed": true,
          "internalType": "uint256",
          "name": "_session_Id",
          "type": "uint256"
        },
        {
          "indexed": false,
          "internalType": "uint256",
          "name": "_tutoring_price",
          "type": "uint256"
        }
      ],
      "name": "ChangeTutoringPrice",
      "type": "event"
    },
    {
      "anonymous": false,
      "inputs": [
        {
          "indexed": true,
          "internalType": "address",
          "name": "previousOwner",
          "type": "address"
        },
        {
          "indexed": true,
          "internalType": "address",
          "name": "newOwner",
          "type": "address"
        }
      ],
      "name": "OwnershipTransferred",
      "type": "event"
    },
    {
      "anonymous": false,
      "inputs": [
        {
          "indexed": true,
          "internalType": "address",
          "name": "from",
          "type": "address"
        },
        {
          "indexed": true,
          "internalType": "address",
          "name": "to",
          "type": "address"
        },
        {
          "indexed": true,
          "internalType": "uint256",
          "name": "tokenId",
          "type": "uint256"
        }
      ],
      "name": "Transfer",
      "type": "event"
    },
    {
      "anonymous": false,
      "inputs": [
        {
          "indexed": true,
          "internalType": "address",
          "name": "_from",
          "type": "address"
        },
        {
          "indexed": false,
          "internalType": "uint256",
          "name": "_id",
          "type": "uint256"
        }
      ],
      "name": "acceptedRequest",
      "type": "event"
    },
    {
      "anonymous": false,
      "inputs": [
        {
          "indexed": true,
          "internalType": "address",
          "name": "_from",
          "type": "address"
        },
        {
          "indexed": false,
          "internalType": "uint256",
          "name": "_id",
          "type": "uint256"
        }
      ],
      "name": "cancelledRequest",
      "type": "event"
    },
    {
      "anonymous": false,
      "inputs": [
        {
          "indexed": true,
          "internalType": "address",
          "name": "_from",
          "type": "address"
        },
        {
          "indexed": true,
          "internalType": "uint256",
          "name": "_session_Id",
          "type": "uint256"
        },
        {
          "indexed": false,
          "internalType": "string",
          "name": "_details",
          "type": "string"
        }
      ],
      "name": "newRequest",
      "type": "event"
    },
    {
      "anonymous": false,
      "inputs": [
        {
          "indexed": true,
          "internalType": "address",
          "name": "_from",
          "type": "address"
        },
        {
          "indexed": false,
          "internalType": "string",
          "name": "_session_uri",
          "type": "string"
        },
        {
          "indexed": false,
          "internalType": "uint256",
          "name": "_tutoring_price",
          "type": "uint256"
        },
        {
          "indexed": false,
          "internalType": "string",
          "name": "_details",
          "type": "string"
        }
      ],
      "name": "newSession",
      "type": "event"
    },
    {
      "anonymous": false,
      "inputs": [
        {
          "indexed": true,
          "internalType": "address",
          "name": "_from",
          "type": "address"
        },
        {
          "indexed": false,
          "internalType": "uint256",
          "name": "_id",
          "type": "uint256"
        }
      ],
      "name": "rejectedRequest",
      "type": "event"
    },
    {
      "constant": false,
      "inputs": [
        {
          "internalType": "address",
          "name": "to",
          "type": "address"
        },
        {
          "internalType": "uint256",
          "name": "tokenId",
          "type": "uint256"
        }
      ],
      "name": "approve",
      "outputs": [],
      "payable": false,
      "stateMutability": "nonpayable",
      "type": "function"
    },
    {
      "constant": true,
      "inputs": [
        {
          "internalType": "address",
          "name": "owner",
          "type": "address"
        }
      ],
      "name": "balanceOf",
      "outputs": [
        {
          "internalType": "uint256",
          "name": "",
          "type": "uint256"
        }
      ],
      "payable": false,
      "stateMutability": "view",
      "type": "function"
    },
    {
      "constant": true,
      "inputs": [
        {
          "internalType": "uint256",
          "name": "tokenId",
          "type": "uint256"
        }
      ],
      "name": "getApproved",
      "outputs": [
        {
          "internalType": "address",
          "name": "",
          "type": "address"
        }
      ],
      "payable": false,
      "stateMutability": "view",
      "type": "function"
    },
    {
      "constant": true,
      "inputs": [
        {
          "internalType": "address",
          "name": "owner",
          "type": "address"
        },
        {
          "internalType": "address",
          "name": "operator",
          "type": "address"
        }
      ],
      "name": "isApprovedForAll",
      "outputs": [
        {
          "internalType": "bool",
          "name": "",
          "type": "bool"
        }
      ],
      "payable": false,
      "stateMutability": "view",
      "type": "function"
    },
    {
      "constant": true,
      "inputs": [],
      "name": "isOwner",
      "outputs": [
        {
          "internalType": "bool",
          "name": "",
          "type": "bool"
        }
      ],
      "payable": false,
      "stateMutability": "view",
      "type": "function"
    },
    {
      "constant": true,
      "inputs": [
        {
          "internalType": "uint256",
          "name": "",
          "type": "uint256"
        }
      ],
      "name": "lessons",
      "outputs": [
        {
          "internalType": "uint256",
          "name": "student_Id",
          "type": "uint256"
        },
        {
          "internalType": "uint256",
          "name": "session_Id",
          "type": "uint256"
        },
        {
          "internalType": "uint256",
          "name": "request_Id",
          "type": "uint256"
        }
      ],
      "payable": false,
      "stateMutability": "view",
      "type": "function"
    },
    {
      "constant": true,
      "inputs": [],
      "name": "name",
      "outputs": [
        {
          "internalType": "string",
          "name": "",
          "type": "string"
        }
      ],
      "payable": false,
      "stateMutability": "view",
      "type": "function"
    },
    {
      "constant": true,
      "inputs": [],
      "name": "owner",
      "outputs": [
        {
          "internalType": "address",
          "name": "",
          "type": "address"
        }
      ],
      "payable": false,
      "stateMutability": "view",
      "type": "function"
    },
    {
      "constant": true,
      "inputs": [
        {
          "internalType": "uint256",
          "name": "tokenId",
          "type": "uint256"
        }
      ],
      "name": "ownerOf",
      "outputs": [
        {
          "internalType": "address",
          "name": "",
          "type": "address"
        }
      ],
      "payable": false,
      "stateMutability": "view",
      "type": "function"
    },
    {
      "constant": false,
      "inputs": [],
      "name": "renounceOwnership",
      "outputs": [],
      "payable": false,
      "stateMutability": "nonpayable",
      "type": "function"
    },
    {
      "constant": true,
      "inputs": [
        {
          "internalType": "uint256",
          "name": "",
          "type": "uint256"
        },
        {
          "internalType": "uint256",
          "name": "",
          "type": "uint256"
        }
      ],
      "name": "requestOwners",
      "outputs": [
        {
          "internalType": "uint256",
          "name": "",
          "type": "uint256"
        }
      ],
      "payable": false,
      "stateMutability": "view",
      "type": "function"
    },
    {
      "constant": true,
      "inputs": [
        {
          "internalType": "uint256",
          "name": "",
          "type": "uint256"
        }
      ],
      "name": "requests",
      "outputs": [
        {
          "internalType": "enum thuto.sessionStatus",
          "name": "status",
          "type": "uint8"
        },
        {
          "internalType": "uint256",
          "name": "session_Id",
          "type": "uint256"
        },
        {
          "internalType": "uint256",
          "name": "student_Id",
          "type": "uint256"
        }
      ],
      "payable": false,
      "stateMutability": "view",
      "type": "function"
    },
    {
      "constant": false,
      "inputs": [
        {
          "internalType": "address",
          "name": "from",
          "type": "address"
        },
        {
          "internalType": "address",
          "name": "to",
          "type": "address"
        },
        {
          "internalType": "uint256",
          "name": "tokenId",
          "type": "uint256"
        }
      ],
      "name": "safeTransferFrom",
      "outputs": [],
      "payable": false,
      "stateMutability": "nonpayable",
      "type": "function"
    },
    {
      "constant": false,
      "inputs": [
        {
          "internalType": "address",
          "name": "from",
          "type": "address"
        },
        {
          "internalType": "address",
          "name": "to",
          "type": "address"
        },
        {
          "internalType": "uint256",
          "name": "tokenId",
          "type": "uint256"
        },
        {
          "internalType": "bytes",
          "name": "_data",
          "type": "bytes"
        }
      ],
      "name": "safeTransferFrom",
      "outputs": [],
      "payable": false,
      "stateMutability": "nonpayable",
      "type": "function"
    },
    {
      "constant": true,
      "inputs": [
        {
          "internalType": "uint256",
          "name": "",
          "type": "uint256"
        },
        {
          "internalType": "uint256",
          "name": "",
          "type": "uint256"
        }
      ],
      "name": "sessionOwners",
      "outputs": [
        {
          "internalType": "uint256",
          "name": "",
          "type": "uint256"
        }
      ],
      "payable": false,
      "stateMutability": "view",
      "type": "function"
    },
    {
      "constant": true,
      "inputs": [
        {
          "internalType": "uint256",
          "name": "",
          "type": "uint256"
        },
        {
          "internalType": "uint256",
          "name": "",
          "type": "uint256"
        }
      ],
      "name": "sessionRequests",
      "outputs": [
        {
          "internalType": "uint256",
          "name": "",
          "type": "uint256"
        }
      ],
      "payable": false,
      "stateMutability": "view",
      "type": "function"
    },
    {
      "constant": true,
      "inputs": [
        {
          "internalType": "uint256",
          "name": "",
          "type": "uint256"
        }
      ],
      "name": "sessions",
      "outputs": [
        {
          "internalType": "uint256",
          "name": "tutor_Id",
          "type": "uint256"
        },
        {
          "internalType": "string",
          "name": "session_uri",
          "type": "string"
        },
        {
          "internalType": "bool",
          "name": "isRunning",
          "type": "bool"
        },
        {
          "internalType": "uint256",
          "name": "tutoring_price",
          "type": "uint256"
        },
        {
          "internalType": "string",
          "name": "details",
          "type": "string"
        }
      ],
      "payable": false,
      "stateMutability": "view",
      "type": "function"
    },
    {
      "constant": true,
      "inputs": [
        {
          "internalType": "uint256",
          "name": "",
          "type": "uint256"
        },
        {
          "internalType": "uint256",
          "name": "",
          "type": "uint256"
        }
      ],
      "name": "sessionsOwners",
      "outputs": [
        {
          "internalType": "uint256",
          "name": "",
          "type": "uint256"
        }
      ],
      "payable": false,
      "stateMutability": "view",
      "type": "function"
    },
    {
      "constant": false,
      "inputs": [
        {
          "internalType": "address",
          "name": "to",
          "type": "address"
        },
        {
          "internalType": "bool",
          "name": "approved",
          "type": "bool"
        }
      ],
      "name": "setApprovalForAll",
      "outputs": [],
      "payable": false,
      "stateMutability": "nonpayable",
      "type": "function"
    },
    {
      "constant": true,
      "inputs": [],
      "name": "stopped",
      "outputs": [
        {
          "internalType": "bool",
          "name": "",
          "type": "bool"
        }
      ],
      "payable": false,
      "stateMutability": "view",
      "type": "function"
    },
    {
      "constant": true,
      "inputs": [
        {
          "internalType": "bytes4",
          "name": "interfaceId",
          "type": "bytes4"
        }
      ],
      "name": "supportsInterface",
      "outputs": [
        {
          "internalType": "bool",
          "name": "",
          "type": "bool"
        }
      ],
      "payable": false,
      "stateMutability": "view",
      "type": "function"
    },
    {
      "constant": true,
      "inputs": [],
      "name": "symbol",
      "outputs": [
        {
          "internalType": "string",
          "name": "",
          "type": "string"
        }
      ],
      "payable": false,
      "stateMutability": "view",
      "type": "function"
    },
    {
      "constant": true,
      "inputs": [
        {
          "internalType": "uint256",
          "name": "tokenId",
          "type": "uint256"
        }
      ],
      "name": "tokenURI",
      "outputs": [
        {
          "internalType": "string",
          "name": "",
          "type": "string"
        }
      ],
      "payable": false,
      "stateMutability": "view",
      "type": "function"
    },
    {
      "constant": false,
      "inputs": [
        {
          "internalType": "address",
          "name": "from",
          "type": "address"
        },
        {
          "internalType": "address",
          "name": "to",
          "type": "address"
        },
        {
          "internalType": "uint256",
          "name": "tokenId",
          "type": "uint256"
        }
      ],
      "name": "transferFrom",
      "outputs": [],
      "payable": false,
      "stateMutability": "nonpayable",
      "type": "function"
    },
    {
      "constant": false,
      "inputs": [
        {
          "internalType": "address",
          "name": "newOwner",
          "type": "address"
        }
      ],
      "name": "transferOwnership",
      "outputs": [],
      "payable": false,
      "stateMutability": "nonpayable",
      "type": "function"
    },
    {
      "constant": true,
      "inputs": [
        {
          "internalType": "address",
          "name": "",
          "type": "address"
        }
      ],
      "name": "userAddresses",
      "outputs": [
        {
          "internalType": "uint256",
          "name": "",
          "type": "uint256"
        }
      ],
      "payable": false,
      "stateMutability": "view",
      "type": "function"
    },
    {
      "constant": true,
      "inputs": [
        {
          "internalType": "uint256",
          "name": "",
          "type": "uint256"
        }
      ],
      "name": "users",
      "outputs": [
        {
          "internalType": "address",
          "name": "owned_address",
          "type": "address"
        },
        {
          "internalType": "string",
          "name": "profile_uri",
          "type": "string"
        }
      ],
      "payable": false,
      "stateMutability": "view",
      "type": "function"
    },
    {
      "constant": false,
      "inputs": [
        {
          "internalType": "string",
          "name": "_profile_uri",
          "type": "string"
        }
      ],
      "name": "registerUser",
      "outputs": [],
      "payable": false,
      "stateMutability": "nonpayable",
      "type": "function"
    },
    {
      "constant": false,
      "inputs": [
        {
          "internalType": "string",
          "name": "_session_uri",
          "type": "string"
        },
        {
          "internalType": "bool",
          "name": "_isRunning",
          "type": "bool"
        },
        {
          "internalType": "uint256",
          "name": "_tutoring_price",
          "type": "uint256"
        },
        {
          "internalType": "string",
          "name": "_details",
          "type": "string"
        }
      ],
      "name": "addSession",
      "outputs": [],
      "payable": false,
      "stateMutability": "nonpayable",
      "type": "function"
    },
    {
      "constant": false,
      "inputs": [
        {
          "internalType": "uint256",
          "name": "_session_Id",
          "type": "uint256"
        },
        {
          "internalType": "string",
          "name": "_details",
          "type": "string"
        }
      ],
      "name": "requestSession",
      "outputs": [],
      "payable": false,
      "stateMutability": "nonpayable",
      "type": "function"
    },
    {
      "constant": false,
      "inputs": [
        {
          "internalType": "uint256",
          "name": "_id",
          "type": "uint256"
        }
      ],
      "name": "acceptRequest",
      "outputs": [],
      "payable": false,
      "stateMutability": "nonpayable",
      "type": "function"
    },
    {
      "constant": false,
      "inputs": [
        {
          "internalType": "uint256",
          "name": "_id",
          "type": "uint256"
        }
      ],
      "name": "rejectRequest",
      "outputs": [],
      "payable": false,
      "stateMutability": "nonpayable",
      "type": "function"
    },
    {
      "constant": false,
      "inputs": [
        {
          "internalType": "uint256",
          "name": "_id",
          "type": "uint256"
        }
      ],
      "name": "cancelRequest",
      "outputs": [],
      "payable": false,
      "stateMutability": "nonpayable",
      "type": "function"
    },
    {
      "constant": false,
      "inputs": [
        {
          "internalType": "uint256",
          "name": "_session_Id",
          "type": "uint256"
        },
        {
          "internalType": "uint256",
          "name": "_tutoring_price",
          "type": "uint256"
        }
      ],
      "name": "changeTutoringPrice",
      "outputs": [],
      "payable": false,
      "stateMutability": "nonpayable",
      "type": "function"
    },
    {
      "constant": false,
      "inputs": [
        {
          "internalType": "uint256",
          "name": "_session_Id",
          "type": "uint256"
        }
      ],
      "name": "changeRunningStatus",
      "outputs": [],
      "payable": false,
      "stateMutability": "nonpayable",
      "type": "function"
    },
    {
      "constant": true,
      "inputs": [
        {
          "internalType": "address",
          "name": "_address",
          "type": "address"
        }
      ],
      "name": "getSessions",
      "outputs": [
        {
          "internalType": "uint256[]",
          "name": "",
          "type": "uint256[]"
        }
      ],
      "payable": false,
      "stateMutability": "view",
      "type": "function"
    },
    {
      "constant": true,
      "inputs": [
        {
          "internalType": "address",
          "name": "_address",
          "type": "address"
        }
      ],
      "name": "getRequests",
      "outputs": [
        {
          "internalType": "uint256[]",
          "name": "",
          "type": "uint256[]"
        }
      ],
      "payable": false,
      "stateMutability": "view",
      "type": "function"
    },
    {
      "constant": true,
      "inputs": [
        {
          "internalType": "uint256",
          "name": "_session_Id",
          "type": "uint256"
        }
      ],
      "name": "getSessionRequests",
      "outputs": [
        {
          "internalType": "uint256[]",
          "name": "",
          "type": "uint256[]"
        }
      ],
      "payable": false,
      "stateMutability": "view",
      "type": "function"
    },
    {
      "constant": true,
      "inputs": [],
      "name": "getSessionLength",
      "outputs": [
        {
          "internalType": "uint256",
          "name": "count",
          "type": "uint256"
        }
      ],
      "payable": false,
      "stateMutability": "view",
      "type": "function"
    },
    {
      "constant": true,
      "inputs": [
        {
          "internalType": "uint256",
          "name": "_session_Id",
          "type": "uint256"
        }
      ],
      "name": "getSession",
      "outputs": [
        {
          "internalType": "uint256",
          "name": "",
          "type": "uint256"
        },
        {
          "internalType": "string",
          "name": "",
          "type": "string"
        },
        {
          "internalType": "uint256[]",
          "name": "",
          "type": "uint256[]"
        },
        {
          "internalType": "bool",
          "name": "",
          "type": "bool"
        },
        {
          "internalType": "uint256",
          "name": "",
          "type": "uint256"
        },
        {
          "internalType": "string",
          "name": "",
          "type": "string"
        }
      ],
      "payable": false,
      "stateMutability": "view",
      "type": "function"
    },
    {
      "constant": true,
      "inputs": [
        {
          "internalType": "address",
          "name": "_address",
          "type": "address"
        }
      ],
      "name": "getLessonForAddress",
      "outputs": [
        {
          "internalType": "uint256[]",
          "name": "",
          "type": "uint256[]"
        }
      ],
      "payable": false,
      "stateMutability": "view",
      "type": "function"
    },
    {
      "constant": true,
      "inputs": [
        {
          "internalType": "uint256",
          "name": "_lessonId",
          "type": "uint256"
        }
      ],
      "name": "getLessons",
      "outputs": [
        {
          "internalType": "uint256",
          "name": "",
          "type": "uint256"
        },
        {
          "internalType": "uint256",
          "name": "",
          "type": "uint256"
        },
        {
          "internalType": "uint256",
          "name": "",
          "type": "uint256"
        }
      ],
      "payable": false,
      "stateMutability": "view",
      "type": "function"
    },
    {
      "constant": true,
      "inputs": [],
      "name": "getUsers",
      "outputs": [
        {
          "internalType": "address[]",
          "name": "",
          "type": "address[]"
        }
      ],
      "payable": false,
      "stateMutability": "view",
      "type": "function"
    },
    {
      "constant": false,
      "inputs": [],
      "name": "toggleContractStopped",
      "outputs": [],
      "payable": false,
      "stateMutability": "nonpayable",
      "type": "function"
    },
    {
      "constant": false,
      "inputs": [],
      "name": "registerUserFailed",
      "outputs": [
        {
          "internalType": "string",
          "name": "",
          "type": "string"
        }
      ],
      "payable": false,
      "stateMutability": "nonpayable",
      "type": "function"
    },
    {
      "constant": true,
      "inputs": [],
      "name": "userListNotChanged",
      "outputs": [
        {
          "internalType": "address[]",
          "name": "",
          "type": "address[]"
        }
      ],
      "payable": false,
      "stateMutability": "view",
      "type": "function"
    }
  ],
  "bytecode": "0x60806040526000601360146101000a81548160ff0219169083151502179055503480156200002c57600080fd5b50604051620059f4380380620059f4833981810160405260208110156200005257600080fd5b81019080805190602001909291905050506040518060400160405280600d81526020017f546875746f204c6963656e6365000000000000000000000000000000000000008152506040518060400160405280600581526020017f544855544f000000000000000000000000000000000000000000000000000000815250620000e76301ffc9a760e01b6200039d60201b60201c565b620000ff6380ac58cd60e01b6200039d60201b60201c565b816005908051906020019062000117929190620004ae565b50806006908051906020019062000130929190620004ae565b5062000149635b5e139f60e01b6200039d60201b60201c565b50506200015b620004a660201b60201c565b600860006101000a81548173ffffffffffffffffffffffffffffffffffffffff021916908373ffffffffffffffffffffffffffffffffffffffff160217905550600860009054906101000a900473ffffffffffffffffffffffffffffffffffffffff1673ffffffffffffffffffffffffffffffffffffffff16600073ffffffffffffffffffffffffffffffffffffffff167f8be0079c531659141344cd1fd0a4f28419497f9722a3daafe3b4186f6b6457e060405160405180910390a360096040518060400160405280600073ffffffffffffffffffffffffffffffffffffffff168152602001604051806020016040528060008152508152509080600181540180825580915050906001820390600052602060002090600202016000909192909190915060008201518160000160006101000a81548173ffffffffffffffffffffffffffffffffffffffff021916908373ffffffffffffffffffffffffffffffffffffffff1602179055506020820151816001019080519060200190620002e592919062000535565b5050505060106040518060600160405280600081526020016000815260200160008152509080600181540180825580915050906001820390600052602060002090600302016000909192909190915060008201518160000155602082015181600101556040820151816002015550505080601360006101000a81548173ffffffffffffffffffffffffffffffffffffffff021916908373ffffffffffffffffffffffffffffffffffffffff16021790555050620005e4565b63ffffffff60e01b817bffffffffffffffffffffffffffffffffffffffffffffffffffffffff191614156200043a576040517f08c379a000000000000000000000000000000000000000000000000000000000815260040180806020018281038252601c8152602001807f4552433136353a20696e76616c696420696e746572666163652069640000000081525060200191505060405180910390fd5b6001600080837bffffffffffffffffffffffffffffffffffffffffffffffffffffffff19167bffffffffffffffffffffffffffffffffffffffffffffffffffffffff1916815260200190815260200160002060006101000a81548160ff02191690831515021790555050565b600033905090565b828054600181600116156101000203166002900490600052602060002090601f016020900481019282601f10620004f157805160ff191683800117855562000522565b8280016001018555821562000522579182015b828111156200052157825182559160200191906001019062000504565b5b509050620005319190620005bc565b5090565b828054600181600116156101000203166002900490600052602060002090601f016020900481019282601f106200057857805160ff1916838001178555620005a9565b82800160010185558215620005a9579182015b82811115620005a85782518255916020019190600101906200058b565b5b509050620005b89190620005bc565b5090565b620005e191905b80821115620005dd576000816000905550600101620005c3565b5090565b90565b61540080620005f46000396000f3fe608060405234801561001057600080fd5b50600436106102895760003560e01c8063715018a61161015c578063a12ea604116100ce578063e83c78d411610087578063e83c78d414611503578063e985e9c51461150d578063ef49ca9014611589578063efb4506f146115d9578063f2fde38b1461169e578063fc86dea7146116e257610289565b8063a12ea6041461121f578063a22cb4651461126b578063b88d4fde146112bb578063c87b56dd146113c0578063da58d64e14611467578063e1d1a841146114b357610289565b806383c4b7a31161012057806383c4b7a314610f775780638d39136c146110a35780638da5cb5b146111025780638f32d59b1461114c57806395d89b411461116e5780639ab7a954146111f157610289565b8063715018a614610dd1578063731daf5314610ddb57806375f12b2114610e5e578063804e44f314610e8057806381d12c5814610f1957610289565b80633015394c11610200578063482fcedc116101b9578063482fcedc14610b065780634ba1f09814610b9f578063555ea69814610bcd5780636352211e14610c50578063704f1b9414610cbe57806370a0823114610d7957610289565b80633015394c14610696578063365b98b2146106c457806338b7005d1461079e5780633fac376c146107bc578063402ff0db1461092457806342842e0e14610a9857610289565b8063095ea7b311610252578063095ea7b31461048f57806313625e2e146104dd5780631515eb801461057657806323b872dd146105ae5780632d7788db1461061c5780632e67fd771461064a57610289565b8062ce8e3e1461028e57806301ffc9a7146102ed578063021d2bfe1461035257806306fdde031461039e578063081812fc14610421575b600080fd5b61029661173a565b6040518080602001828103825283818151815260200191508051906020019060200280838360005b838110156102d95780820151818401526020810190506102be565b505050509050019250505060405180910390f35b6103386004803603602081101561030357600080fd5b8101908080357bffffffffffffffffffffffffffffffffffffffffffffffffffffffff191690602001909291905050506117c8565b604051808215151515815260200191505060405180910390f35b6103886004803603604081101561036857600080fd5b81019080803590602001909291908035906020019092919050505061182f565b6040518082815260200191505060405180910390f35b6103a661185d565b6040518080602001828103825283818151815260200191508051906020019080838360005b838110156103e65780820151818401526020810190506103cb565b50505050905090810190601f1680156104135780820380516001836020036101000a031916815260200191505b509250505060405180910390f35b61044d6004803603602081101561043757600080fd5b81019080803590602001909291905050506118ff565b604051808273ffffffffffffffffffffffffffffffffffffffff1673ffffffffffffffffffffffffffffffffffffffff16815260200191505060405180910390f35b6104db600480360360408110156104a557600080fd5b81019080803573ffffffffffffffffffffffffffffffffffffffff1690602001909291908035906020019092919050505061199a565b005b61051f600480360360208110156104f357600080fd5b81019080803573ffffffffffffffffffffffffffffffffffffffff169060200190929190505050611b81565b6040518080602001828103825283818151815260200191508051906020019060200280838360005b83811015610562578082015181840152602081019050610547565b505050509050019250505060405180910390f35b6105ac6004803603604081101561058c57600080fd5b810190808035906020019092919080359060200190929190505050611c31565b005b61061a600480360360608110156105c457600080fd5b81019080803573ffffffffffffffffffffffffffffffffffffffff169060200190929190803573ffffffffffffffffffffffffffffffffffffffff16906020019092919080359060200190929190505050611d5c565b005b6106486004803603602081101561063257600080fd5b8101908080359060200190929190505050611dd2565b005b6106806004803603604081101561066057600080fd5b810190808035906020019092919080359060200190929190505050611fda565b6040518082815260200191505060405180910390f35b6106c2600480360360208110156106ac57600080fd5b8101908080359060200190929190505050612008565b005b6106f0600480360360208110156106da57600080fd5b8101908080359060200190929190505050612172565b604051808373ffffffffffffffffffffffffffffffffffffffff1673ffffffffffffffffffffffffffffffffffffffff16815260200180602001828103825283818151815260200191508051906020019080838360005b83811015610762578082015181840152602081019050610747565b50505050905090810190601f16801561078f5780820380516001836020036101000a031916815260200191505b50935050505060405180910390f35b6107a661225b565b6040518082815260200191505060405180910390f35b610922600480360360808110156107d257600080fd5b81019080803590602001906401000000008111156107ef57600080fd5b82018360208201111561080157600080fd5b8035906020019184600183028401116401000000008311171561082357600080fd5b91908080601f016020809104026020016040519081016040528093929190818152602001838380828437600081840152601f19601f820116905080830192505050505050509192919290803515159060200190929190803590602001909291908035906020019064010000000081111561089c57600080fd5b8201836020820111156108ae57600080fd5b803590602001918460018302840111640100000000831117156108d057600080fd5b91908080601f016020809104026020016040519081016040528093929190818152602001838380828437600081840152601f19601f820116905080830192505050505050509192919290505050612268565b005b6109506004803603602081101561093a57600080fd5b8101908080359060200190929190505050612732565b6040518087815260200180602001806020018615151515815260200185815260200180602001848103845289818151815260200191508051906020019080838360005b838110156109ae578082015181840152602081019050610993565b50505050905090810190601f1680156109db5780820380516001836020036101000a031916815260200191505b50848103835288818151815260200191508051906020019060200280838360005b83811015610a175780820151818401526020810190506109fc565b50505050905001848103825285818151815260200191508051906020019080838360005b83811015610a56578082015181840152602081019050610a3b565b50505050905090810190601f168015610a835780820380516001836020036101000a031916815260200191505b50995050505050505050505060405180910390f35b610b0460048036036060811015610aae57600080fd5b81019080803573ffffffffffffffffffffffffffffffffffffffff169060200190929190803573ffffffffffffffffffffffffffffffffffffffff16906020019092919080359060200190929190505050612974565b005b610b4860048036036020811015610b1c57600080fd5b81019080803573ffffffffffffffffffffffffffffffffffffffff169060200190929190505050612994565b6040518080602001828103825283818151815260200191508051906020019060200280838360005b83811015610b8b578082015181840152602081019050610b70565b505050509050019250505060405180910390f35b610bcb60048036036020811015610bb557600080fd5b8101908080359060200190929190505050612a44565b005b610bd5612dd5565b6040518080602001828103825283818151815260200191508051906020019080838360005b83811015610c15578082015181840152602081019050610bfa565b50505050905090810190601f168015610c425780820380516001836020036101000a031916815260200191505b509250505060405180910390f35b610c7c60048036036020811015610c6657600080fd5b8101908080359060200190929190505050612e12565b604051808273ffffffffffffffffffffffffffffffffffffffff1673ffffffffffffffffffffffffffffffffffffffff16815260200191505060405180910390f35b610d7760048036036020811015610cd457600080fd5b8101908080359060200190640100000000811115610cf157600080fd5b820183602082011115610d0357600080fd5b80359060200191846001830284011164010000000083111715610d2557600080fd5b91908080601f016020809104026020016040519081016040528093929190818152602001838380828437600081840152601f19601f820116905080830192505050505050509192919290505050612eda565b005b610dbb60048036036020811015610d8f57600080fd5b81019080803573ffffffffffffffffffffffffffffffffffffffff169060200190929190505050613113565b6040518082815260200191505060405180910390f35b610dd96131e8565b005b610e0760048036036020811015610df157600080fd5b8101908080359060200190929190505050613323565b6040518080602001828103825283818151815260200191508051906020019060200280838360005b83811015610e4a578082015181840152602081019050610e2f565b505050509050019250505060405180910390f35b610e66613399565b604051808215151515815260200191505060405180910390f35b610ec260048036036020811015610e9657600080fd5b81019080803573ffffffffffffffffffffffffffffffffffffffff1690602001909291905050506133ac565b6040518080602001828103825283818151815260200191508051906020019060200280838360005b83811015610f05578082015181840152602081019050610eea565b505050509050019250505060405180910390f35b610f4560048036036020811015610f2f57600080fd5b810190808035906020019092919050505061345c565b60405180846003811115610f5557fe5b60ff168152602001838152602001828152602001935050505060405180910390f35b610fa360048036036020811015610f8d57600080fd5b81019080803590602001909291905050506134a0565b60405180868152602001806020018515151515815260200184815260200180602001838103835287818151815260200191508051906020019080838360005b83811015610ffd578082015181840152602081019050610fe2565b50505050905090810190601f16801561102a5780820380516001836020036101000a031916815260200191505b50838103825284818151815260200191508051906020019080838360005b83811015611063578082015181840152602081019050611048565b50505050905090810190601f1680156110905780820380516001836020036101000a031916815260200191505b5097505050505050505060405180910390f35b6110ab613620565b6040518080602001828103825283818151815260200191508051906020019060200280838360005b838110156110ee5780820151818401526020810190506110d3565b505050509050019250505060405180910390f35b61110a6136ae565b604051808273ffffffffffffffffffffffffffffffffffffffff1673ffffffffffffffffffffffffffffffffffffffff16815260200191505060405180910390f35b6111546136d8565b604051808215151515815260200191505060405180910390f35b611176613737565b6040518080602001828103825283818151815260200191508051906020019080838360005b838110156111b657808201518184015260208101905061119b565b50505050905090810190601f1680156111e35780820380516001836020036101000a031916815260200191505b509250505060405180910390f35b61121d6004803603602081101561120757600080fd5b81019080803590602001909291905050506137d9565b005b6112556004803603604081101561123557600080fd5b810190808035906020019092919080359060200190929190505050613971565b6040518082815260200191505060405180910390f35b6112b96004803603604081101561128157600080fd5b81019080803573ffffffffffffffffffffffffffffffffffffffff16906020019092919080351515906020019092919050505061399f565b005b6113be600480360360808110156112d157600080fd5b81019080803573ffffffffffffffffffffffffffffffffffffffff169060200190929190803573ffffffffffffffffffffffffffffffffffffffff169060200190929190803590602001909291908035906020019064010000000081111561133857600080fd5b82018360208201111561134a57600080fd5b8035906020019184600183028401116401000000008311171561136c57600080fd5b91908080601f016020809104026020016040519081016040528093929190818152602001838380828437600081840152601f19601f820116905080830192505050505050509192919290505050613b57565b005b6113ec600480360360208110156113d657600080fd5b8101908080359060200190929190505050613bcf565b6040518080602001828103825283818151815260200191508051906020019080838360005b8381101561142c578082015181840152602081019050611411565b50505050905090810190601f1680156114595780820380516001836020036101000a031916815260200191505b509250505060405180910390f35b61149d6004803603604081101561147d57600080fd5b810190808035906020019092919080359060200190929190505050613ce2565b6040518082815260200191505060405180910390f35b6114df600480360360208110156114c957600080fd5b8101908080359060200190929190505050613d10565b60405180848152602001838152602001828152602001935050505060405180910390f35b61150b613d47565b005b61156f6004803603604081101561152357600080fd5b81019080803573ffffffffffffffffffffffffffffffffffffffff169060200190929190803573ffffffffffffffffffffffffffffffffffffffff169060200190929190505050613ded565b604051808215151515815260200191505060405180910390f35b6115b56004803603602081101561159f57600080fd5b8101908080359060200190929190505050613e81565b60405180848152602001838152602001828152602001935050505060405180910390f35b61169c600480360360408110156115ef57600080fd5b81019080803590602001909291908035906020019064010000000081111561161657600080fd5b82018360208201111561162857600080fd5b8035906020019184600183028401116401000000008311171561164a57600080fd5b91908080601f016020809104026020016040519081016040528093929190818152602001838380828437600081840152601f19601f820116905080830192505050505050509192919290505050613ef1565b005b6116e0600480360360208110156116b457600080fd5b81019080803573ffffffffffffffffffffffffffffffffffffffff16906020019092919050505061438d565b005b611724600480360360208110156116f857600080fd5b81019080803573ffffffffffffffffffffffffffffffffffffffff169060200190929190505050614413565b6040518082815260200191505060405180910390f35b6060600a8054806020026020016040519081016040528092919081815260200182805480156117be57602002820191906000526020600020905b8160009054906101000a900473ffffffffffffffffffffffffffffffffffffffff1673ffffffffffffffffffffffffffffffffffffffff1681526020019060010190808311611774575b5050505050905090565b6000806000837bffffffffffffffffffffffffffffffffffffffffffffffffffffffff19167bffffffffffffffffffffffffffffffffffffffffffffffffffffffff1916815260200190815260200160002060009054906101000a900460ff169050919050565b6012602052816000526040600020818154811061184857fe5b90600052602060002001600091509150505481565b606060058054600181600116156101000203166002900480601f0160208091040260200160405190810160405280929190818152602001828054600181600116156101000203166002900480156118f55780601f106118ca576101008083540402835291602001916118f5565b820191906000526020600020905b8154815290600101906020018083116118d857829003601f168201915b5050505050905090565b600061190a8261442b565b61195f576040517f08c379a000000000000000000000000000000000000000000000000000000000815260040180806020018281038252602c8152602001806152d4602c913960400191505060405180910390fd5b6002600083815260200190815260200160002060009054906101000a900473ffffffffffffffffffffffffffffffffffffffff169050919050565b60006119a582612e12565b90508073ffffffffffffffffffffffffffffffffffffffff168373ffffffffffffffffffffffffffffffffffffffff161415611a2c576040517f08c379a00000000000000000000000000000000000000000000000000000000081526004018080602001828103825260218152602001806153586021913960400191505060405180910390fd5b8073ffffffffffffffffffffffffffffffffffffffff16611a4b61449d565b73ffffffffffffffffffffffffffffffffffffffff161480611a7a5750611a7981611a7461449d565b613ded565b5b611acf576040517f08c379a00000000000000000000000000000000000000000000000000000000081526004018080602001828103825260388152602001806152276038913960400191505060405180910390fd5b826002600084815260200190815260200160002060006101000a81548173ffffffffffffffffffffffffffffffffffffffff021916908373ffffffffffffffffffffffffffffffffffffffff160217905550818373ffffffffffffffffffffffffffffffffffffffff168273ffffffffffffffffffffffffffffffffffffffff167f8c5be1e5ebec7d5bd14f71427d1e84f3dd0314c0f7b2291e5b200ac8c7c3b92560405160405180910390a4505050565b60606000600b60008473ffffffffffffffffffffffffffffffffffffffff1673ffffffffffffffffffffffffffffffffffffffff168152602001908152602001600020549050600f6000828152602001908152602001600020805480602002602001604051908101604052809291908181526020018280548015611c2457602002820191906000526020600020905b815481526020019060010190808311611c10575b5050505050915050919050565b600e8281548110611c3e57fe5b906000526020600020906006020160000154600b60003373ffffffffffffffffffffffffffffffffffffffff1673ffffffffffffffffffffffffffffffffffffffff1681526020019081526020016000205414611ce6576040517f08c379a00000000000000000000000000000000000000000000000000000000081526004018080602001828103825260228152602001806152b26022913960400191505060405180910390fd5b80600e8381548110611cf457fe5b906000526020600020906006020160040181905550813373ffffffffffffffffffffffffffffffffffffffff167f0376847055a0a541f35e7a83217d5cb66bd5273ff6c34677d9911f13b70d8594836040518082815260200191505060405180910390a35050565b611d6d611d6761449d565b826144a5565b611dc2576040517f08c379a00000000000000000000000000000000000000000000000000000000081526004018080602001828103825260318152602001806153796031913960400191505060405180910390fd5b611dcd838383614599565b505050565b6000600c8281548110611de157fe5b9060005260206000209060030201600101549050600e8181548110611e0257fe5b906000526020600020906006020160000154600b60003373ffffffffffffffffffffffffffffffffffffffff1673ffffffffffffffffffffffffffffffffffffffff1681526020019081526020016000205414611eaa576040517f08c379a00000000000000000000000000000000000000000000000000000000081526004018080602001828103825260228152602001806152b26022913960400191505060405180910390fd5b600e8181548110611eb757fe5b906000526020600020906006020160030160009054906101000a900460ff16611f48576040517f08c379a00000000000000000000000000000000000000000000000000000000081526004018080602001828103825260138152602001807f53657373696f6e206e6f742072756e6e696e670000000000000000000000000081525060200191505060405180910390fd5b6002600c8381548110611f5757fe5b906000526020600020906003020160000160006101000a81548160ff02191690836003811115611f8357fe5b02179055503373ffffffffffffffffffffffffffffffffffffffff167fd0efae7a8f53e6d9bc42552dffe5370074bacd65dd7d8bea0c7965c66b8eb67e836040518082815260200191505060405180910390a25050565b600d6020528160005260406000208181548110611ff357fe5b90600052602060002001600091509150505481565b6000600c828154811061201757fe5b9060005260206000209060030201600201549050600c818154811061203857fe5b906000526020600020906003020160020154600b60003373ffffffffffffffffffffffffffffffffffffffff1673ffffffffffffffffffffffffffffffffffffffff16815260200190815260200160002054146120e0576040517f08c379a000000000000000000000000000000000000000000000000000000000815260040180806020018281038252602581526020018061515a6025913960400191505060405180910390fd5b6003600c83815481106120ef57fe5b906000526020600020906003020160000160006101000a81548160ff0219169083600381111561211b57fe5b02179055503373ffffffffffffffffffffffffffffffffffffffff167fd8e7eb8a53f0fdda9d0f81dab9241b44564ccfaaa5fbc2cbf9a372ae612bd3d5836040518082815260200191505060405180910390a25050565b6009818154811061217f57fe5b90600052602060002090600202016000915090508060000160009054906101000a900473ffffffffffffffffffffffffffffffffffffffff1690806001018054600181600116156101000203166002900480601f0160208091040260200160405190810160405280929190818152602001828054600181600116156101000203166002900480156122515780601f1061222657610100808354040283529160200191612251565b820191906000526020600020905b81548152906001019060200180831161223457829003601f168201915b5050505050905082565b6000600e80549050905090565b60008451116122df576040517f08c379a00000000000000000000000000000000000000000000000000000000081526004018080602001828103825260208152602001807f53657373696f6e205552492073686f756c64206e6f7420626520656d7074792e81525060200191505060405180910390fd5b6000600b60003373ffffffffffffffffffffffffffffffffffffffff1673ffffffffffffffffffffffffffffffffffffffff168152602001908152602001600020541415612395576040517f08c379a00000000000000000000000000000000000000000000000000000000081526004018080602001828103825260208152602001807f5475746f722061646472657373206973206e6f7420726567697374657265642e81525060200191505060405180910390fd5b6000821161240b576040517f08c379a00000000000000000000000000000000000000000000000000000000081526004018080602001828103825260198152602001807f53656c6c207072696365206e6f74207370656369666965642e0000000000000081525060200191505060405180910390fd5b6000815111612482576040517f08c379a000000000000000000000000000000000000000000000000000000000815260040180806020018281038252601c8152602001807f44657461696c732073686f756c64206e6f7420626520656d7074792e0000000081525060200191505060405180910390fd5b6000600b60003373ffffffffffffffffffffffffffffffffffffffff1673ffffffffffffffffffffffffffffffffffffffff16815260200190815260200160002054905060606124d061500e565b6040518060c0016040528084815260200188815260200183815260200187151581526020018681526020018581525090506000600e8290806001815401808255809150509060018203906000526020600020906006020160009091929091909150600082015181600001556020820151816001019080519060200190612557929190615046565b5060408201518160020190805190602001906125749291906150c6565b5060608201518160030160006101000a81548160ff0219169083151502179055506080820151816004015560a08201518160050190805190602001906125bb929190615046565b5050509050600f60008581526020019081526020016000206001820390806001815401808255809150509060018203906000526020600020016000909192909190915055503373ffffffffffffffffffffffffffffffffffffffff167f43315878661f0c4b3418e7a26be592ba7db00fddd3a81f4d6ddce943c9712134898888604051808060200184815260200180602001838103835286818151815260200191508051906020019080838360005b8381101561268557808201518184015260208101905061266a565b50505050905090810190601f1680156126b25780820380516001836020036101000a031916815260200191505b50838103825284818151815260200191508051906020019080838360005b838110156126eb5780820151818401526020810190506126d0565b50505050905090810190601f1680156127185780820380516001836020036101000a031916815260200191505b509550505050505060405180910390a25050505050505050565b6000606080600080606061274461500e565b600e888154811061275157fe5b90600052602060002090600602016040518060c001604052908160008201548152602001600182018054600181600116156101000203166002900480601f01602080910402602001604051908101604052809291908181526020018280546001816001161561010002031660029004801561280d5780601f106127e25761010080835404028352916020019161280d565b820191906000526020600020905b8154815290600101906020018083116127f057829003601f168201915b505050505081526020016002820180548060200260200160405190810160405280929190818152602001828054801561286557602002820191906000526020600020905b815481526020019060010190808311612851575b505050505081526020016003820160009054906101000a900460ff1615151515815260200160048201548152602001600582018054600181600116156101000203166002900480601f01602080910402602001604051908101604052809291908181526020018280546001816001161561010002031660029004801561292c5780601f106129015761010080835404028352916020019161292c565b820191906000526020600020905b81548152906001019060200180831161290f57829003601f168201915b5050505050815250509050806000015181602001518260400151836060015184608001518560a001518494508393508090509650965096509650965096505091939550919395565b61298f83838360405180602001604052806000815250613b57565b505050565b60606000600b60008473ffffffffffffffffffffffffffffffffffffffff1673ffffffffffffffffffffffffffffffffffffffff168152602001908152602001600020549050600d6000828152602001908152602001600020805480602002602001604051908101604052809291908181526020018280548015612a3757602002820191906000526020600020905b815481526020019060010190808311612a23575b5050505050915050919050565b6000600c8281548110612a5357fe5b9060005260206000209060030201600101549050600e8181548110612a7457fe5b906000526020600020906006020160000154600b60003373ffffffffffffffffffffffffffffffffffffffff1673ffffffffffffffffffffffffffffffffffffffff1681526020019081526020016000205414612b1c576040517f08c379a00000000000000000000000000000000000000000000000000000000081526004018080602001828103825260228152602001806152b26022913960400191505060405180910390fd5b600e8181548110612b2957fe5b906000526020600020906006020160030160009054906101000a900460ff16612bba576040517f08c379a00000000000000000000000000000000000000000000000000000000081526004018080602001828103825260168152602001807f53657373696f6e206973206e6f742072756e6e696e670000000000000000000081525060200191505060405180910390fd5b6001600c8381548110612bc957fe5b906000526020600020906003020160000160006101000a81548160ff02191690836003811115612bf557fe5b0217905550600060106040518060600160405280600c8681548110612c1657fe5b9060005260206000209060030201600201548152602001848152602001858152509080600181540180825580915050906001820390600052602060002090600302016000909192909190915060008201518160000155602082015181600101556040820151816002015550509050600d6000600c8581548110612c9557fe5b906000526020600020906003020160020154815260200190815260200160002081908060018154018082558091505090600182039060005260206000200160009091929091909150555060126000838152602001908152602001600020819080600181540180825580915050906001820390600052602060002001600090919290919091505550612d826009600c8581548110612d2e57fe5b90600052602060002090600302016002015481548110612d4a57fe5b906000526020600020906002020160000160009054906101000a900473ffffffffffffffffffffffffffffffffffffffff16826147f4565b3373ffffffffffffffffffffffffffffffffffffffff167f8ff1c8f5cb1df0249bf70c73b18ee5dfd49ead0c90688e2ddb8cdb691c496acb846040518082815260200191505060405180910390a2505050565b60606040518060400160405280601381526020017f4661696c656420526567697374726174696f6e00000000000000000000000000815250905090565b6000806001600084815260200190815260200160002060009054906101000a900473ffffffffffffffffffffffffffffffffffffffff169050600073ffffffffffffffffffffffffffffffffffffffff168173ffffffffffffffffffffffffffffffffffffffff161415612ed1576040517f08c379a00000000000000000000000000000000000000000000000000000000081526004018080602001828103825260298152602001806152896029913960400191505060405180910390fd5b80915050919050565b6000815111612f51576040517f08c379a00000000000000000000000000000000000000000000000000000000081526004018080602001828103825260208152602001807f50726f66696c65205552492073686f756c64206e6f7420626520656d7074792e81525060200191505060405180910390fd5b6000600b60003373ffffffffffffffffffffffffffffffffffffffff1673ffffffffffffffffffffffffffffffffffffffff1681526020019081526020016000205414613006576040517f08c379a00000000000000000000000000000000000000000000000000000000081526004018080602001828103825260198152602001807f5475746f7220616c726561647920726567697374657265642e0000000000000081525060200191505060405180910390fd5b6000600960405180604001604052803373ffffffffffffffffffffffffffffffffffffffff168152602001848152509080600181540180825580915050906001820390600052602060002090600202016000909192909190915060008201518160000160006101000a81548173ffffffffffffffffffffffffffffffffffffffff021916908373ffffffffffffffffffffffffffffffffffffffff16021790555060208201518160010190805190602001906130c3929190615046565b505050905060018103600b60003373ffffffffffffffffffffffffffffffffffffffff1673ffffffffffffffffffffffffffffffffffffffff168152602001908152602001600020819055505050565b60008073ffffffffffffffffffffffffffffffffffffffff168273ffffffffffffffffffffffffffffffffffffffff16141561319a576040517f08c379a000000000000000000000000000000000000000000000000000000000815260040180806020018281038252602a81526020018061525f602a913960400191505060405180910390fd5b6131e1600360008473ffffffffffffffffffffffffffffffffffffffff1673ffffffffffffffffffffffffffffffffffffffff168152602001908152602001600020614a0c565b9050919050565b6131f06136d8565b613262576040517f08c379a00000000000000000000000000000000000000000000000000000000081526004018080602001828103825260208152602001807f4f776e61626c653a2063616c6c6572206973206e6f7420746865206f776e657281525060200191505060405180910390fd5b600073ffffffffffffffffffffffffffffffffffffffff16600860009054906101000a900473ffffffffffffffffffffffffffffffffffffffff1673ffffffffffffffffffffffffffffffffffffffff167f8be0079c531659141344cd1fd0a4f28419497f9722a3daafe3b4186f6b6457e060405160405180910390a36000600860006101000a81548173ffffffffffffffffffffffffffffffffffffffff021916908373ffffffffffffffffffffffffffffffffffffffff160217905550565b6060600e828154811061333257fe5b906000526020600020906006020160020180548060200260200160405190810160405280929190818152602001828054801561338d57602002820191906000526020600020905b815481526020019060010190808311613379575b50505050509050919050565b601360149054906101000a900460ff1681565b60606000600b60008473ffffffffffffffffffffffffffffffffffffffff1673ffffffffffffffffffffffffffffffffffffffff168152602001908152602001600020549050600d600082815260200190815260200160002080548060200260200160405190810160405280929190818152602001828054801561344f57602002820191906000526020600020905b81548152602001906001019080831161343b575b5050505050915050919050565b600c818154811061346957fe5b90600052602060002090600302016000915090508060000160009054906101000a900460ff16908060010154908060020154905083565b600e81815481106134ad57fe5b9060005260206000209060060201600091509050806000015490806001018054600181600116156101000203166002900480601f01602080910402602001604051908101604052809291908181526020018280546001816001161561010002031660029004801561355f5780601f106135345761010080835404028352916020019161355f565b820191906000526020600020905b81548152906001019060200180831161354257829003601f168201915b5050505050908060030160009054906101000a900460ff1690806004015490806005018054600181600116156101000203166002900480601f0160208091040260200160405190810160405280929190818152602001828054600181600116156101000203166002900480156136165780601f106135eb57610100808354040283529160200191613616565b820191906000526020600020905b8154815290600101906020018083116135f957829003601f168201915b5050505050905085565b6060600a8054806020026020016040519081016040528092919081815260200182805480156136a457602002820191906000526020600020905b8160009054906101000a900473ffffffffffffffffffffffffffffffffffffffff1673ffffffffffffffffffffffffffffffffffffffff168152602001906001019080831161365a575b5050505050905090565b6000600860009054906101000a900473ffffffffffffffffffffffffffffffffffffffff16905090565b6000600860009054906101000a900473ffffffffffffffffffffffffffffffffffffffff1673ffffffffffffffffffffffffffffffffffffffff1661371b61449d565b73ffffffffffffffffffffffffffffffffffffffff1614905090565b606060068054600181600116156101000203166002900480601f0160208091040260200160405190810160405280929190818152602001828054600181600116156101000203166002900480156137cf5780601f106137a4576101008083540402835291602001916137cf565b820191906000526020600020905b8154815290600101906020018083116137b257829003601f168201915b5050505050905090565b600e81815481106137e657fe5b906000526020600020906006020160000154600b60003373ffffffffffffffffffffffffffffffffffffffff1673ffffffffffffffffffffffffffffffffffffffff168152602001908152602001600020541461388e576040517f08c379a00000000000000000000000000000000000000000000000000000000081526004018080602001828103825260228152602001806152b26022913960400191505060405180910390fd5b600e818154811061389b57fe5b906000526020600020906006020160030160009054906101000a900460ff1615600e82815481106138c857fe5b906000526020600020906006020160030160006101000a81548160ff021916908315150217905550803373ffffffffffffffffffffffffffffffffffffffff167fe0bd549884d6be9a8162c0a6068c65f6ece0c544934a3e3d9a81bfcd39aadc88600e848154811061393657fe5b906000526020600020906006020160030160009054906101000a900460ff16604051808215151515815260200191505060405180910390a350565b6011602052816000526040600020818154811061398a57fe5b90600052602060002001600091509150505481565b6139a761449d565b73ffffffffffffffffffffffffffffffffffffffff168273ffffffffffffffffffffffffffffffffffffffff161415613a48576040517f08c379a00000000000000000000000000000000000000000000000000000000081526004018080602001828103825260198152602001807f4552433732313a20617070726f766520746f2063616c6c65720000000000000081525060200191505060405180910390fd5b8060046000613a5561449d565b73ffffffffffffffffffffffffffffffffffffffff1673ffffffffffffffffffffffffffffffffffffffff16815260200190815260200160002060008473ffffffffffffffffffffffffffffffffffffffff1673ffffffffffffffffffffffffffffffffffffffff16815260200190815260200160002060006101000a81548160ff0219169083151502179055508173ffffffffffffffffffffffffffffffffffffffff16613b0261449d565b73ffffffffffffffffffffffffffffffffffffffff167f17307eab39ab6107e8899845ad3d59bd9653f200f220920489ca2b5937696c3183604051808215151515815260200191505060405180910390a35050565b613b68613b6261449d565b836144a5565b613bbd576040517f08c379a00000000000000000000000000000000000000000000000000000000081526004018080602001828103825260318152602001806153796031913960400191505060405180910390fd5b613bc984848484614a1a565b50505050565b6060613bda8261442b565b613c2f576040517f08c379a000000000000000000000000000000000000000000000000000000000815260040180806020018281038252602f815260200180615329602f913960400191505060405180910390fd5b600760008381526020019081526020016000208054600181600116156101000203166002900480601f016020809104026020016040519081016040528092919081815260200182805460018160011615610100020316600290048015613cd65780601f10613cab57610100808354040283529160200191613cd6565b820191906000526020600020905b815481529060010190602001808311613cb957829003601f168201915b50505050509050919050565b600f6020528160005260406000208181548110613cfb57fe5b90600052602060002001600091509150505481565b60108181548110613d1d57fe5b90600052602060002090600302016000915090508060000154908060010154908060020154905083565b613d4f6136d8565b613dc1576040517f08c379a00000000000000000000000000000000000000000000000000000000081526004018080602001828103825260208152602001807f4f776e61626c653a2063616c6c6572206973206e6f7420746865206f776e657281525060200191505060405180910390fd5b601360149054906101000a900460ff1615601360146101000a81548160ff021916908315150217905550565b6000600460008473ffffffffffffffffffffffffffffffffffffffff1673ffffffffffffffffffffffffffffffffffffffff16815260200190815260200160002060008373ffffffffffffffffffffffffffffffffffffffff1673ffffffffffffffffffffffffffffffffffffffff16815260200190815260200160002060009054906101000a900460ff16905092915050565b6000806000613e8e615113565b60108581548110613e9b57fe5b906000526020600020906003020160405180606001604052908160008201548152602001600182015481526020016002820154815250509050806000015181602001518260400151935093509350509193909250565b6000600e8381548110613f0057fe5b9060005260206000209060060201600001541415613f86576040517f08c379a00000000000000000000000000000000000000000000000000000000081526004018080602001828103825260158152602001807f53657373696f6e206e6f7420656e6c69737465642e000000000000000000000081525060200191505060405180910390fd5b600e8281548110613f9357fe5b906000526020600020906006020160030160009054906101000a900460ff16614024576040517f08c379a00000000000000000000000000000000000000000000000000000000081526004018080602001828103825260178152602001807f53657373696f6e206973206e6f742072756e6e696e672e00000000000000000081525060200191505060405180910390fd5b6000600b60003373ffffffffffffffffffffffffffffffffffffffff1673ffffffffffffffffffffffffffffffffffffffff1681526020019081526020016000205414156140bd576040517f08c379a00000000000000000000000000000000000000000000000000000000081526004018080602001828103825260228152602001806153aa6022913960400191505060405180910390fd5b6000815111614134576040517f08c379a000000000000000000000000000000000000000000000000000000000815260040180806020018281038252601c8152602001807f44657461696c732073686f756c64206e6f7420626520656d7074792e0000000081525060200191505060405180910390fd5b6000600c60405180606001604052806000600381111561415057fe5b8152602001858152602001600b60003373ffffffffffffffffffffffffffffffffffffffff1673ffffffffffffffffffffffffffffffffffffffff168152602001908152602001600020548152509080600181540180825580915050906001820390600052602060002090600302016000909192909190915060008201518160000160006101000a81548160ff021916908360038111156141ed57fe5b0217905550602082015181600101556040820151816002015550509050600e838154811061421757fe5b9060005260206000209060060201600201600182039080600181540180825580915050906001820390600052602060002001600090919290919091505550600d6000600b60003373ffffffffffffffffffffffffffffffffffffffff1673ffffffffffffffffffffffffffffffffffffffff168152602001908152602001600020548152602001908152602001600020600182039080600181540180825580915050906001820390600052602060002001600090919290919091505550823373ffffffffffffffffffffffffffffffffffffffff167f4f8232dabe03dba77798f9da2c509689c83346e536beb88b66b4619e49594eea846040518080602001828103825283818151815260200191508051906020019080838360005b8381101561434e578082015181840152602081019050614333565b50505050905090810190601f16801561437b5780820380516001836020036101000a031916815260200191505b509250505060405180910390a3505050565b6143956136d8565b614407576040517f08c379a00000000000000000000000000000000000000000000000000000000081526004018080602001828103825260208152602001807f4f776e61626c653a2063616c6c6572206973206e6f7420746865206f776e657281525060200191505060405180910390fd5b61441081614a8c565b50565b600b6020528060005260406000206000915090505481565b6000806001600084815260200190815260200160002060009054906101000a900473ffffffffffffffffffffffffffffffffffffffff169050600073ffffffffffffffffffffffffffffffffffffffff168173ffffffffffffffffffffffffffffffffffffffff161415915050919050565b600033905090565b60006144b08261442b565b614505576040517f08c379a000000000000000000000000000000000000000000000000000000000815260040180806020018281038252602c8152602001806151fb602c913960400191505060405180910390fd5b600061451083612e12565b90508073ffffffffffffffffffffffffffffffffffffffff168473ffffffffffffffffffffffffffffffffffffffff16148061457f57508373ffffffffffffffffffffffffffffffffffffffff16614567846118ff565b73ffffffffffffffffffffffffffffffffffffffff16145b80614590575061458f8185613ded565b5b91505092915050565b8273ffffffffffffffffffffffffffffffffffffffff166145b982612e12565b73ffffffffffffffffffffffffffffffffffffffff1614614625576040517f08c379a00000000000000000000000000000000000000000000000000000000081526004018080602001828103825260298152602001806153006029913960400191505060405180910390fd5b600073ffffffffffffffffffffffffffffffffffffffff168273ffffffffffffffffffffffffffffffffffffffff1614156146ab576040517f08c379a00000000000000000000000000000000000000000000000000000000081526004018080602001828103825260248152602001806151d76024913960400191505060405180910390fd5b6146b481614bd2565b6146fb600360008573ffffffffffffffffffffffffffffffffffffffff1673ffffffffffffffffffffffffffffffffffffffff168152602001908152602001600020614c90565b614742600360008473ffffffffffffffffffffffffffffffffffffffff1673ffffffffffffffffffffffffffffffffffffffff168152602001908152602001600020614cb3565b816001600083815260200190815260200160002060006101000a81548173ffffffffffffffffffffffffffffffffffffffff021916908373ffffffffffffffffffffffffffffffffffffffff160217905550808273ffffffffffffffffffffffffffffffffffffffff168473ffffffffffffffffffffffffffffffffffffffff167fddf252ad1be2c89b69c2b068fc378daa952ba7f163c4a11628f55a4df523b3ef60405160405180910390a4505050565b600073ffffffffffffffffffffffffffffffffffffffff168273ffffffffffffffffffffffffffffffffffffffff161415614897576040517f08c379a00000000000000000000000000000000000000000000000000000000081526004018080602001828103825260208152602001807f4552433732313a206d696e7420746f20746865207a65726f206164647265737381525060200191505060405180910390fd5b6148a08161442b565b15614913576040517f08c379a000000000000000000000000000000000000000000000000000000000815260040180806020018281038252601c8152602001807f4552433732313a20746f6b656e20616c7265616479206d696e7465640000000081525060200191505060405180910390fd5b816001600083815260200190815260200160002060006101000a81548173ffffffffffffffffffffffffffffffffffffffff021916908373ffffffffffffffffffffffffffffffffffffffff1602179055506149ac600360008473ffffffffffffffffffffffffffffffffffffffff1673ffffffffffffffffffffffffffffffffffffffff168152602001908152602001600020614cb3565b808273ffffffffffffffffffffffffffffffffffffffff16600073ffffffffffffffffffffffffffffffffffffffff167fddf252ad1be2c89b69c2b068fc378daa952ba7f163c4a11628f55a4df523b3ef60405160405180910390a45050565b600081600001549050919050565b614a25848484614599565b614a3184848484614cc9565b614a86576040517f08c379a000000000000000000000000000000000000000000000000000000000815260040180806020018281038252603281526020018061517f6032913960400191505060405180910390fd5b50505050565b600073ffffffffffffffffffffffffffffffffffffffff168173ffffffffffffffffffffffffffffffffffffffff161415614b12576040517f08c379a00000000000000000000000000000000000000000000000000000000081526004018080602001828103825260268152602001806151b16026913960400191505060405180910390fd5b8073ffffffffffffffffffffffffffffffffffffffff16600860009054906101000a900473ffffffffffffffffffffffffffffffffffffffff1673ffffffffffffffffffffffffffffffffffffffff167f8be0079c531659141344cd1fd0a4f28419497f9722a3daafe3b4186f6b6457e060405160405180910390a380600860006101000a81548173ffffffffffffffffffffffffffffffffffffffff021916908373ffffffffffffffffffffffffffffffffffffffff16021790555050565b600073ffffffffffffffffffffffffffffffffffffffff166002600083815260200190815260200160002060009054906101000a900473ffffffffffffffffffffffffffffffffffffffff1673ffffffffffffffffffffffffffffffffffffffff1614614c8d5760006002600083815260200190815260200160002060006101000a81548173ffffffffffffffffffffffffffffffffffffffff021916908373ffffffffffffffffffffffffffffffffffffffff1602179055505b50565b614ca860018260000154614eb990919063ffffffff16565b816000018190555050565b6001816000016000828254019250508190555050565b6000614cea8473ffffffffffffffffffffffffffffffffffffffff16614f03565b614cf75760019050614eb1565b60008473ffffffffffffffffffffffffffffffffffffffff1663150b7a02614d1d61449d565b8887876040518563ffffffff1660e01b8152600401808573ffffffffffffffffffffffffffffffffffffffff1673ffffffffffffffffffffffffffffffffffffffff1681526020018473ffffffffffffffffffffffffffffffffffffffff1673ffffffffffffffffffffffffffffffffffffffff16815260200183815260200180602001828103825283818151815260200191508051906020019080838360005b83811015614dd9578082015181840152602081019050614dbe565b50505050905090810190601f168015614e065780820380516001836020036101000a031916815260200191505b5095505050505050602060405180830381600087803b158015614e2857600080fd5b505af1158015614e3c573d6000803e3d6000fd5b505050506040513d6020811015614e5257600080fd5b8101908080519060200190929190505050905063150b7a0260e01b7bffffffffffffffffffffffffffffffffffffffffffffffffffffffff1916817bffffffffffffffffffffffffffffffffffffffffffffffffffffffff1916149150505b949350505050565b6000614efb83836040518060400160405280601e81526020017f536166654d6174683a207375627472616374696f6e206f766572666c6f770000815250614f4e565b905092915050565b60008060007fc5d2460186f7233c927e7db2dcc703c0e500b653ca82273b7bfad8045d85a47060001b9050833f91506000801b8214158015614f455750808214155b92505050919050565b6000838311158290614ffb576040517f08c379a00000000000000000000000000000000000000000000000000000000081526004018080602001828103825283818151815260200191508051906020019080838360005b83811015614fc0578082015181840152602081019050614fa5565b50505050905090810190601f168015614fed5780820380516001836020036101000a031916815260200191505b509250505060405180910390fd5b5060008385039050809150509392505050565b6040518060c0016040528060008152602001606081526020016060815260200160001515815260200160008152602001606081525090565b828054600181600116156101000203166002900490600052602060002090601f016020900481019282601f1061508757805160ff19168380011785556150b5565b828001600101855582156150b5579182015b828111156150b4578251825591602001919060010190615099565b5b5090506150c29190615134565b5090565b828054828255906000526020600020908101928215615102579160200282015b828111156151015782518255916020019190600101906150e6565b5b50905061510f9190615134565b5090565b60405180606001604052806000815260200160008152602001600081525090565b61515691905b8082111561515257600081600090555060010161513a565b5090565b9056fe53747564656e74206e6f7420746865206f776e6572206f66207468697320726571756573744552433732313a207472616e7366657220746f206e6f6e20455243373231526563656976657220696d706c656d656e7465724f776e61626c653a206e6577206f776e657220697320746865207a65726f20616464726573734552433732313a207472616e7366657220746f20746865207a65726f20616464726573734552433732313a206f70657261746f7220717565727920666f72206e6f6e6578697374656e7420746f6b656e4552433732313a20617070726f76652063616c6c6572206973206e6f74206f776e6572206e6f7220617070726f76656420666f7220616c6c4552433732313a2062616c616e636520717565727920666f7220746865207a65726f20616464726573734552433732313a206f776e657220717565727920666f72206e6f6e6578697374656e7420746f6b656e55736572206e6f7420746865207475746f72206f6620746869732073657373696f6e4552433732313a20617070726f76656420717565727920666f72206e6f6e6578697374656e7420746f6b656e4552433732313a207472616e73666572206f6620746f6b656e2074686174206973206e6f74206f776e4552433732314d657461646174613a2055524920717565727920666f72206e6f6e6578697374656e7420746f6b656e4552433732313a20617070726f76616c20746f2063757272656e74206f776e65724552433732313a207472616e736665722063616c6c6572206973206e6f74206f776e6572206e6f7220617070726f76656453747564656e742061646472657373206973206e6f7420726567697374657265642ea265627a7a72315820035acb36bff13a8368a488b0b66112395d4e933a998f6b265b75e6d6e0316c6664736f6c634300050c0032",
  "source": "pragma solidity^0.5.0;\n\n\n\n/// @title Thuto smart contract\n/// @author Helda Mandlate\n\n/// @dev import contracts from openzeppelin related to ownable and ERC20, ERC721 tokens\nimport \"@openzeppelin/contracts/token/ERC20/ERC20.sol\";\nimport \"@openzeppelin/contracts/token/ERC721/ERC721Metadata.sol\";\nimport \"@openzeppelin/contracts/ownership/Ownable.sol\";\n\n\n//import \"github.com/OpenZeppelin/openzeppelin-solidity/contracts/token/ERC20/ERC20.sol\";\n//import \"github.com/OpenZeppelin/openzeppelin-solidity/contracts/token/ERC721/ERC721Metadata.sol\";\n\n/// @notice contract begins here\ncontract thuto is ERC721Metadata, Ownable {\n    /// @notice Creates a struct for users of the plaform, needs their Ethereum address and profile URL\n    struct User {\n        address owned_address;\n        string profile_uri;\n    }\n    /// @notice Creates an array of users that are registered\n    User[] public users;\n\n    address[] registeredUsers;\n\n    /// @notice The mapping below maps all users' addresses to their userID\n    mapping (address => uint256) public userAddresses ;\n\n    /// @notice Creates session defined type\n    enum sessionStatus {Pending, Accepted, Rejected, Cancelled}\n\n    /// @notice Creates a struct for all requests for tutoring, one of the enum parameters, session Id and student Id\n    struct Request {\n        sessionStatus status;\n        uint256 session_Id;\n        uint256 student_Id;\n    }\n    /// @notice Creates an array of requests that have been placed\n    Request[] public requests;\n\n    /// @notice The mapping below maps all requesters' IDs to their studentId\n    mapping(uint256 => uint256[]) public requestOwners;\n\n    /**\n    @notice Creates a struct for all sessions\n    @param tutor_Id The Id of tutors\n    @param session_uri session URL\n    @param session_requests session requests\n    @param isRunning status of the session, True if session is currently running, false if otherwise\n    @param tutoring_price The value of the tutoring session\n    */\n    struct Session {\n        uint256 tutor_Id;\n        string session_uri;\n        uint256[] session_requests;\n        bool isRunning;\n        uint256 tutoring_price;\n        string details;\n    }\n    /// @notice Creates an array of sessions for every tutoring session available\n    Session[] public sessions;\n\n    /// @notice The mapping below will map the addresses of all the successful student addresses to the ID of their owned users, session owners\n    mapping(uint256 => uint256[]) public sessionOwners;\n\n    /**\n    @notice Creates a struct for licencing\n    @param student_Id of each tutoring session student\n    @param session_Id of the tutoring session being requested\n    @param request_Id The request Id for the session\n    */\n    struct LessonDesign {\n        uint256 student_Id;\n        uint256 session_Id;\n        uint256 request_Id;\n    }\n\n    /// @notice Creates an array of accepted lessons\n    LessonDesign[] public lessons;\n    /// @notice Mapping of licence Id to get the licence owners\n    mapping(uint256 => uint256[]) public sessionsOwners;\n    /// @notice Mapping of licence Id to get the session Id\n    mapping(uint256 => uint256[]) public sessionRequests;\n\n    // Setting up events\n    event newSession(\n        address indexed _from,\n        string _session_uri,\n        uint256 _tutoring_price,\n        string _details\n    );\n\n    event newRequest(\n        address indexed _from,\n        uint256 indexed _session_Id,\n        string _details\n    );\n\n    event acceptedRequest(\n        address indexed _from,\n        uint256 _id\n    );\n\n    event rejectedRequest(\n        address indexed _from,\n        uint256 _id\n    );\n\n    event cancelledRequest(\n        address indexed _from,\n        uint256 _id\n    );\n\n    event ChangeTutoringPrice(\n        address indexed _from,\n        uint256 indexed _session_Id,\n        uint256 _tutoring_price\n    );\n\n    event ChangeRunningStatus(\n        address indexed _from,\n        uint256 indexed _session_Id,\n        bool _isRunning\n    );\n\n    /// @dev ERC20 is now daiContract\n    ERC20 daiContract;\n    /// @dev The constructor below reserves tutor 0 for all unregistered users\n    /// @param _daiContractAddress DAI contract address\n    constructor(address _daiContractAddress) public ERC721Metadata(\"Thuto Licence\", \"THUTO\"){\n        users.push(User(address(0), \"\"));\n        lessons.push(LessonDesign(0, 0, 0));\n        daiContract = ERC20(_daiContractAddress);\n    }\n\n    /// @notice This function registers a tutor on the platform by taking in their profile URL\n    /// @param _profile_uri tutor profile url\n    /// @dev If the tutor's address is in position 0 of the userAddresses array, they are unregistered\n    /// @dev Create an instance of the tutor and add the Id to their address\n    function registerUser(string memory _profile_uri) public {\n        require(bytes(_profile_uri).length > 0, \"Profile URI should not be empty.\");\n        require(userAddresses[msg.sender]==0,\"Tutor already registered.\");\n        uint256 id = users.push(User(msg.sender,_profile_uri));\n        userAddresses[msg.sender] = id - 1;\n    }\n\n    /// @notice This function creates a session on the system, with blank arrays for session requests and owners\n    /// @notice since no one has requested a session for or bought a licence yet\n    /// @dev The tutor only specifies the flat rate\n    /// @dev Add instance to the respective arrays\n\n    function addSession(\n        string memory _session_uri,\n        bool _isRunning,\n        uint256 _tutoring_price, string memory _details) public {\n        require(bytes(_session_uri).length > 0, \"Session URI should not be empty.\");\n        require(userAddresses[msg.sender] != 0, \"Tutor address is not registered.\");\n        require(_tutoring_price > 0, \"Sell price not specified.\");\n        require(bytes(_details).length > 0, \"Details should not be empty.\");\n\n        uint256 _tutor_Id = userAddresses[msg.sender];\n        uint256[] memory _session_requests;\n        Session memory _session = Session(\n            _tutor_Id,\n            _session_uri,\n            _session_requests,\n            _isRunning,\n            _tutoring_price,\n            _details);\n        uint256 _id = sessions.push(_session);\n        sessionOwners[_tutor_Id].push(_id - 1);\n\n        emit newSession(msg.sender,_session_uri, _tutoring_price, _details);\n    }\n\n    /// @notice This function creates a new request for a particular session\n    /// @param _details for the session\n    /// @param _session_Id is the index for the session Id\n    /// @dev lesson Id is added to list of requested sessions\n    function requestSession(uint256 _session_Id, string memory _details) public {\n        require(sessions[_session_Id].tutor_Id != 0, \"Session not enlisted.\");\n        require(sessions[_session_Id].isRunning, \"Session is not running.\");\n        require(userAddresses[msg.sender] != 0, \"Student address is not registered.\");\n        require(bytes(_details).length > 0, \"Details should not be empty.\");\n        uint256 _id = requests.push(Request(sessionStatus.Pending, _session_Id, userAddresses[msg.sender]));\n        sessions[_session_Id].session_requests.push(_id - 1);\n        requestOwners[userAddresses[msg.sender]].push(_id - 1);\n\n        emit newRequest(msg.sender, _session_Id, _details);\n        \n    }\n    /**\n    @param _id is the request Id\n    @notice This function allows the tutor to accept the requests\n    @dev parameters of licence design: student_Id, session id, request_Id\n    @notice This function allows the tutor to reject the requests\n    */\n    function acceptRequest(uint256 _id) public {\n        uint256 _session_Id = requests[_id].session_Id;\n        require(userAddresses[msg.sender] == sessions[_session_Id].tutor_Id, \"User not the tutor of this session\");\n        require(sessions[_session_Id].isRunning, \"Session is not running\");\n        requests[_id].status = sessionStatus.Accepted;\n\n\n        uint256 _lesson_Id = lessons.push(LessonDesign(requests[_id].student_Id, _session_Id, _id));\n        requestOwners[requests[_id].student_Id].push(_lesson_Id);\n        sessionRequests[_session_Id].push(_lesson_Id);\n        _mint(users[requests[_id].student_Id].owned_address, _lesson_Id);\n        emit acceptedRequest(msg.sender,_id);\n    }\n\n    /// @notice This function allows the tutor to reject the bids\n    /// @param _id is the Request Id\n    function rejectRequest(uint256 _id) public {\n        uint256 _session_Id = requests[_id].session_Id;\n        require(userAddresses[msg.sender] == sessions[_session_Id].tutor_Id, \"User not the tutor of this session\");\n        require(sessions[_session_Id].isRunning, \"Session not running\");\n        requests[_id].status = sessionStatus.Rejected;\n\n        emit rejectedRequest(msg.sender,_id);\n    }\n\n    /// @notice This function allows the student to cancel the requests\n    /// @param _id is the bid Id\n    function cancelRequest(uint256 _id) public {\n        //uint256 _session_Id = requests[_id].session_Id;\n        // uint256 _session_Id = requests[_id].session_Id;\n        uint256 _request_Id = requests[_id].student_Id;\n\n        //uint256 _request_Id = sessions[_id].request_Id;\n        require(userAddresses[msg.sender] == requests[_request_Id].student_Id, \"Student not the owner of this request\");\n        requests[_id].status = sessionStatus.Cancelled;\n\n        emit cancelledRequest(msg.sender,_id);\n    }\n\n\n    /// @notice This function allows the tutor to change the sell price\n    /// @param _session_Id session id number\n    /// @param _tutoring_price for the session\n    function changeTutoringPrice(uint256 _session_Id, uint256 _tutoring_price) public {\n        require(userAddresses[msg.sender] == sessions[_session_Id].tutor_Id, \"User not the tutor of this session\");\n        sessions[_session_Id].tutoring_price = _tutoring_price;\n\n        emit ChangeTutoringPrice(msg.sender, _session_Id, _tutoring_price);\n    }\n\n    /// @notice This function allows the tutor to change the running status\n    /// @param _session_Id session id number\n    function changeRunningStatus(uint256 _session_Id) public {\n        require(userAddresses[msg.sender] == sessions[_session_Id].tutor_Id, \"User not the tutor of this session\");\n        sessions[_session_Id].isRunning = !sessions[_session_Id].isRunning;\n\n        emit ChangeRunningStatus(msg.sender, _session_Id, sessions[_session_Id].isRunning);\n    }\n\n    /// @return This function allows anyone to get the list of sessions based on the address of the tutor\n    /// @param _address eth address for the tutor\n    function getSessions(address _address) public view returns(uint256[] memory) {\n        uint256 _tutor_Id = userAddresses[_address];\n        return sessionOwners[_tutor_Id];\n    }\n\n    /// @return This function allows anyone to get the list of requests based on address of the tutor\n    function getRequests(address _address) public view returns(uint256[] memory) {\n        uint256 _userAddress = userAddresses[_address];\n        return requestOwners[_userAddress];\n    }\n\n    /// @return This function allows anyone to get list of requests per session\n    /// @param _session_Id session id number\n    function getSessionRequests(uint256 _session_Id) public view returns(uint256[] memory) {\n        return sessions[_session_Id].session_requests;\n    }\n\n    /// @return This function allows the return of the total number of sessions\n    function getSessionLength() public view returns(uint count) {\n        return sessions.length;\n    }\n\n    /// @return Returns information about a spesific session ID\n    /// @param _session_Id session id number\n    function getSession(uint256 _session_Id) public view returns(\n        uint256,\n        string memory,\n        uint256[] memory,\n        bool,\n        uint256,\n        string memory){\n        Session memory _session = sessions[_session_Id];\n        return (\n        _session.tutor_Id,\n        _session.session_uri,\n        _session.session_requests,\n        _session.isRunning,\n        _session.tutoring_price,\n        _session.details);\n    }\n\n    /// @return get the lessons per owner\n    /// @param _address of the account holder\n    function getLessonForAddress(address _address) public view returns(uint256[] memory) {\n        uint256 _userNumber = userAddresses[_address];\n        return requestOwners[_userNumber];\n    }\n\n    function getLessons(uint256 _lessonId) public view returns(uint256, uint256, uint256){\n        LessonDesign memory _lesson = lessons[_lessonId];\n        return (\n        _lesson.student_Id,\n        _lesson.session_Id,\n        _lesson.request_Id);\n    }\n\n  // Retrieving the users\n    function getUsers() public view returns(address[] memory) {\n        return registeredUsers;\n    }\n\n\n    bool public stopped = false;\n\n\n    modifier haltInEmergency() {\n        if ( !stopped) _;\n    }\n\n    modifier enableInEmergency() {\n        if ( stopped) _;\n    }\n\n    function toggleContractStopped() public onlyOwner {\n        stopped = !stopped;\n    }\n\n\n    function registerUserFailed() public returns (string memory) {\n        return \"Failed Registration\";\n\n    }\n\n    function userListNotChanged() public view returns (address[] memory) {\n        return registeredUsers;\n    }\n\n\n\n}",
  "sourcePath": "/Users/user/Documents/petshopppp/contracts/Thuto.sol",
  "compiler": {
    "name": "solc",
    "version": "0.5.12+commit.7709ece9.Emscripten.clang"
  },
  "schemaVersion": "3.0.19",
  "updatedAt": "2019-11-16T19:13:49.024Z",
  "devdoc": {
    "methods": {
      "acceptRequest(uint256)": {
        "details": "parameters of licence design: student_Id, session id, request_Id",
        "params": {
          "_id": "is the request Id"
        }
      },
      "addSession(string,bool,uint256,string)": {
        "details": "The tutor only specifies the flat rateAdd instance to the respective arrays"
      },
      "approve(address,uint256)": {
        "details": "Approves another address to transfer the given token ID The zero address indicates there is no approved address. There can only be one approved address per token at a given time. Can only be called by the token owner or an approved operator.",
        "params": {
          "to": "address to be approved for the given token ID",
          "tokenId": "uint256 ID of the token to be approved"
        }
      },
      "balanceOf(address)": {
        "details": "Gets the balance of the specified address.",
        "params": {
          "owner": "address to query the balance of"
        },
        "return": "uint256 representing the amount owned by the passed address"
      },
      "cancelRequest(uint256)": {
        "params": {
          "_id": "is the bid Id"
        }
      },
      "changeRunningStatus(uint256)": {
        "params": {
          "_session_Id": "session id number"
        }
      },
      "changeTutoringPrice(uint256,uint256)": {
        "params": {
          "_session_Id": "session id number",
          "_tutoring_price": "for the session"
        }
      },
      "constructor": {
        "details": "The constructor below reserves tutor 0 for all unregistered users",
        "params": {
          "_daiContractAddress": "DAI contract address"
        }
      },
      "getApproved(uint256)": {
        "details": "Gets the approved address for a token ID, or zero if no address set Reverts if the token ID does not exist.",
        "params": {
          "tokenId": "uint256 ID of the token to query the approval of"
        },
        "return": "address currently approved for the given token ID"
      },
      "getLessonForAddress(address)": {
        "params": {
          "_address": "of the account holder"
        },
        "return": "get the lessons per owner"
      },
      "getRequests(address)": {
        "return": "This function allows anyone to get the list of requests based on address of the tutor"
      },
      "getSession(uint256)": {
        "params": {
          "_session_Id": "session id number"
        },
        "return": "Returns information about a spesific session ID"
      },
      "getSessionLength()": {
        "return": "This function allows the return of the total number of sessions"
      },
      "getSessionRequests(uint256)": {
        "params": {
          "_session_Id": "session id number"
        },
        "return": "This function allows anyone to get list of requests per session"
      },
      "getSessions(address)": {
        "params": {
          "_address": "eth address for the tutor"
        },
        "return": "This function allows anyone to get the list of sessions based on the address of the tutor"
      },
      "isApprovedForAll(address,address)": {
        "details": "Tells whether an operator is approved by a given owner.",
        "params": {
          "operator": "operator address which you want to query the approval of",
          "owner": "owner address which you want to query the approval of"
        },
        "return": "bool whether the given operator is approved by the given owner"
      },
      "isOwner()": {
        "details": "Returns true if the caller is the current owner."
      },
      "name()": {
        "details": "Gets the token name.",
        "return": "string representing the token name"
      },
      "owner()": {
        "details": "Returns the address of the current owner."
      },
      "ownerOf(uint256)": {
        "details": "Gets the owner of the specified token ID.",
        "params": {
          "tokenId": "uint256 ID of the token to query the owner of"
        },
        "return": "address currently marked as the owner of the given token ID"
      },
      "registerUser(string)": {
        "details": "If the tutor's address is in position 0 of the userAddresses array, they are unregisteredCreate an instance of the tutor and add the Id to their address",
        "params": {
          "_profile_uri": "tutor profile url"
        }
      },
      "rejectRequest(uint256)": {
        "params": {
          "_id": "is the Request Id"
        }
      },
      "renounceOwnership()": {
        "details": "Leaves the contract without owner. It will not be possible to call `onlyOwner` functions anymore. Can only be called by the current owner.     * NOTE: Renouncing ownership will leave the contract without an owner, thereby removing any functionality that is only available to the owner."
      },
      "requestSession(uint256,string)": {
        "details": "lesson Id is added to list of requested sessions",
        "params": {
          "_details": "for the session",
          "_session_Id": "is the index for the session Id"
        }
      },
      "safeTransferFrom(address,address,uint256)": {
        "details": "Safely transfers the ownership of a given token ID to another address If the target address is a contract, it must implement {IERC721Receiver-onERC721Received}, which is called upon a safe transfer, and return the magic value `bytes4(keccak256(\"onERC721Received(address,address,uint256,bytes)\"))`; otherwise, the transfer is reverted. Requires the msg.sender to be the owner, approved, or operator",
        "params": {
          "from": "current owner of the token",
          "to": "address to receive the ownership of the given token ID",
          "tokenId": "uint256 ID of the token to be transferred"
        }
      },
      "safeTransferFrom(address,address,uint256,bytes)": {
        "details": "Safely transfers the ownership of a given token ID to another address If the target address is a contract, it must implement {IERC721Receiver-onERC721Received}, which is called upon a safe transfer, and return the magic value `bytes4(keccak256(\"onERC721Received(address,address,uint256,bytes)\"))`; otherwise, the transfer is reverted. Requires the _msgSender() to be the owner, approved, or operator",
        "params": {
          "_data": "bytes data to send along with a safe transfer check",
          "from": "current owner of the token",
          "to": "address to receive the ownership of the given token ID",
          "tokenId": "uint256 ID of the token to be transferred"
        }
      },
      "setApprovalForAll(address,bool)": {
        "details": "Sets or unsets the approval of a given operator An operator is allowed to transfer all tokens of the sender on their behalf.",
        "params": {
          "approved": "representing the status of the approval to be set",
          "to": "operator address to set the approval"
        }
      },
      "supportsInterface(bytes4)": {
        "details": "See {IERC165-supportsInterface}.     * Time complexity O(1), guaranteed to always use less than 30 000 gas."
      },
      "symbol()": {
        "details": "Gets the token symbol.",
        "return": "string representing the token symbol"
      },
      "tokenURI(uint256)": {
        "details": "Returns an URI for a given token ID. Throws if the token ID does not exist. May return an empty string.",
        "params": {
          "tokenId": "uint256 ID of the token to query"
        }
      },
      "transferFrom(address,address,uint256)": {
        "details": "Transfers the ownership of a given token ID to another address. Usage of this method is discouraged, use {safeTransferFrom} whenever possible. Requires the msg.sender to be the owner, approved, or operator.",
        "params": {
          "from": "current owner of the token",
          "to": "address to receive the ownership of the given token ID",
          "tokenId": "uint256 ID of the token to be transferred"
        }
      },
      "transferOwnership(address)": {
        "details": "Transfers ownership of the contract to a new account (`newOwner`). Can only be called by the current owner."
      }
    }
  },
  "userdoc": {
    "methods": {
      "acceptRequest(uint256)": {
        "notice": "This function allows the tutor to accept the requestsThis function allows the tutor to reject the requests"
      },
      "addSession(string,bool,uint256,string)": {
        "notice": "This function creates a session on the system, with blank arrays for session requests and ownerssince no one has requested a session for or bought a licence yet"
      },
      "cancelRequest(uint256)": {
        "notice": "This function allows the student to cancel the requests"
      },
      "changeRunningStatus(uint256)": {
        "notice": "This function allows the tutor to change the running status"
      },
      "changeTutoringPrice(uint256,uint256)": {
        "notice": "This function allows the tutor to change the sell price"
      },
      "registerUser(string)": {
        "notice": "This function registers a tutor on the platform by taking in their profile URL"
      },
      "rejectRequest(uint256)": {
        "notice": "This function allows the tutor to reject the bids"
      },
      "requestSession(uint256,string)": {
        "notice": "This function creates a new request for a particular session"
      }
    },
    "notice": "contract begins here"
  }
}